{
  "_format": "hh-sol-artifact-1",
  "contractName": "VotingSystem",
  "sourceName": "contracts/VotingSystem.sol",
  "abi": [
    {
      "inputs": [],
      "stateMutability": "nonpayable",
      "type": "constructor"
    },
    {
      "inputs": [
        {
          "internalType": "address",
          "name": "_candAddress",
          "type": "address"
        },
        {
          "internalType": "string",
          "name": "_candName",
          "type": "string"
        },
        {
          "internalType": "string",
          "name": "_candProposal",
          "type": "string"
        }
      ],
      "name": "addCandidate",
      "outputs": [
        {
          "internalType": "bool",
          "name": "",
          "type": "bool"
        }
      ],
      "stateMutability": "nonpayable",
      "type": "function"
    },
    {
      "inputs": [
        {
          "internalType": "address",
          "name": "_voterAddress",
          "type": "address"
        },
        {
          "internalType": "string",
          "name": "_voterName",
          "type": "string"
        }
      ],
      "name": "addVoters",
      "outputs": [
        {
          "internalType": "bool",
          "name": "",
          "type": "bool"
        }
      ],
      "stateMutability": "nonpayable",
      "type": "function"
    },
    {
      "inputs": [
        {
          "internalType": "uint256",
          "name": "",
          "type": "uint256"
        }
      ],
      "name": "candArr",
      "outputs": [
        {
          "internalType": "address",
          "name": "candAddress",
          "type": "address"
        },
        {
          "internalType": "string",
          "name": "name",
          "type": "string"
        },
        {
          "internalType": "string",
          "name": "proposal",
          "type": "string"
        },
        {
          "internalType": "uint256",
          "name": "votes",
          "type": "uint256"
        }
      ],
      "stateMutability": "view",
      "type": "function"
    },
    {
      "inputs": [],
      "name": "endVoting",
      "outputs": [
        {
          "components": [
            {
              "internalType": "address",
              "name": "candAddress",
              "type": "address"
            },
            {
              "internalType": "string",
              "name": "name",
              "type": "string"
            },
            {
              "internalType": "string",
              "name": "proposal",
              "type": "string"
            },
            {
              "internalType": "uint256",
              "name": "votes",
              "type": "uint256"
            }
          ],
          "internalType": "struct VotingSystem.candidate",
          "name": "",
          "type": "tuple"
        }
      ],
      "stateMutability": "nonpayable",
      "type": "function"
    },
    {
      "inputs": [],
      "name": "getCandidates",
      "outputs": [
        {
          "components": [
            {
              "internalType": "address",
              "name": "candAddress",
              "type": "address"
            },
            {
              "internalType": "string",
              "name": "name",
              "type": "string"
            },
            {
              "internalType": "string",
              "name": "proposal",
              "type": "string"
            },
            {
              "internalType": "uint256",
              "name": "votes",
              "type": "uint256"
            }
          ],
          "internalType": "struct VotingSystem.candidate[]",
          "name": "",
          "type": "tuple[]"
        }
      ],
      "stateMutability": "view",
      "type": "function"
    },
    {
      "inputs": [],
      "name": "getVoters",
      "outputs": [
        {
          "components": [
            {
              "internalType": "address",
              "name": "voterAddress",
              "type": "address"
            },
            {
              "internalType": "string",
              "name": "name",
              "type": "string"
            },
            {
              "internalType": "bool",
              "name": "voted",
              "type": "bool"
            }
          ],
          "internalType": "struct VotingSystem.voter[]",
          "name": "",
          "type": "tuple[]"
        }
      ],
      "stateMutability": "view",
      "type": "function"
    },
    {
      "inputs": [
        {
          "internalType": "address",
          "name": "_ad",
          "type": "address"
        }
      ],
      "name": "isManager",
      "outputs": [
        {
          "internalType": "bool",
          "name": "",
          "type": "bool"
        }
      ],
      "stateMutability": "view",
      "type": "function"
    },
    {
      "inputs": [],
      "name": "startVoting",
      "outputs": [],
      "stateMutability": "nonpayable",
      "type": "function"
    },
    {
      "inputs": [
        {
          "internalType": "address",
          "name": "_candAddress",
          "type": "address"
        }
      ],
      "name": "voteCandidate",
      "outputs": [],
      "stateMutability": "nonpayable",
      "type": "function"
    },
    {
      "inputs": [
        {
          "internalType": "uint256",
          "name": "",
          "type": "uint256"
        }
      ],
      "name": "voterArr",
      "outputs": [
        {
          "internalType": "address",
          "name": "voterAddress",
          "type": "address"
        },
        {
          "internalType": "string",
          "name": "name",
          "type": "string"
        },
        {
          "internalType": "bool",
          "name": "voted",
          "type": "bool"
        }
      ],
      "stateMutability": "view",
      "type": "function"
    }
  ],
  "bytecode": "0x608060405234801561001057600080fd5b5033600260006101000a81548173ffffffffffffffffffffffffffffffffffffffff021916908373ffffffffffffffffffffffffffffffffffffffff160217905550611e9a806100616000396000f3fe608060405234801561001057600080fd5b506004361061009e5760003560e01c8063c3403ddf11610066578063c3403ddf1461014a578063cdd7225314610168578063e22a623114610186578063f2a3991c146101b6578063f3ae2415146101e85761009e565b806306a49fce146100a35780631ec6b60a146100c157806326bb886d146100cb5780637cabb274146100e7578063a2683db71461011a575b600080fd5b6100ab610218565b6040516100b89190611a9c565b60405180910390f35b6100c96103fb565b005b6100e560048036038101906100e091906115a4565b610472565b005b61010160048036038101906100fc91906116a0565b6108d2565b6040516101119493929190611a49565b60405180910390f35b610134600480360381019061012f91906115cd565b610a42565b6040516101419190611ae0565b60405180910390f35b610152610c55565b60405161015f9190611b1b565b60405180910390f35b610170610f2e565b60405161017d9190611abe565b60405180910390f35b6101a0600480360381019061019b9190611621565b611090565b6040516101ad9190611ae0565b60405180910390f35b6101d060048036038101906101cb91906116a0565b6112af565b6040516101df93929190611a0b565b60405180910390f35b61020260048036038101906101fd91906115a4565b61139e565b60405161020f9190611ae0565b60405180910390f35b60606000805480602002602001604051908101604052809291908181526020016000905b828210156103f257838290600052602060002090600402016040518060800160405290816000820160009054906101000a900473ffffffffffffffffffffffffffffffffffffffff1673ffffffffffffffffffffffffffffffffffffffff1673ffffffffffffffffffffffffffffffffffffffff1681526020016001820180546102c590611d1d565b80601f01602080910402602001604051908101604052809291908181526020018280546102f190611d1d565b801561033e5780601f106103135761010080835404028352916020019161033e565b820191906000526020600020905b81548152906001019060200180831161032157829003601f168201915b5050505050815260200160028201805461035790611d1d565b80601f016020809104026020016040519081016040528092919081815260200182805461038390611d1d565b80156103d05780601f106103a5576101008083540402835291602001916103d0565b820191906000526020600020905b8154815290600101906020018083116103b357829003601f168201915b505050505081526020016003820154815250508152602001906001019061023c565b50505050905090565b600260009054906101000a900473ffffffffffffffffffffffffffffffffffffffff1673ffffffffffffffffffffffffffffffffffffffff163373ffffffffffffffffffffffffffffffffffffffff161461045557600080fd5b6001600260146101000a81548160ff021916908315150217905550565b600260149054906101000a900460ff166104c1576040517f08c379a00000000000000000000000000000000000000000000000000000000081526004016104b890611afb565b60405180910390fd5b600260009054906101000a900473ffffffffffffffffffffffffffffffffffffffff1673ffffffffffffffffffffffffffffffffffffffff163373ffffffffffffffffffffffffffffffffffffffff16141561051c57600080fd5b60006105266113f8565b60005b6001805490508110156107455760018181548110610570577f4e487b7100000000000000000000000000000000000000000000000000000000600052603260045260246000fd5b906000526020600020906003020160000160009054906101000a900473ffffffffffffffffffffffffffffffffffffffff1673ffffffffffffffffffffffffffffffffffffffff163373ffffffffffffffffffffffffffffffffffffffff161415610732576001818154811061060f577f4e487b7100000000000000000000000000000000000000000000000000000000600052603260045260246000fd5b90600052602060002090600302016040518060600160405290816000820160009054906101000a900473ffffffffffffffffffffffffffffffffffffffff1673ffffffffffffffffffffffffffffffffffffffff1673ffffffffffffffffffffffffffffffffffffffff16815260200160018201805461068e90611d1d565b80601f01602080910402602001604051908101604052809291908181526020018280546106ba90611d1d565b80156107075780601f106106dc57610100808354040283529160200191610707565b820191906000526020600020905b8154815290600101906020018083116106ea57829003601f168201915b505050505081526020016002820160009054906101000a900460ff1615151515815250509150600192505b808061073d90611d4f565b915050610529565b506001821461075357600080fd5b80604001511561076257600080fd5b60005b6000805490508110156108cc57600081815481106107ac577f4e487b7100000000000000000000000000000000000000000000000000000000600052603260045260246000fd5b906000526020600020906004020160000160009054906101000a900473ffffffffffffffffffffffffffffffffffffffff1673ffffffffffffffffffffffffffffffffffffffff168473ffffffffffffffffffffffffffffffffffffffff1614156108b95760016000828154811061084d577f4e487b7100000000000000000000000000000000000000000000000000000000600052603260045260246000fd5b9060005260206000209060040201600301546108699190611c3d565b600082815481106108a3577f4e487b7100000000000000000000000000000000000000000000000000000000600052603260045260246000fd5b9060005260206000209060040201600301819055505b80806108c490611d4f565b915050610765565b50505050565b600081815481106108e257600080fd5b90600052602060002090600402016000915090508060000160009054906101000a900473ffffffffffffffffffffffffffffffffffffffff169080600101805461092b90611d1d565b80601f016020809104026020016040519081016040528092919081815260200182805461095790611d1d565b80156109a45780601f10610979576101008083540402835291602001916109a4565b820191906000526020600020905b81548152906001019060200180831161098757829003601f168201915b5050505050908060020180546109b990611d1d565b80601f01602080910402602001604051908101604052809291908181526020018280546109e590611d1d565b8015610a325780601f10610a0757610100808354040283529160200191610a32565b820191906000526020600020905b815481529060010190602001808311610a1557829003601f168201915b5050505050908060030154905084565b6000600260009054906101000a900473ffffffffffffffffffffffffffffffffffffffff1673ffffffffffffffffffffffffffffffffffffffff163373ffffffffffffffffffffffffffffffffffffffff1614610a9e57600080fd5b60005b600180549050811015610b655760018181548110610ae8577f4e487b7100000000000000000000000000000000000000000000000000000000600052603260045260246000fd5b906000526020600020906003020160000160009054906101000a900473ffffffffffffffffffffffffffffffffffffffff1673ffffffffffffffffffffffffffffffffffffffff168473ffffffffffffffffffffffffffffffffffffffff161415610b5257600080fd5b8080610b5d90611d4f565b915050610aa1565b50600160405180606001604052808573ffffffffffffffffffffffffffffffffffffffff16815260200184815260200160001515815250908060018154018082558091505060019003906000526020600020906003020160009091909190915060008201518160000160006101000a81548173ffffffffffffffffffffffffffffffffffffffff021916908373ffffffffffffffffffffffffffffffffffffffff1602179055506020820151816001019080519060200190610c28929190611431565b5060408201518160020160006101000a81548160ff02191690831515021790555050506001905092915050565b610c5d6114b7565b600260009054906101000a900473ffffffffffffffffffffffffffffffffffffffff1673ffffffffffffffffffffffffffffffffffffffff163373ffffffffffffffffffffffffffffffffffffffff1614610cb757600080fd5b6000600260146101000a81548160ff02191690831515021790555060008060005b600080549050811015610d4f5760008181548110610d1f577f4e487b7100000000000000000000000000000000000000000000000000000000600052603260045260246000fd5b906000526020600020906004020160030154831015610d3c578091505b8080610d4790611d4f565b915050610cd8565b5060008181548110610d8a577f4e487b7100000000000000000000000000000000000000000000000000000000600052603260045260246000fd5b90600052602060002090600402016040518060800160405290816000820160009054906101000a900473ffffffffffffffffffffffffffffffffffffffff1673ffffffffffffffffffffffffffffffffffffffff1673ffffffffffffffffffffffffffffffffffffffff168152602001600182018054610e0990611d1d565b80601f0160208091040260200160405190810160405280929190818152602001828054610e3590611d1d565b8015610e825780601f10610e5757610100808354040283529160200191610e82565b820191906000526020600020905b815481529060010190602001808311610e6557829003601f168201915b50505050508152602001600282018054610e9b90611d1d565b80601f0160208091040260200160405190810160405280929190818152602001828054610ec790611d1d565b8015610f145780601f10610ee957610100808354040283529160200191610f14565b820191906000526020600020905b815481529060010190602001808311610ef757829003601f168201915b505050505081526020016003820154815250509250505090565b60606001805480602002602001604051908101604052809291908181526020016000905b8282101561108757838290600052602060002090600302016040518060600160405290816000820160009054906101000a900473ffffffffffffffffffffffffffffffffffffffff1673ffffffffffffffffffffffffffffffffffffffff1673ffffffffffffffffffffffffffffffffffffffff168152602001600182018054610fdb90611d1d565b80601f016020809104026020016040519081016040528092919081815260200182805461100790611d1d565b80156110545780601f1061102957610100808354040283529160200191611054565b820191906000526020600020905b81548152906001019060200180831161103757829003601f168201915b505050505081526020016002820160009054906101000a900460ff16151515158152505081526020019060010190610f52565b50505050905090565b6000600260009054906101000a900473ffffffffffffffffffffffffffffffffffffffff1673ffffffffffffffffffffffffffffffffffffffff163373ffffffffffffffffffffffffffffffffffffffff16146110ec57600080fd5b60005b6000805490508110156111b35760008181548110611136577f4e487b7100000000000000000000000000000000000000000000000000000000600052603260045260246000fd5b906000526020600020906004020160000160009054906101000a900473ffffffffffffffffffffffffffffffffffffffff1673ffffffffffffffffffffffffffffffffffffffff168573ffffffffffffffffffffffffffffffffffffffff1614156111a057600080fd5b80806111ab90611d4f565b9150506110ef565b50600060405180608001604052808673ffffffffffffffffffffffffffffffffffffffff1681526020018581526020018481526020016000815250908060018154018082558091505060019003906000526020600020906004020160009091909190915060008201518160000160006101000a81548173ffffffffffffffffffffffffffffffffffffffff021916908373ffffffffffffffffffffffffffffffffffffffff160217905550602082015181600101908051906020019061127a929190611431565b506040820151816002019080519060200190611297929190611431565b50606082015181600301555050600190509392505050565b600181815481106112bf57600080fd5b90600052602060002090600302016000915090508060000160009054906101000a900473ffffffffffffffffffffffffffffffffffffffff169080600101805461130890611d1d565b80601f016020809104026020016040519081016040528092919081815260200182805461133490611d1d565b80156113815780601f1061135657610100808354040283529160200191611381565b820191906000526020600020905b81548152906001019060200180831161136457829003601f168201915b5050505050908060020160009054906101000a900460ff16905083565b6000600260009054906101000a900473ffffffffffffffffffffffffffffffffffffffff1673ffffffffffffffffffffffffffffffffffffffff168273ffffffffffffffffffffffffffffffffffffffff16149050919050565b6040518060600160405280600073ffffffffffffffffffffffffffffffffffffffff168152602001606081526020016000151581525090565b82805461143d90611d1d565b90600052602060002090601f01602090048101928261145f57600085556114a6565b82601f1061147857805160ff19168380011785556114a6565b828001600101855582156114a6579182015b828111156114a557825182559160200191906001019061148a565b5b5090506114b391906114f5565b5090565b6040518060800160405280600073ffffffffffffffffffffffffffffffffffffffff1681526020016060815260200160608152602001600081525090565b5b8082111561150e5760008160009055506001016114f6565b5090565b600061152561152084611b6e565b611b3d565b90508281526020810184848401111561153d57600080fd5b611548848285611cdb565b509392505050565b60008135905061155f81611e36565b92915050565b600082601f83011261157657600080fd5b8135611586848260208601611512565b91505092915050565b60008135905061159e81611e4d565b92915050565b6000602082840312156115b657600080fd5b60006115c484828501611550565b91505092915050565b600080604083850312156115e057600080fd5b60006115ee85828601611550565b925050602083013567ffffffffffffffff81111561160b57600080fd5b61161785828601611565565b9150509250929050565b60008060006060848603121561163657600080fd5b600061164486828701611550565b935050602084013567ffffffffffffffff81111561166157600080fd5b61166d86828701611565565b925050604084013567ffffffffffffffff81111561168a57600080fd5b61169686828701611565565b9150509250925092565b6000602082840312156116b257600080fd5b60006116c08482850161158f565b91505092915050565b60006116d583836118c9565b905092915050565b60006116e9838361199d565b905092915050565b6116fa81611c93565b82525050565b61170981611c93565b82525050565b600061171a82611bbe565b6117248185611bf9565b93508360208202850161173685611b9e565b8060005b85811015611772578484038952815161175385826116c9565b945061175e83611bdf565b925060208a0199505060018101905061173a565b50829750879550505050505092915050565b600061178f82611bc9565b6117998185611c0a565b9350836020820285016117ab85611bae565b8060005b858110156117e757848403895281516117c885826116dd565b94506117d383611bec565b925060208a019950506001810190506117af565b50829750879550505050505092915050565b61180281611ca5565b82525050565b61181181611ca5565b82525050565b600061182282611bd4565b61182c8185611c1b565b935061183c818560208601611cea565b61184581611e25565b840191505092915050565b600061185b82611bd4565b6118658185611c2c565b9350611875818560208601611cea565b61187e81611e25565b840191505092915050565b6000611896601683611c2c565b91507f566f74696e67206e6f7420616c6c6f77656420796574000000000000000000006000830152602082019050919050565b60006080830160008301516118e160008601826116f1565b50602083015184820360208601526118f98282611817565b915050604083015184820360408601526119138282611817565b915050606083015161192860608601826119ed565b508091505092915050565b600060808301600083015161194b60008601826116f1565b50602083015184820360208601526119638282611817565b9150506040830151848203604086015261197d8282611817565b915050606083015161199260608601826119ed565b508091505092915050565b60006060830160008301516119b560008601826116f1565b50602083015184820360208601526119cd8282611817565b91505060408301516119e260408601826117f9565b508091505092915050565b6119f681611cd1565b82525050565b611a0581611cd1565b82525050565b6000606082019050611a206000830186611700565b8181036020830152611a328185611850565b9050611a416040830184611808565b949350505050565b6000608082019050611a5e6000830187611700565b8181036020830152611a708186611850565b90508181036040830152611a848185611850565b9050611a9360608301846119fc565b95945050505050565b60006020820190508181036000830152611ab6818461170f565b905092915050565b60006020820190508181036000830152611ad88184611784565b905092915050565b6000602082019050611af56000830184611808565b92915050565b60006020820190508181036000830152611b1481611889565b9050919050565b60006020820190508181036000830152611b358184611933565b905092915050565b6000604051905081810181811067ffffffffffffffff82111715611b6457611b63611df6565b5b8060405250919050565b600067ffffffffffffffff821115611b8957611b88611df6565b5b601f19601f8301169050602081019050919050565b6000819050602082019050919050565b6000819050602082019050919050565b600081519050919050565b600081519050919050565b600081519050919050565b6000602082019050919050565b6000602082019050919050565b600082825260208201905092915050565b600082825260208201905092915050565b600082825260208201905092915050565b600082825260208201905092915050565b6000611c4882611cd1565b9150611c5383611cd1565b9250827fffffffffffffffffffffffffffffffffffffffffffffffffffffffffffffffff03821115611c8857611c87611d98565b5b828201905092915050565b6000611c9e82611cb1565b9050919050565b60008115159050919050565b600073ffffffffffffffffffffffffffffffffffffffff82169050919050565b6000819050919050565b82818337600083830152505050565b60005b83811015611d08578082015181840152602081019050611ced565b83811115611d17576000848401525b50505050565b60006002820490506001821680611d3557607f821691505b60208210811415611d4957611d48611dc7565b5b50919050565b6000611d5a82611cd1565b91507fffffffffffffffffffffffffffffffffffffffffffffffffffffffffffffffff821415611d8d57611d8c611d98565b5b600182019050919050565b7f4e487b7100000000000000000000000000000000000000000000000000000000600052601160045260246000fd5b7f4e487b7100000000000000000000000000000000000000000000000000000000600052602260045260246000fd5b7f4e487b7100000000000000000000000000000000000000000000000000000000600052604160045260246000fd5b6000601f19601f8301169050919050565b611e3f81611c93565b8114611e4a57600080fd5b50565b611e5681611cd1565b8114611e6157600080fd5b5056fea2646970667358221220b741f9d6a7a30b1d087adfd816ce2f558a76f2c85e45fbe14633120d7c2ebae464736f6c63430008000033",
  "linkReferences": {},
  "deployedLinkReferences": {}
}