{
  "_format": "hh-sol-artifact-1",
  "contractName": "VotingSystem",
  "sourceName": "contracts/VotingSystem.sol",
  "abi": [
    {
      "inputs": [],
      "stateMutability": "nonpayable",
      "type": "constructor"
    },
    {
      "anonymous": false,
      "inputs": [
        {
          "indexed": true,
          "internalType": "address",
          "name": "candAdd",
          "type": "address"
        },
        {
          "indexed": false,
          "internalType": "string",
          "name": "name",
          "type": "string"
        },
        {
          "indexed": false,
          "internalType": "string",
          "name": "proposal",
          "type": "string"
        },
        {
          "indexed": false,
          "internalType": "uint256",
          "name": "votes",
          "type": "uint256"
        }
      ],
      "name": "NewCandidate",
      "type": "event"
    },
    {
      "anonymous": false,
      "inputs": [
        {
          "indexed": true,
          "internalType": "address",
          "name": "voterAdd",
          "type": "address"
        },
        {
          "indexed": false,
          "internalType": "string",
          "name": "name",
          "type": "string"
        },
        {
          "indexed": false,
          "internalType": "bool",
          "name": "voted",
          "type": "bool"
        }
      ],
      "name": "NewVoter",
      "type": "event"
    },
    {
      "inputs": [
        {
          "internalType": "address",
          "name": "_candAddress",
          "type": "address"
        },
        {
          "internalType": "string",
          "name": "_candName",
          "type": "string"
        },
        {
          "internalType": "string",
          "name": "_candProposal",
          "type": "string"
        }
      ],
      "name": "addCandidate",
      "outputs": [],
      "stateMutability": "nonpayable",
      "type": "function"
    },
    {
      "inputs": [
        {
          "internalType": "address",
          "name": "_voterAddress",
          "type": "address"
        },
        {
          "internalType": "string",
          "name": "_voterName",
          "type": "string"
        }
      ],
      "name": "addVoter",
      "outputs": [],
      "stateMutability": "nonpayable",
      "type": "function"
    },
    {
      "inputs": [
        {
          "internalType": "uint256",
          "name": "",
          "type": "uint256"
        }
      ],
      "name": "candArr",
      "outputs": [
        {
          "internalType": "address",
          "name": "candAddress",
          "type": "address"
        },
        {
          "internalType": "string",
          "name": "name",
          "type": "string"
        },
        {
          "internalType": "string",
          "name": "proposal",
          "type": "string"
        },
        {
          "internalType": "uint256",
          "name": "votes",
          "type": "uint256"
        }
      ],
      "stateMutability": "view",
      "type": "function"
    },
    {
      "inputs": [],
      "name": "candWinner",
      "outputs": [
        {
          "internalType": "address",
          "name": "_candAddress",
          "type": "address"
        },
        {
          "internalType": "string",
          "name": "_name",
          "type": "string"
        },
        {
          "internalType": "string",
          "name": "_proposal",
          "type": "string"
        },
        {
          "internalType": "uint256",
          "name": "_votes",
          "type": "uint256"
        }
      ],
      "stateMutability": "view",
      "type": "function"
    },
    {
      "inputs": [],
      "name": "endVoting",
      "outputs": [],
      "stateMutability": "nonpayable",
      "type": "function"
    },
    {
      "inputs": [],
      "name": "getCandidates",
      "outputs": [
        {
          "components": [
            {
              "internalType": "address",
              "name": "candAddress",
              "type": "address"
            },
            {
              "internalType": "string",
              "name": "name",
              "type": "string"
            },
            {
              "internalType": "string",
              "name": "proposal",
              "type": "string"
            },
            {
              "internalType": "uint256",
              "name": "votes",
              "type": "uint256"
            }
          ],
          "internalType": "struct VotingSystem.candidate[]",
          "name": "",
          "type": "tuple[]"
        }
      ],
      "stateMutability": "view",
      "type": "function"
    },
    {
      "inputs": [],
      "name": "getVoters",
      "outputs": [
        {
          "components": [
            {
              "internalType": "address",
              "name": "voterAddress",
              "type": "address"
            },
            {
              "internalType": "string",
              "name": "name",
              "type": "string"
            },
            {
              "internalType": "bool",
              "name": "voted",
              "type": "bool"
            }
          ],
          "internalType": "struct VotingSystem.voter[]",
          "name": "",
          "type": "tuple[]"
        }
      ],
      "stateMutability": "view",
      "type": "function"
    },
    {
      "inputs": [
        {
          "internalType": "address",
          "name": "_ad",
          "type": "address"
        }
      ],
      "name": "isManager",
      "outputs": [
        {
          "internalType": "bool",
          "name": "",
          "type": "bool"
        }
      ],
      "stateMutability": "view",
      "type": "function"
    },
    {
      "inputs": [],
      "name": "resetCandidates",
      "outputs": [],
      "stateMutability": "nonpayable",
      "type": "function"
    },
    {
      "inputs": [],
      "name": "resetVoters",
      "outputs": [],
      "stateMutability": "nonpayable",
      "type": "function"
    },
    {
      "inputs": [],
      "name": "startVoting",
      "outputs": [],
      "stateMutability": "nonpayable",
      "type": "function"
    },
    {
      "inputs": [
        {
          "internalType": "address",
          "name": "_candAddress",
          "type": "address"
        }
      ],
      "name": "voteCandidate",
      "outputs": [],
      "stateMutability": "nonpayable",
      "type": "function"
    },
    {
      "inputs": [
        {
          "internalType": "uint256",
          "name": "",
          "type": "uint256"
        }
      ],
      "name": "voterArr",
      "outputs": [
        {
          "internalType": "address",
          "name": "voterAddress",
          "type": "address"
        },
        {
          "internalType": "string",
          "name": "name",
          "type": "string"
        },
        {
          "internalType": "bool",
          "name": "voted",
          "type": "bool"
        }
      ],
      "stateMutability": "view",
      "type": "function"
    },
    {
      "inputs": [],
      "name": "votingStatus",
      "outputs": [
        {
          "internalType": "bool",
          "name": "voteAllow",
          "type": "bool"
        }
      ],
      "stateMutability": "view",
      "type": "function"
    }
  ],
  "bytecode": "0x608060405234801561001057600080fd5b5033600260006101000a81548173ffffffffffffffffffffffffffffffffffffffff021916908373ffffffffffffffffffffffffffffffffffffffff160217905550612504806100616000396000f3fe608060405234801561001057600080fd5b50600436106100ea5760003560e01c80637cabb2741161008c578063d9e95a9811610066578063d9e95a98146101e1578063e22a6231146101fd578063f2a3991c14610219578063f3ae24151461024b576100ea565b80637cabb27414610186578063c3403ddf146101b9578063cdd72253146101c3576100ea565b806326bb886d116100c857806326bb886d146101355780632f08a7b314610151578063553bd397146101725780637718d9f31461017c576100ea565b806306a49fce146100ef57806319f41a401461010d5780631ec6b60a1461012b575b600080fd5b6100f761027b565b6040516101049190612017565b60405180910390f35b61011561045e565b604051610122919061205b565b60405180910390f35b610133610475565b005b61014f600480360381019061014a9190611afa565b6104ec565b005b610159610b35565b6040516101699493929190611fc4565b60405180910390f35b61017a610e4a565b005b610184610eb4565b005b6101a0600480360381019061019b9190611bf6565b610f1d565b6040516101b09493929190611fc4565b60405180910390f35b6101c161108d565b005b6101cb611104565b6040516101d89190612039565b60405180910390f35b6101fb60048036038101906101f69190611b23565b611266565b005b61021760048036038101906102129190611b77565b6114c2565b005b610233600480360381019061022e9190611bf6565b61172c565b60405161024293929190611f86565b60405180910390f35b61026560048036038101906102609190611afa565b61181b565b604051610272919061205b565b60405180910390f35b60606000805480602002602001604051908101604052809291908181526020016000905b8282101561045557838290600052602060002090600402016040518060800160405290816000820160009054906101000a900473ffffffffffffffffffffffffffffffffffffffff1673ffffffffffffffffffffffffffffffffffffffff1673ffffffffffffffffffffffffffffffffffffffff16815260200160018201805461032890612387565b80601f016020809104026020016040519081016040528092919081815260200182805461035490612387565b80156103a15780601f10610376576101008083540402835291602001916103a1565b820191906000526020600020905b81548152906001019060200180831161038457829003601f168201915b505050505081526020016002820180546103ba90612387565b80601f01602080910402602001604051908101604052809291908181526020018280546103e690612387565b80156104335780601f1061040857610100808354040283529160200191610433565b820191906000526020600020905b81548152906001019060200180831161041657829003601f168201915b505050505081526020016003820154815250508152602001906001019061029f565b50505050905090565b6000600260149054906101000a900460ff16905090565b600260009054906101000a900473ffffffffffffffffffffffffffffffffffffffff1673ffffffffffffffffffffffffffffffffffffffff163373ffffffffffffffffffffffffffffffffffffffff16146104cf57600080fd5b6001600260146101000a81548160ff021916908315150217905550565b600260149054906101000a900460ff1661053b576040517f08c379a000000000000000000000000000000000000000000000000000000000815260040161053290612160565b60405180910390fd5b600260009054906101000a900473ffffffffffffffffffffffffffffffffffffffff1673ffffffffffffffffffffffffffffffffffffffff163373ffffffffffffffffffffffffffffffffffffffff16141561059657600080fd5b60008060005b60018054905081101561066357600181815481106105e3577f4e487b7100000000000000000000000000000000000000000000000000000000600052603260045260246000fd5b906000526020600020906003020160000160009054906101000a900473ffffffffffffffffffffffffffffffffffffffff1673ffffffffffffffffffffffffffffffffffffffff163373ffffffffffffffffffffffffffffffffffffffff16141561065057809150600192505b808061065b906123b9565b91505061059c565b506001821461067157600080fd5b600181815481106106ab577f4e487b7100000000000000000000000000000000000000000000000000000000600052603260045260246000fd5b906000526020600020906003020160020160009054906101000a900460ff16156106d457600080fd5b60005b600080549050811015610b2f576000818154811061071e577f4e487b7100000000000000000000000000000000000000000000000000000000600052603260045260246000fd5b906000526020600020906004020160000160009054906101000a900473ffffffffffffffffffffffffffffffffffffffff1673ffffffffffffffffffffffffffffffffffffffff168473ffffffffffffffffffffffffffffffffffffffff161415610b1c576001600082815481106107bf577f4e487b7100000000000000000000000000000000000000000000000000000000600052603260045260246000fd5b9060005260206000209060040201600301546107db9190612295565b60008281548110610815577f4e487b7100000000000000000000000000000000000000000000000000000000600052603260045260246000fd5b9060005260206000209060040201600301819055506001808381548110610865577f4e487b7100000000000000000000000000000000000000000000000000000000600052603260045260246000fd5b906000526020600020906003020160020160006101000a81548160ff0219169083151502179055508373ffffffffffffffffffffffffffffffffffffffff167fc7e9b5441428ea3adeaac63526e39b43f0105390be443ebe7cc976c304840ddd600083815481106108ff577f4e487b7100000000000000000000000000000000000000000000000000000000600052603260045260246000fd5b90600052602060002090600402016001016000848154811061094a577f4e487b7100000000000000000000000000000000000000000000000000000000600052603260045260246000fd5b906000526020600020906004020160020160008581548110610995577f4e487b7100000000000000000000000000000000000000000000000000000000600052603260045260246000fd5b9060005260206000209060040201600301546040516109b69392919061211b565b60405180910390a2600181815481106109f8577f4e487b7100000000000000000000000000000000000000000000000000000000600052603260045260246000fd5b906000526020600020906003020160000160009054906101000a900473ffffffffffffffffffffffffffffffffffffffff1673ffffffffffffffffffffffffffffffffffffffff167fd1341ba54138fc2127191a51c3e4e2dc76e5ca995a4fa8044a609b6e5c4b233160018381548110610a9b577f4e487b7100000000000000000000000000000000000000000000000000000000600052603260045260246000fd5b906000526020600020906003020160010160018481548110610ae6577f4e487b7100000000000000000000000000000000000000000000000000000000600052603260045260246000fd5b906000526020600020906003020160020160009054906101000a900460ff16604051610b139291906120eb565b60405180910390a25b8080610b27906123b9565b9150506106d7565b50505050565b60006060806000600260149054906101000a900460ff1615610b5657600080fd5b60008060005b600080549050811015610bd35760008181548110610ba3577f4e487b7100000000000000000000000000000000000000000000000000000000600052603260045260246000fd5b906000526020600020906004020160030154831015610bc0578091505b8080610bcb906123b9565b915050610b5c565b5060008181548110610c0e577f4e487b7100000000000000000000000000000000000000000000000000000000600052603260045260246000fd5b906000526020600020906004020160000160009054906101000a900473ffffffffffffffffffffffffffffffffffffffff1660008281548110610c7a577f4e487b7100000000000000000000000000000000000000000000000000000000600052603260045260246000fd5b906000526020600020906004020160010160008381548110610cc5577f4e487b7100000000000000000000000000000000000000000000000000000000600052603260045260246000fd5b906000526020600020906004020160020160008481548110610d10577f4e487b7100000000000000000000000000000000000000000000000000000000600052603260045260246000fd5b906000526020600020906004020160030154828054610d2e90612387565b80601f0160208091040260200160405190810160405280929190818152602001828054610d5a90612387565b8015610da75780601f10610d7c57610100808354040283529160200191610da7565b820191906000526020600020905b815481529060010190602001808311610d8a57829003601f168201915b50505050509250818054610dba90612387565b80601f0160208091040260200160405190810160405280929190818152602001828054610de690612387565b8015610e335780601f10610e0857610100808354040283529160200191610e33565b820191906000526020600020905b815481529060010190602001808311610e1657829003601f168201915b505050505091509550955095509550505090919293565b600260009054906101000a900473ffffffffffffffffffffffffffffffffffffffff1673ffffffffffffffffffffffffffffffffffffffff163373ffffffffffffffffffffffffffffffffffffffff1614610ea457600080fd5b60016000610eb29190611875565b565b600260009054906101000a900473ffffffffffffffffffffffffffffffffffffffff1673ffffffffffffffffffffffffffffffffffffffff163373ffffffffffffffffffffffffffffffffffffffff1614610f0e57600080fd5b600080610f1b9190611899565b565b60008181548110610f2d57600080fd5b90600052602060002090600402016000915090508060000160009054906101000a900473ffffffffffffffffffffffffffffffffffffffff1690806001018054610f7690612387565b80601f0160208091040260200160405190810160405280929190818152602001828054610fa290612387565b8015610fef5780601f10610fc457610100808354040283529160200191610fef565b820191906000526020600020905b815481529060010190602001808311610fd257829003601f168201915b50505050509080600201805461100490612387565b80601f016020809104026020016040519081016040528092919081815260200182805461103090612387565b801561107d5780601f106110525761010080835404028352916020019161107d565b820191906000526020600020905b81548152906001019060200180831161106057829003601f168201915b5050505050908060030154905084565b600260009054906101000a900473ffffffffffffffffffffffffffffffffffffffff1673ffffffffffffffffffffffffffffffffffffffff163373ffffffffffffffffffffffffffffffffffffffff16146110e757600080fd5b6000600260146101000a81548160ff021916908315150217905550565b60606001805480602002602001604051908101604052809291908181526020016000905b8282101561125d57838290600052602060002090600302016040518060600160405290816000820160009054906101000a900473ffffffffffffffffffffffffffffffffffffffff1673ffffffffffffffffffffffffffffffffffffffff1673ffffffffffffffffffffffffffffffffffffffff1681526020016001820180546111b190612387565b80601f01602080910402602001604051908101604052809291908181526020018280546111dd90612387565b801561122a5780601f106111ff5761010080835404028352916020019161122a565b820191906000526020600020905b81548152906001019060200180831161120d57829003601f168201915b505050505081526020016002820160009054906101000a900460ff16151515158152505081526020019060010190611128565b50505050905090565b600260009054906101000a900473ffffffffffffffffffffffffffffffffffffffff1673ffffffffffffffffffffffffffffffffffffffff163373ffffffffffffffffffffffffffffffffffffffff16146112c057600080fd5b60005b600180549050811015611387576001818154811061130a577f4e487b7100000000000000000000000000000000000000000000000000000000600052603260045260246000fd5b906000526020600020906003020160000160009054906101000a900473ffffffffffffffffffffffffffffffffffffffff1673ffffffffffffffffffffffffffffffffffffffff168373ffffffffffffffffffffffffffffffffffffffff16141561137457600080fd5b808061137f906123b9565b9150506112c3565b50600160405180606001604052808473ffffffffffffffffffffffffffffffffffffffff16815260200183815260200160001515815250908060018154018082558091505060019003906000526020600020906003020160009091909190915060008201518160000160006101000a81548173ffffffffffffffffffffffffffffffffffffffff021916908373ffffffffffffffffffffffffffffffffffffffff160217905550602082015181600101908051906020019061144a9291906118bd565b5060408201518160020160006101000a81548160ff02191690831515021790555050508173ffffffffffffffffffffffffffffffffffffffff167fd1341ba54138fc2127191a51c3e4e2dc76e5ca995a4fa8044a609b6e5c4b23318260006040516114b6929190612076565b60405180910390a25050565b600260009054906101000a900473ffffffffffffffffffffffffffffffffffffffff1673ffffffffffffffffffffffffffffffffffffffff163373ffffffffffffffffffffffffffffffffffffffff161461151c57600080fd5b60005b6000805490508110156115e35760008181548110611566577f4e487b7100000000000000000000000000000000000000000000000000000000600052603260045260246000fd5b906000526020600020906004020160000160009054906101000a900473ffffffffffffffffffffffffffffffffffffffff1673ffffffffffffffffffffffffffffffffffffffff168473ffffffffffffffffffffffffffffffffffffffff1614156115d057600080fd5b80806115db906123b9565b91505061151f565b50600060405180608001604052808573ffffffffffffffffffffffffffffffffffffffff1681526020018481526020018381526020016000815250908060018154018082558091505060019003906000526020600020906004020160009091909190915060008201518160000160006101000a81548173ffffffffffffffffffffffffffffffffffffffff021916908373ffffffffffffffffffffffffffffffffffffffff16021790555060208201518160010190805190602001906116aa9291906118bd565b5060408201518160020190805190602001906116c79291906118bd565b506060820151816003015550508273ffffffffffffffffffffffffffffffffffffffff167fc7e9b5441428ea3adeaac63526e39b43f0105390be443ebe7cc976c304840ddd8383600060405161171f939291906120a6565b60405180910390a2505050565b6001818154811061173c57600080fd5b90600052602060002090600302016000915090508060000160009054906101000a900473ffffffffffffffffffffffffffffffffffffffff169080600101805461178590612387565b80601f01602080910402602001604051908101604052809291908181526020018280546117b190612387565b80156117fe5780601f106117d3576101008083540402835291602001916117fe565b820191906000526020600020905b8154815290600101906020018083116117e157829003601f168201915b5050505050908060020160009054906101000a900460ff16905083565b6000600260009054906101000a900473ffffffffffffffffffffffffffffffffffffffff1673ffffffffffffffffffffffffffffffffffffffff168273ffffffffffffffffffffffffffffffffffffffff16149050919050565b50805460008255600302906000526020600020908101906118969190611943565b50565b50805460008255600402906000526020600020908101906118ba91906119a5565b50565b8280546118c990612387565b90600052602060002090601f0160209004810192826118eb5760008555611932565b82601f1061190457805160ff1916838001178555611932565b82800160010185558215611932579182015b82811115611931578251825591602001919060010190611916565b5b50905061193f9190611a0b565b5090565b5b808211156119a157600080820160006101000a81549073ffffffffffffffffffffffffffffffffffffffff02191690556001820160006119849190611a28565b6002820160006101000a81549060ff021916905550600301611944565b5090565b5b80821115611a0757600080820160006101000a81549073ffffffffffffffffffffffffffffffffffffffff02191690556001820160006119e69190611a28565b6002820160006119f69190611a28565b6003820160009055506004016119a6565b5090565b5b80821115611a24576000816000905550600101611a0c565b5090565b508054611a3490612387565b6000825580601f10611a465750611a65565b601f016020900490600052602060002090810190611a649190611a0b565b5b50565b6000611a7b611a76846121b1565b612180565b905082815260208101848484011115611a9357600080fd5b611a9e848285612345565b509392505050565b600081359050611ab5816124a0565b92915050565b600082601f830112611acc57600080fd5b8135611adc848260208601611a68565b91505092915050565b600081359050611af4816124b7565b92915050565b600060208284031215611b0c57600080fd5b6000611b1a84828501611aa6565b91505092915050565b60008060408385031215611b3657600080fd5b6000611b4485828601611aa6565b925050602083013567ffffffffffffffff811115611b6157600080fd5b611b6d85828601611abb565b9150509250929050565b600080600060608486031215611b8c57600080fd5b6000611b9a86828701611aa6565b935050602084013567ffffffffffffffff811115611bb757600080fd5b611bc386828701611abb565b925050604084013567ffffffffffffffff811115611be057600080fd5b611bec86828701611abb565b9150509250925092565b600060208284031215611c0857600080fd5b6000611c1684828501611ae5565b91505092915050565b6000611c2b8383611eae565b905092915050565b6000611c3f8383611f18565b905092915050565b611c50816122eb565b82525050565b611c5f816122eb565b82525050565b6000611c7082612216565b611c7a8185612251565b935083602082028501611c8c856121e1565b8060005b85811015611cc85784840389528151611ca98582611c1f565b9450611cb483612237565b925060208a01995050600181019050611c90565b50829750879550505050505092915050565b6000611ce582612221565b611cef8185612262565b935083602082028501611d01856121f1565b8060005b85811015611d3d5784840389528151611d1e8582611c33565b9450611d2983612244565b925060208a01995050600181019050611d05565b50829750879550505050505092915050565b611d58816122fd565b82525050565b611d67816122fd565b82525050565b611d7681612333565b82525050565b6000611d878261222c565b611d918185612273565b9350611da1818560208601612354565b611daa8161248f565b840191505092915050565b6000611dc08261222c565b611dca8185612284565b9350611dda818560208601612354565b611de38161248f565b840191505092915050565b60008154611dfb81612387565b611e058186612284565b94506001821660008114611e205760018114611e3257611e65565b60ff1983168652602086019350611e65565b611e3b85612201565b60005b83811015611e5d57815481890152600182019150602081019050611e3e565b808801955050505b50505092915050565b6000611e7b601683612284565b91507f566f74696e67206e6f7420616c6c6f77656420796574000000000000000000006000830152602082019050919050565b6000608083016000830151611ec66000860182611c47565b5060208301518482036020860152611ede8282611d7c565b91505060408301518482036040860152611ef88282611d7c565b9150506060830151611f0d6060860182611f68565b508091505092915050565b6000606083016000830151611f306000860182611c47565b5060208301518482036020860152611f488282611d7c565b9150506040830151611f5d6040860182611d4f565b508091505092915050565b611f7181612329565b82525050565b611f8081612329565b82525050565b6000606082019050611f9b6000830186611c56565b8181036020830152611fad8185611db5565b9050611fbc6040830184611d5e565b949350505050565b6000608082019050611fd96000830187611c56565b8181036020830152611feb8186611db5565b90508181036040830152611fff8185611db5565b905061200e6060830184611f77565b95945050505050565b600060208201905081810360008301526120318184611c65565b905092915050565b600060208201905081810360008301526120538184611cda565b905092915050565b60006020820190506120706000830184611d5e565b92915050565b600060408201905081810360008301526120908185611db5565b905061209f6020830184611d5e565b9392505050565b600060608201905081810360008301526120c08186611db5565b905081810360208301526120d48185611db5565b90506120e36040830184611d6d565b949350505050565b600060408201905081810360008301526121058185611dee565b90506121146020830184611d5e565b9392505050565b600060608201905081810360008301526121358186611dee565b905081810360208301526121498185611dee565b90506121586040830184611f77565b949350505050565b6000602082019050818103600083015261217981611e6e565b9050919050565b6000604051905081810181811067ffffffffffffffff821117156121a7576121a6612460565b5b8060405250919050565b600067ffffffffffffffff8211156121cc576121cb612460565b5b601f19601f8301169050602081019050919050565b6000819050602082019050919050565b6000819050602082019050919050565b60008190508160005260206000209050919050565b600081519050919050565b600081519050919050565b600081519050919050565b6000602082019050919050565b6000602082019050919050565b600082825260208201905092915050565b600082825260208201905092915050565b600082825260208201905092915050565b600082825260208201905092915050565b60006122a082612329565b91506122ab83612329565b9250827fffffffffffffffffffffffffffffffffffffffffffffffffffffffffffffffff038211156122e0576122df612402565b5b828201905092915050565b60006122f682612309565b9050919050565b60008115159050919050565b600073ffffffffffffffffffffffffffffffffffffffff82169050919050565b6000819050919050565b600061233e82612329565b9050919050565b82818337600083830152505050565b60005b83811015612372578082015181840152602081019050612357565b83811115612381576000848401525b50505050565b6000600282049050600182168061239f57607f821691505b602082108114156123b3576123b2612431565b5b50919050565b60006123c482612329565b91507fffffffffffffffffffffffffffffffffffffffffffffffffffffffffffffffff8214156123f7576123f6612402565b5b600182019050919050565b7f4e487b7100000000000000000000000000000000000000000000000000000000600052601160045260246000fd5b7f4e487b7100000000000000000000000000000000000000000000000000000000600052602260045260246000fd5b7f4e487b7100000000000000000000000000000000000000000000000000000000600052604160045260246000fd5b6000601f19601f8301169050919050565b6124a9816122eb565b81146124b457600080fd5b50565b6124c081612329565b81146124cb57600080fd5b5056fea26469706673582212200cea2e48ea975fc320bb56a0dde395315ea9b53cc84b87789fe40cd304f5335664736f6c63430008000033",
  "linkReferences": {},
  "deployedLinkReferences": {}
}