{
  "_format": "hh-sol-artifact-1",
  "contractName": "VotingSystem",
  "sourceName": "contracts/VotingSystem.sol",
  "abi": [
    {
      "inputs": [],
      "stateMutability": "nonpayable",
      "type": "constructor"
    },
    {
      "anonymous": false,
      "inputs": [
        {
          "indexed": true,
          "internalType": "address",
          "name": "owner",
          "type": "address"
        },
        {
          "indexed": true,
          "internalType": "address",
          "name": "approved",
          "type": "address"
        },
        {
          "indexed": true,
          "internalType": "uint256",
          "name": "tokenId",
          "type": "uint256"
        }
      ],
      "name": "Approval",
      "type": "event"
    },
    {
      "anonymous": false,
      "inputs": [
        {
          "indexed": true,
          "internalType": "address",
          "name": "owner",
          "type": "address"
        },
        {
          "indexed": true,
          "internalType": "address",
          "name": "operator",
          "type": "address"
        },
        {
          "indexed": false,
          "internalType": "bool",
          "name": "approved",
          "type": "bool"
        }
      ],
      "name": "ApprovalForAll",
      "type": "event"
    },
    {
      "anonymous": false,
      "inputs": [
        {
          "indexed": true,
          "internalType": "address",
          "name": "candAdd",
          "type": "address"
        },
        {
          "indexed": false,
          "internalType": "string",
          "name": "name",
          "type": "string"
        },
        {
          "indexed": false,
          "internalType": "string",
          "name": "proposal",
          "type": "string"
        },
        {
          "indexed": false,
          "internalType": "uint256",
          "name": "votes",
          "type": "uint256"
        }
      ],
      "name": "NewCandidate",
      "type": "event"
    },
    {
      "anonymous": false,
      "inputs": [
        {
          "indexed": true,
          "internalType": "address",
          "name": "voterAdd",
          "type": "address"
        },
        {
          "indexed": false,
          "internalType": "string",
          "name": "name",
          "type": "string"
        },
        {
          "indexed": false,
          "internalType": "bool",
          "name": "voted",
          "type": "bool"
        }
      ],
      "name": "NewVoter",
      "type": "event"
    },
    {
      "anonymous": false,
      "inputs": [
        {
          "indexed": true,
          "internalType": "address",
          "name": "from",
          "type": "address"
        },
        {
          "indexed": true,
          "internalType": "address",
          "name": "to",
          "type": "address"
        },
        {
          "indexed": true,
          "internalType": "uint256",
          "name": "tokenId",
          "type": "uint256"
        }
      ],
      "name": "Transfer",
      "type": "event"
    },
    {
      "inputs": [
        {
          "internalType": "address",
          "name": "_candAddress",
          "type": "address"
        },
        {
          "internalType": "string",
          "name": "_candName",
          "type": "string"
        },
        {
          "internalType": "string",
          "name": "_candProposal",
          "type": "string"
        }
      ],
      "name": "addCandidate",
      "outputs": [],
      "stateMutability": "nonpayable",
      "type": "function"
    },
    {
      "inputs": [
        {
          "internalType": "address",
          "name": "_voterAddress",
          "type": "address"
        },
        {
          "internalType": "string",
          "name": "_voterName",
          "type": "string"
        }
      ],
      "name": "addVoter",
      "outputs": [],
      "stateMutability": "nonpayable",
      "type": "function"
    },
    {
      "inputs": [
        {
          "internalType": "address",
          "name": "to",
          "type": "address"
        },
        {
          "internalType": "uint256",
          "name": "tokenId",
          "type": "uint256"
        }
      ],
      "name": "approve",
      "outputs": [],
      "stateMutability": "nonpayable",
      "type": "function"
    },
    {
      "inputs": [
        {
          "internalType": "address",
          "name": "owner",
          "type": "address"
        }
      ],
      "name": "balanceOf",
      "outputs": [
        {
          "internalType": "uint256",
          "name": "",
          "type": "uint256"
        }
      ],
      "stateMutability": "view",
      "type": "function"
    },
    {
      "inputs": [
        {
          "internalType": "uint256",
          "name": "",
          "type": "uint256"
        }
      ],
      "name": "candArr",
      "outputs": [
        {
          "internalType": "address",
          "name": "candAddress",
          "type": "address"
        },
        {
          "internalType": "string",
          "name": "name",
          "type": "string"
        },
        {
          "internalType": "string",
          "name": "proposal",
          "type": "string"
        },
        {
          "internalType": "uint256",
          "name": "votes",
          "type": "uint256"
        }
      ],
      "stateMutability": "view",
      "type": "function"
    },
    {
      "inputs": [],
      "name": "candWinner",
      "outputs": [
        {
          "internalType": "address",
          "name": "_candAddress",
          "type": "address"
        },
        {
          "internalType": "string",
          "name": "_name",
          "type": "string"
        },
        {
          "internalType": "string",
          "name": "_proposal",
          "type": "string"
        },
        {
          "internalType": "uint256",
          "name": "_votes",
          "type": "uint256"
        }
      ],
      "stateMutability": "view",
      "type": "function"
    },
    {
      "inputs": [],
      "name": "endVoting",
      "outputs": [],
      "stateMutability": "nonpayable",
      "type": "function"
    },
    {
      "inputs": [
        {
          "internalType": "uint256",
          "name": "tokenId",
          "type": "uint256"
        }
      ],
      "name": "getApproved",
      "outputs": [
        {
          "internalType": "address",
          "name": "",
          "type": "address"
        }
      ],
      "stateMutability": "view",
      "type": "function"
    },
    {
      "inputs": [],
      "name": "getCandidates",
      "outputs": [
        {
          "components": [
            {
              "internalType": "address",
              "name": "candAddress",
              "type": "address"
            },
            {
              "internalType": "string",
              "name": "name",
              "type": "string"
            },
            {
              "internalType": "string",
              "name": "proposal",
              "type": "string"
            },
            {
              "internalType": "uint256",
              "name": "votes",
              "type": "uint256"
            }
          ],
          "internalType": "struct VotingSystem.candidate[]",
          "name": "",
          "type": "tuple[]"
        }
      ],
      "stateMutability": "view",
      "type": "function"
    },
    {
      "inputs": [],
      "name": "getVoters",
      "outputs": [
        {
          "components": [
            {
              "internalType": "address",
              "name": "voterAddress",
              "type": "address"
            },
            {
              "internalType": "string",
              "name": "name",
              "type": "string"
            },
            {
              "internalType": "bool",
              "name": "voted",
              "type": "bool"
            }
          ],
          "internalType": "struct VotingSystem.voter[]",
          "name": "",
          "type": "tuple[]"
        }
      ],
      "stateMutability": "view",
      "type": "function"
    },
    {
      "inputs": [
        {
          "internalType": "address",
          "name": "owner",
          "type": "address"
        },
        {
          "internalType": "address",
          "name": "operator",
          "type": "address"
        }
      ],
      "name": "isApprovedForAll",
      "outputs": [
        {
          "internalType": "bool",
          "name": "",
          "type": "bool"
        }
      ],
      "stateMutability": "view",
      "type": "function"
    },
    {
      "inputs": [
        {
          "internalType": "address",
          "name": "_ad",
          "type": "address"
        }
      ],
      "name": "isManager",
      "outputs": [
        {
          "internalType": "bool",
          "name": "",
          "type": "bool"
        }
      ],
      "stateMutability": "view",
      "type": "function"
    },
    {
      "inputs": [
        {
          "internalType": "string",
          "name": "tokenUri",
          "type": "string"
        },
        {
          "internalType": "address",
          "name": "_recieverAdd",
          "type": "address"
        }
      ],
      "name": "makeAnEpicNFT",
      "outputs": [
        {
          "internalType": "uint256",
          "name": "id",
          "type": "uint256"
        }
      ],
      "stateMutability": "nonpayable",
      "type": "function"
    },
    {
      "inputs": [],
      "name": "name",
      "outputs": [
        {
          "internalType": "string",
          "name": "",
          "type": "string"
        }
      ],
      "stateMutability": "view",
      "type": "function"
    },
    {
      "inputs": [
        {
          "internalType": "uint256",
          "name": "tokenId",
          "type": "uint256"
        }
      ],
      "name": "ownerOf",
      "outputs": [
        {
          "internalType": "address",
          "name": "",
          "type": "address"
        }
      ],
      "stateMutability": "view",
      "type": "function"
    },
    {
      "inputs": [],
      "name": "resetCandidates",
      "outputs": [],
      "stateMutability": "nonpayable",
      "type": "function"
    },
    {
      "inputs": [],
      "name": "resetVoters",
      "outputs": [],
      "stateMutability": "nonpayable",
      "type": "function"
    },
    {
      "inputs": [
        {
          "internalType": "address",
          "name": "from",
          "type": "address"
        },
        {
          "internalType": "address",
          "name": "to",
          "type": "address"
        },
        {
          "internalType": "uint256",
          "name": "tokenId",
          "type": "uint256"
        }
      ],
      "name": "safeTransferFrom",
      "outputs": [],
      "stateMutability": "nonpayable",
      "type": "function"
    },
    {
      "inputs": [
        {
          "internalType": "address",
          "name": "from",
          "type": "address"
        },
        {
          "internalType": "address",
          "name": "to",
          "type": "address"
        },
        {
          "internalType": "uint256",
          "name": "tokenId",
          "type": "uint256"
        },
        {
          "internalType": "bytes",
          "name": "_data",
          "type": "bytes"
        }
      ],
      "name": "safeTransferFrom",
      "outputs": [],
      "stateMutability": "nonpayable",
      "type": "function"
    },
    {
      "inputs": [
        {
          "internalType": "address",
          "name": "operator",
          "type": "address"
        },
        {
          "internalType": "bool",
          "name": "approved",
          "type": "bool"
        }
      ],
      "name": "setApprovalForAll",
      "outputs": [],
      "stateMutability": "nonpayable",
      "type": "function"
    },
    {
      "inputs": [],
      "name": "startVoting",
      "outputs": [],
      "stateMutability": "nonpayable",
      "type": "function"
    },
    {
      "inputs": [
        {
          "internalType": "bytes4",
          "name": "interfaceId",
          "type": "bytes4"
        }
      ],
      "name": "supportsInterface",
      "outputs": [
        {
          "internalType": "bool",
          "name": "",
          "type": "bool"
        }
      ],
      "stateMutability": "view",
      "type": "function"
    },
    {
      "inputs": [],
      "name": "symbol",
      "outputs": [
        {
          "internalType": "string",
          "name": "",
          "type": "string"
        }
      ],
      "stateMutability": "view",
      "type": "function"
    },
    {
      "inputs": [
        {
          "internalType": "uint256",
          "name": "tokenId",
          "type": "uint256"
        }
      ],
      "name": "tokenURI",
      "outputs": [
        {
          "internalType": "string",
          "name": "",
          "type": "string"
        }
      ],
      "stateMutability": "view",
      "type": "function"
    },
    {
      "inputs": [
        {
          "internalType": "address",
          "name": "from",
          "type": "address"
        },
        {
          "internalType": "address",
          "name": "to",
          "type": "address"
        },
        {
          "internalType": "uint256",
          "name": "tokenId",
          "type": "uint256"
        }
      ],
      "name": "transferFrom",
      "outputs": [],
      "stateMutability": "nonpayable",
      "type": "function"
    },
    {
      "inputs": [
        {
          "internalType": "address",
          "name": "_candAddress",
          "type": "address"
        }
      ],
      "name": "voteCandidate",
      "outputs": [],
      "stateMutability": "nonpayable",
      "type": "function"
    },
    {
      "inputs": [
        {
          "internalType": "uint256",
          "name": "",
          "type": "uint256"
        }
      ],
      "name": "voterArr",
      "outputs": [
        {
          "internalType": "address",
          "name": "voterAddress",
          "type": "address"
        },
        {
          "internalType": "string",
          "name": "name",
          "type": "string"
        },
        {
          "internalType": "bool",
          "name": "voted",
          "type": "bool"
        }
      ],
      "stateMutability": "view",
      "type": "function"
    },
    {
      "inputs": [],
      "name": "votingStatus",
      "outputs": [
        {
          "internalType": "bool",
          "name": "voteAllow",
          "type": "bool"
        }
      ],
      "stateMutability": "view",
      "type": "function"
    }
  ],
  "bytecode": "0x60806040523480156200001157600080fd5b506040518060400160405280600981526020017f57696e6e65724e465400000000000000000000000000000000000000000000008152506040518060400160405280600481526020017f574e465400000000000000000000000000000000000000000000000000000000815250816000908051906020019062000096929190620000f9565b508060019080519060200190620000af929190620000f9565b50505033600960006101000a81548173ffffffffffffffffffffffffffffffffffffffff021916908373ffffffffffffffffffffffffffffffffffffffff1602179055506200020e565b8280546200010790620001a9565b90600052602060002090601f0160209004810192826200012b576000855562000177565b82601f106200014657805160ff191683800117855562000177565b8280016001018555821562000177579182015b828111156200017657825182559160200191906001019062000159565b5b5090506200018691906200018a565b5090565b5b80821115620001a55760008160009055506001016200018b565b5090565b60006002820490506001821680620001c257607f821691505b60208210811415620001d957620001d8620001df565b5b50919050565b7f4e487b7100000000000000000000000000000000000000000000000000000000600052602260045260246000fd5b614895806200021e6000396000f3fe608060405234801561001057600080fd5b50600436106101c45760003560e01c80637718d9f3116100f9578063c87b56dd11610097578063e22a623111610071578063e22a6231146104bf578063e985e9c5146104db578063f2a3991c1461050b578063f3ae24151461053d576101c4565b8063c87b56dd14610455578063cdd7225314610485578063d9e95a98146104a3576101c4565b8063a001faf3116100d3578063a001faf3146103e3578063a22cb46514610413578063b88d4fde1461042f578063c3403ddf1461044b576101c4565b80637718d9f3146103885780637cabb2741461039257806395d89b41146103c5576101c4565b806323b872dd1161016657806342842e0e1161014057806342842e0e14610302578063553bd3971461031e5780636352211e1461032857806370a0823114610358576101c4565b806323b872dd146102a957806326bb886d146102c55780632f08a7b3146102e1576101c4565b8063081812fc116101a2578063081812fc14610235578063095ea7b31461026557806319f41a40146102815780631ec6b60a1461029f576101c4565b806301ffc9a7146101c957806306a49fce146101f957806306fdde0314610217575b600080fd5b6101e360048036038101906101de9190613462565b61056d565b6040516101f09190613bf5565b60405180910390f35b61020161064f565b60405161020e9190613bb1565b60405180910390f35b61021f610832565b60405161022c9190613c10565b60405180910390f35b61024f600480360381019061024a9190613508565b6108c4565b60405161025c9190613ab9565b60405180910390f35b61027f600480360381019061027a9190613426565b610949565b005b610289610a61565b6040516102969190613bf5565b60405180910390f35b6102a7610a78565b005b6102c360048036038101906102be919061324d565b610aef565b005b6102df60048036038101906102da91906131e8565b610b4f565b005b6102e9610f0b565b6040516102f99493929190613b5e565b60405180910390f35b61031c6004803603810190610317919061324d565b611220565b005b610326611240565b005b610342600480360381019061033d9190613508565b6112aa565b60405161034f9190613ab9565b60405180910390f35b610372600480360381019061036d91906131e8565b61135c565b60405161037f9190613ec7565b60405180910390f35b610390611414565b005b6103ac60048036038101906103a79190613508565b61147e565b6040516103bc9493929190613b5e565b60405180910390f35b6103cd6115ee565b6040516103da9190613c10565b60405180910390f35b6103fd60048036038101906103f891906134b4565b611680565b60405161040a9190613ec7565b60405180910390f35b61042d60048036038101906104289190613317565b6116b7565b005b6104496004803603810190610444919061329c565b6116cd565b005b61045361172f565b005b61046f600480360381019061046a9190613508565b6117a6565b60405161047c9190613c10565b60405180910390f35b61048d6118f8565b60405161049a9190613bd3565b60405180910390f35b6104bd60048036038101906104b89190613353565b611a5a565b005b6104d960048036038101906104d491906133a7565b611cb6565b005b6104f560048036038101906104f09190613211565b611f20565b6040516105029190613bf5565b60405180910390f35b61052560048036038101906105209190613508565b611fb4565b60405161053493929190613b20565b60405180910390f35b610557600480360381019061055291906131e8565b6120a3565b6040516105649190613bf5565b60405180910390f35b60007f80ac58cd000000000000000000000000000000000000000000000000000000007bffffffffffffffffffffffffffffffffffffffffffffffffffffffff1916827bffffffffffffffffffffffffffffffffffffffffffffffffffffffff1916148061063857507f5b5e139f000000000000000000000000000000000000000000000000000000007bffffffffffffffffffffffffffffffffffffffffffffffffffffffff1916827bffffffffffffffffffffffffffffffffffffffffffffffffffffffff1916145b806106485750610647826120fd565b5b9050919050565b60606007805480602002602001604051908101604052809291908181526020016000905b8282101561082957838290600052602060002090600402016040518060800160405290816000820160009054906101000a900473ffffffffffffffffffffffffffffffffffffffff1673ffffffffffffffffffffffffffffffffffffffff1673ffffffffffffffffffffffffffffffffffffffff1681526020016001820180546106fc906141b2565b80601f0160208091040260200160405190810160405280929190818152602001828054610728906141b2565b80156107755780601f1061074a57610100808354040283529160200191610775565b820191906000526020600020905b81548152906001019060200180831161075857829003601f168201915b5050505050815260200160028201805461078e906141b2565b80601f01602080910402602001604051908101604052809291908181526020018280546107ba906141b2565b80156108075780601f106107dc57610100808354040283529160200191610807565b820191906000526020600020905b8154815290600101906020018083116107ea57829003601f168201915b5050505050815260200160038201548152505081526020019060010190610673565b50505050905090565b606060008054610841906141b2565b80601f016020809104026020016040519081016040528092919081815260200182805461086d906141b2565b80156108ba5780601f1061088f576101008083540402835291602001916108ba565b820191906000526020600020905b81548152906001019060200180831161089d57829003601f168201915b5050505050905090565b60006108cf82612167565b61090e576040517f08c379a000000000000000000000000000000000000000000000000000000000815260040161090590613e47565b60405180910390fd5b6004600083815260200190815260200160002060009054906101000a900473ffffffffffffffffffffffffffffffffffffffff169050919050565b6000610954826112aa565b90508073ffffffffffffffffffffffffffffffffffffffff168373ffffffffffffffffffffffffffffffffffffffff1614156109c5576040517f08c379a00000000000000000000000000000000000000000000000000000000081526004016109bc90613e87565b60405180910390fd5b8073ffffffffffffffffffffffffffffffffffffffff166109e46121d3565b73ffffffffffffffffffffffffffffffffffffffff161480610a135750610a1281610a0d6121d3565b611f20565b5b610a52576040517f08c379a0000000000000000000000000000000000000000000000000000000008152600401610a4990613d87565b60405180910390fd5b610a5c83836121db565b505050565b6000600960149054906101000a900460ff16905090565b600960009054906101000a900473ffffffffffffffffffffffffffffffffffffffff1673ffffffffffffffffffffffffffffffffffffffff163373ffffffffffffffffffffffffffffffffffffffff1614610ad257600080fd5b6001600960146101000a81548160ff021916908315150217905550565b610b00610afa6121d3565b82612294565b610b3f576040517f08c379a0000000000000000000000000000000000000000000000000000000008152600401610b3690613ea7565b60405180910390fd5b610b4a838383612372565b505050565b600960149054906101000a900460ff16610b9e576040517f08c379a0000000000000000000000000000000000000000000000000000000008152600401610b9590613cc7565b60405180910390fd5b600960009054906101000a900473ffffffffffffffffffffffffffffffffffffffff1673ffffffffffffffffffffffffffffffffffffffff163373ffffffffffffffffffffffffffffffffffffffff161415610bf957600080fd5b60008060005b600880549050811015610cc65760088181548110610c46577f4e487b7100000000000000000000000000000000000000000000000000000000600052603260045260246000fd5b906000526020600020906003020160000160009054906101000a900473ffffffffffffffffffffffffffffffffffffffff1673ffffffffffffffffffffffffffffffffffffffff163373ffffffffffffffffffffffffffffffffffffffff161415610cb357809150600192505b8080610cbe90614215565b915050610bff565b5060018214610cd457600080fd5b60088181548110610d0e577f4e487b7100000000000000000000000000000000000000000000000000000000600052603260045260246000fd5b906000526020600020906003020160020160009054906101000a900460ff1615610d3757600080fd5b60005b600780549050811015610f055760078181548110610d81577f4e487b7100000000000000000000000000000000000000000000000000000000600052603260045260246000fd5b906000526020600020906004020160000160009054906101000a900473ffffffffffffffffffffffffffffffffffffffff1673ffffffffffffffffffffffffffffffffffffffff168473ffffffffffffffffffffffffffffffffffffffff161415610ef257600160078281548110610e22577f4e487b7100000000000000000000000000000000000000000000000000000000600052603260045260246000fd5b906000526020600020906004020160030154610e3e919061402f565b60078281548110610e78577f4e487b7100000000000000000000000000000000000000000000000000000000600052603260045260246000fd5b906000526020600020906004020160030181905550600160088381548110610ec9577f4e487b7100000000000000000000000000000000000000000000000000000000600052603260045260246000fd5b906000526020600020906003020160020160006101000a81548160ff0219169083151502179055505b8080610efd90614215565b915050610d3a565b50505050565b60006060806000600960149054906101000a900460ff1615610f2c57600080fd5b60008060005b600780549050811015610fa95760078181548110610f79577f4e487b7100000000000000000000000000000000000000000000000000000000600052603260045260246000fd5b906000526020600020906004020160030154831015610f96578091505b8080610fa190614215565b915050610f32565b5060078181548110610fe4577f4e487b7100000000000000000000000000000000000000000000000000000000600052603260045260246000fd5b906000526020600020906004020160000160009054906101000a900473ffffffffffffffffffffffffffffffffffffffff1660078281548110611050577f4e487b7100000000000000000000000000000000000000000000000000000000600052603260045260246000fd5b90600052602060002090600402016001016007838154811061109b577f4e487b7100000000000000000000000000000000000000000000000000000000600052603260045260246000fd5b9060005260206000209060040201600201600784815481106110e6577f4e487b7100000000000000000000000000000000000000000000000000000000600052603260045260246000fd5b906000526020600020906004020160030154828054611104906141b2565b80601f0160208091040260200160405190810160405280929190818152602001828054611130906141b2565b801561117d5780601f106111525761010080835404028352916020019161117d565b820191906000526020600020905b81548152906001019060200180831161116057829003601f168201915b50505050509250818054611190906141b2565b80601f01602080910402602001604051908101604052809291908181526020018280546111bc906141b2565b80156112095780601f106111de57610100808354040283529160200191611209565b820191906000526020600020905b8154815290600101906020018083116111ec57829003601f168201915b505050505091509550955095509550505090919293565b61123b838383604051806020016040528060008152506116cd565b505050565b600960009054906101000a900473ffffffffffffffffffffffffffffffffffffffff1673ffffffffffffffffffffffffffffffffffffffff163373ffffffffffffffffffffffffffffffffffffffff161461129a57600080fd5b600860006112a89190612ebc565b565b6000806002600084815260200190815260200160002060009054906101000a900473ffffffffffffffffffffffffffffffffffffffff169050600073ffffffffffffffffffffffffffffffffffffffff168173ffffffffffffffffffffffffffffffffffffffff161415611353576040517f08c379a000000000000000000000000000000000000000000000000000000000815260040161134a90613dc7565b60405180910390fd5b80915050919050565b60008073ffffffffffffffffffffffffffffffffffffffff168273ffffffffffffffffffffffffffffffffffffffff1614156113cd576040517f08c379a00000000000000000000000000000000000000000000000000000000081526004016113c490613da7565b60405180910390fd5b600360008373ffffffffffffffffffffffffffffffffffffffff1673ffffffffffffffffffffffffffffffffffffffff168152602001908152602001600020549050919050565b600960009054906101000a900473ffffffffffffffffffffffffffffffffffffffff1673ffffffffffffffffffffffffffffffffffffffff163373ffffffffffffffffffffffffffffffffffffffff161461146e57600080fd5b6007600061147c9190612ee0565b565b6007818154811061148e57600080fd5b90600052602060002090600402016000915090508060000160009054906101000a900473ffffffffffffffffffffffffffffffffffffffff16908060010180546114d7906141b2565b80601f0160208091040260200160405190810160405280929190818152602001828054611503906141b2565b80156115505780601f1061152557610100808354040283529160200191611550565b820191906000526020600020905b81548152906001019060200180831161153357829003601f168201915b505050505090806002018054611565906141b2565b80601f0160208091040260200160405190810160405280929190818152602001828054611591906141b2565b80156115de5780601f106115b3576101008083540402835291602001916115de565b820191906000526020600020905b8154815290600101906020018083116115c157829003601f168201915b5050505050908060030154905084565b6060600180546115fd906141b2565b80601f0160208091040260200160405190810160405280929190818152602001828054611629906141b2565b80156116765780601f1061164b57610100808354040283529160200191611676565b820191906000526020600020905b81548152906001019060200180831161165957829003601f168201915b5050505050905090565b60008061168d600a6125d9565b905061169983826125e7565b6116a38185612605565b6116ad600a612679565b8091505092915050565b6116c96116c26121d3565b838361268f565b5050565b6116de6116d86121d3565b83612294565b61171d576040517f08c379a000000000000000000000000000000000000000000000000000000000815260040161171490613ea7565b60405180910390fd5b611729848484846127fc565b50505050565b600960009054906101000a900473ffffffffffffffffffffffffffffffffffffffff1673ffffffffffffffffffffffffffffffffffffffff163373ffffffffffffffffffffffffffffffffffffffff161461178957600080fd5b6000600960146101000a81548160ff021916908315150217905550565b60606117b182612167565b6117f0576040517f08c379a00000000000000000000000000000000000000000000000000000000081526004016117e790613e27565b60405180910390fd5b6000600660008481526020019081526020016000208054611810906141b2565b80601f016020809104026020016040519081016040528092919081815260200182805461183c906141b2565b80156118895780601f1061185e57610100808354040283529160200191611889565b820191906000526020600020905b81548152906001019060200180831161186c57829003601f168201915b50505050509050600061189a612858565b90506000815114156118b05781925050506118f3565b6000825111156118e55780826040516020016118cd929190613a95565b604051602081830303815290604052925050506118f3565b6118ee8461286f565b925050505b919050565b60606008805480602002602001604051908101604052809291908181526020016000905b82821015611a5157838290600052602060002090600302016040518060600160405290816000820160009054906101000a900473ffffffffffffffffffffffffffffffffffffffff1673ffffffffffffffffffffffffffffffffffffffff1673ffffffffffffffffffffffffffffffffffffffff1681526020016001820180546119a5906141b2565b80601f01602080910402602001604051908101604052809291908181526020018280546119d1906141b2565b8015611a1e5780601f106119f357610100808354040283529160200191611a1e565b820191906000526020600020905b815481529060010190602001808311611a0157829003601f168201915b505050505081526020016002820160009054906101000a900460ff1615151515815250508152602001906001019061191c565b50505050905090565b600960009054906101000a900473ffffffffffffffffffffffffffffffffffffffff1673ffffffffffffffffffffffffffffffffffffffff163373ffffffffffffffffffffffffffffffffffffffff1614611ab457600080fd5b60005b600880549050811015611b7b5760088181548110611afe577f4e487b7100000000000000000000000000000000000000000000000000000000600052603260045260246000fd5b906000526020600020906003020160000160009054906101000a900473ffffffffffffffffffffffffffffffffffffffff1673ffffffffffffffffffffffffffffffffffffffff168373ffffffffffffffffffffffffffffffffffffffff161415611b6857600080fd5b8080611b7390614215565b915050611ab7565b50600860405180606001604052808473ffffffffffffffffffffffffffffffffffffffff16815260200183815260200160001515815250908060018154018082558091505060019003906000526020600020906003020160009091909190915060008201518160000160006101000a81548173ffffffffffffffffffffffffffffffffffffffff021916908373ffffffffffffffffffffffffffffffffffffffff1602179055506020820151816001019080519060200190611c3e929190612f04565b5060408201518160020160006101000a81548160ff02191690831515021790555050508173ffffffffffffffffffffffffffffffffffffffff167fd1341ba54138fc2127191a51c3e4e2dc76e5ca995a4fa8044a609b6e5c4b2331826000604051611caa929190613c32565b60405180910390a25050565b600960009054906101000a900473ffffffffffffffffffffffffffffffffffffffff1673ffffffffffffffffffffffffffffffffffffffff163373ffffffffffffffffffffffffffffffffffffffff1614611d1057600080fd5b60005b600780549050811015611dd75760078181548110611d5a577f4e487b7100000000000000000000000000000000000000000000000000000000600052603260045260246000fd5b906000526020600020906004020160000160009054906101000a900473ffffffffffffffffffffffffffffffffffffffff1673ffffffffffffffffffffffffffffffffffffffff168473ffffffffffffffffffffffffffffffffffffffff161415611dc457600080fd5b8080611dcf90614215565b915050611d13565b50600760405180608001604052808573ffffffffffffffffffffffffffffffffffffffff1681526020018481526020018381526020016000815250908060018154018082558091505060019003906000526020600020906004020160009091909190915060008201518160000160006101000a81548173ffffffffffffffffffffffffffffffffffffffff021916908373ffffffffffffffffffffffffffffffffffffffff1602179055506020820151816001019080519060200190611e9e929190612f04565b506040820151816002019080519060200190611ebb929190612f04565b506060820151816003015550508273ffffffffffffffffffffffffffffffffffffffff167fc7e9b5441428ea3adeaac63526e39b43f0105390be443ebe7cc976c304840ddd83836000604051611f1393929190613c62565b60405180910390a2505050565b6000600560008473ffffffffffffffffffffffffffffffffffffffff1673ffffffffffffffffffffffffffffffffffffffff16815260200190815260200160002060008373ffffffffffffffffffffffffffffffffffffffff1673ffffffffffffffffffffffffffffffffffffffff16815260200190815260200160002060009054906101000a900460ff16905092915050565b60088181548110611fc457600080fd5b90600052602060002090600302016000915090508060000160009054906101000a900473ffffffffffffffffffffffffffffffffffffffff169080600101805461200d906141b2565b80601f0160208091040260200160405190810160405280929190818152602001828054612039906141b2565b80156120865780601f1061205b57610100808354040283529160200191612086565b820191906000526020600020905b81548152906001019060200180831161206957829003601f168201915b5050505050908060020160009054906101000a900460ff16905083565b6000600960009054906101000a900473ffffffffffffffffffffffffffffffffffffffff1673ffffffffffffffffffffffffffffffffffffffff168273ffffffffffffffffffffffffffffffffffffffff16149050919050565b60007f01ffc9a7000000000000000000000000000000000000000000000000000000007bffffffffffffffffffffffffffffffffffffffffffffffffffffffff1916827bffffffffffffffffffffffffffffffffffffffffffffffffffffffff1916149050919050565b60008073ffffffffffffffffffffffffffffffffffffffff166002600084815260200190815260200160002060009054906101000a900473ffffffffffffffffffffffffffffffffffffffff1673ffffffffffffffffffffffffffffffffffffffff1614159050919050565b600033905090565b816004600083815260200190815260200160002060006101000a81548173ffffffffffffffffffffffffffffffffffffffff021916908373ffffffffffffffffffffffffffffffffffffffff160217905550808273ffffffffffffffffffffffffffffffffffffffff1661224e836112aa565b73ffffffffffffffffffffffffffffffffffffffff167f8c5be1e5ebec7d5bd14f71427d1e84f3dd0314c0f7b2291e5b200ac8c7c3b92560405160405180910390a45050565b600061229f82612167565b6122de576040517f08c379a00000000000000000000000000000000000000000000000000000000081526004016122d590613d67565b60405180910390fd5b60006122e9836112aa565b90508073ffffffffffffffffffffffffffffffffffffffff168473ffffffffffffffffffffffffffffffffffffffff16148061232b575061232a8185611f20565b5b8061236957508373ffffffffffffffffffffffffffffffffffffffff16612351846108c4565b73ffffffffffffffffffffffffffffffffffffffff16145b91505092915050565b8273ffffffffffffffffffffffffffffffffffffffff16612392826112aa565b73ffffffffffffffffffffffffffffffffffffffff16146123e8576040517f08c379a00000000000000000000000000000000000000000000000000000000081526004016123df90613ce7565b60405180910390fd5b600073ffffffffffffffffffffffffffffffffffffffff168273ffffffffffffffffffffffffffffffffffffffff161415612458576040517f08c379a000000000000000000000000000000000000000000000000000000000815260040161244f90613d27565b60405180910390fd5b612463838383612916565b61246e6000826121db565b6001600360008573ffffffffffffffffffffffffffffffffffffffff1673ffffffffffffffffffffffffffffffffffffffff16815260200190815260200160002060008282546124be91906140b6565b925050819055506001600360008473ffffffffffffffffffffffffffffffffffffffff1673ffffffffffffffffffffffffffffffffffffffff1681526020019081526020016000206000828254612515919061402f565b92505081905550816002600083815260200190815260200160002060006101000a81548173ffffffffffffffffffffffffffffffffffffffff021916908373ffffffffffffffffffffffffffffffffffffffff160217905550808273ffffffffffffffffffffffffffffffffffffffff168473ffffffffffffffffffffffffffffffffffffffff167fddf252ad1be2c89b69c2b068fc378daa952ba7f163c4a11628f55a4df523b3ef60405160405180910390a46125d483838361291b565b505050565b600081600001549050919050565b612601828260405180602001604052806000815250612920565b5050565b61260e82612167565b61264d576040517f08c379a000000000000000000000000000000000000000000000000000000000815260040161264490613de7565b60405180910390fd5b80600660008481526020019081526020016000209080519060200190612674929190612f04565b505050565b6001816000016000828254019250508190555050565b8173ffffffffffffffffffffffffffffffffffffffff168373ffffffffffffffffffffffffffffffffffffffff1614156126fe576040517f08c379a00000000000000000000000000000000000000000000000000000000081526004016126f590613d47565b60405180910390fd5b80600560008573ffffffffffffffffffffffffffffffffffffffff1673ffffffffffffffffffffffffffffffffffffffff16815260200190815260200160002060008473ffffffffffffffffffffffffffffffffffffffff1673ffffffffffffffffffffffffffffffffffffffff16815260200190815260200160002060006101000a81548160ff0219169083151502179055508173ffffffffffffffffffffffffffffffffffffffff168373ffffffffffffffffffffffffffffffffffffffff167f17307eab39ab6107e8899845ad3d59bd9653f200f220920489ca2b5937696c31836040516127ef9190613bf5565b60405180910390a3505050565b612807848484612372565b6128138484848461297b565b612852576040517f08c379a000000000000000000000000000000000000000000000000000000000815260040161284990613ca7565b60405180910390fd5b50505050565b606060405180602001604052806000815250905090565b606061287a82612167565b6128b9576040517f08c379a00000000000000000000000000000000000000000000000000000000081526004016128b090613e67565b60405180910390fd5b60006128c3612858565b905060008151116128e3576040518060200160405280600081525061290e565b806128ed84612b12565b6040516020016128fe929190613a95565b6040516020818303038152906040525b915050919050565b505050565b505050565b61292a8383612cbf565b612937600084848461297b565b612976576040517f08c379a000000000000000000000000000000000000000000000000000000000815260040161296d90613ca7565b60405180910390fd5b505050565b600061299c8473ffffffffffffffffffffffffffffffffffffffff16612e99565b15612b05578373ffffffffffffffffffffffffffffffffffffffff1663150b7a026129c56121d3565b8786866040518563ffffffff1660e01b81526004016129e79493929190613ad4565b602060405180830381600087803b158015612a0157600080fd5b505af1925050508015612a3257506040513d601f19601f82011682018060405250810190612a2f919061348b565b60015b612ab5573d8060008114612a62576040519150601f19603f3d011682016040523d82523d6000602084013e612a67565b606091505b50600081511415612aad576040517f08c379a0000000000000000000000000000000000000000000000000000000008152600401612aa490613ca7565b60405180910390fd5b805181602001fd5b63150b7a0260e01b7bffffffffffffffffffffffffffffffffffffffffffffffffffffffff1916817bffffffffffffffffffffffffffffffffffffffffffffffffffffffff191614915050612b0a565b600190505b949350505050565b60606000821415612b5a576040518060400160405280600181526020017f30000000000000000000000000000000000000000000000000000000000000008152509050612cba565b600082905060005b60008214612b8c578080612b7590614215565b915050600a82612b859190614085565b9150612b62565b60008167ffffffffffffffff811115612bce577f4e487b7100000000000000000000000000000000000000000000000000000000600052604160045260246000fd5b6040519080825280601f01601f191660200182016040528015612c005781602001600182028036833780820191505090505b5090505b60008514612cb357600182612c1991906140b6565b9150600a85612c28919061425e565b6030612c34919061402f565b60f81b818381518110612c70577f4e487b7100000000000000000000000000000000000000000000000000000000600052603260045260246000fd5b60200101907effffffffffffffffffffffffffffffffffffffffffffffffffffffffffffff1916908160001a905350600a85612cac9190614085565b9450612c04565b8093505050505b919050565b600073ffffffffffffffffffffffffffffffffffffffff168273ffffffffffffffffffffffffffffffffffffffff161415612d2f576040517f08c379a0000000000000000000000000000000000000000000000000000000008152600401612d2690613e07565b60405180910390fd5b612d3881612167565b15612d78576040517f08c379a0000000000000000000000000000000000000000000000000000000008152600401612d6f90613d07565b60405180910390fd5b612d8460008383612916565b6001600360008473ffffffffffffffffffffffffffffffffffffffff1673ffffffffffffffffffffffffffffffffffffffff1681526020019081526020016000206000828254612dd4919061402f565b92505081905550816002600083815260200190815260200160002060006101000a81548173ffffffffffffffffffffffffffffffffffffffff021916908373ffffffffffffffffffffffffffffffffffffffff160217905550808273ffffffffffffffffffffffffffffffffffffffff16600073ffffffffffffffffffffffffffffffffffffffff167fddf252ad1be2c89b69c2b068fc378daa952ba7f163c4a11628f55a4df523b3ef60405160405180910390a4612e956000838361291b565b5050565b6000808273ffffffffffffffffffffffffffffffffffffffff163b119050919050565b5080546000825560030290600052602060002090810190612edd9190612f8a565b50565b5080546000825560040290600052602060002090810190612f019190612fec565b50565b828054612f10906141b2565b90600052602060002090601f016020900481019282612f325760008555612f79565b82601f10612f4b57805160ff1916838001178555612f79565b82800160010185558215612f79579182015b82811115612f78578251825591602001919060010190612f5d565b5b509050612f869190613052565b5090565b5b80821115612fe857600080820160006101000a81549073ffffffffffffffffffffffffffffffffffffffff0219169055600182016000612fcb919061306f565b6002820160006101000a81549060ff021916905550600301612f8b565b5090565b5b8082111561304e57600080820160006101000a81549073ffffffffffffffffffffffffffffffffffffffff021916905560018201600061302d919061306f565b60028201600061303d919061306f565b600382016000905550600401612fed565b5090565b5b8082111561306b576000816000905550600101613053565b5090565b50805461307b906141b2565b6000825580601f1061308d57506130ac565b601f0160209004906000526020600020908101906130ab9190613052565b5b50565b60006130c26130bd84613f07565b613ee2565b9050828152602081018484840111156130da57600080fd5b6130e5848285614170565b509392505050565b60006131006130fb84613f38565b613ee2565b90508281526020810184848401111561311857600080fd5b613123848285614170565b509392505050565b60008135905061313a81614803565b92915050565b60008135905061314f8161481a565b92915050565b60008135905061316481614831565b92915050565b60008151905061317981614831565b92915050565b600082601f83011261319057600080fd5b81356131a08482602086016130af565b91505092915050565b600082601f8301126131ba57600080fd5b81356131ca8482602086016130ed565b91505092915050565b6000813590506131e281614848565b92915050565b6000602082840312156131fa57600080fd5b60006132088482850161312b565b91505092915050565b6000806040838503121561322457600080fd5b60006132328582860161312b565b92505060206132438582860161312b565b9150509250929050565b60008060006060848603121561326257600080fd5b60006132708682870161312b565b93505060206132818682870161312b565b9250506040613292868287016131d3565b9150509250925092565b600080600080608085870312156132b257600080fd5b60006132c08782880161312b565b94505060206132d18782880161312b565b93505060406132e2878288016131d3565b925050606085013567ffffffffffffffff8111156132ff57600080fd5b61330b8782880161317f565b91505092959194509250565b6000806040838503121561332a57600080fd5b60006133388582860161312b565b925050602061334985828601613140565b9150509250929050565b6000806040838503121561336657600080fd5b60006133748582860161312b565b925050602083013567ffffffffffffffff81111561339157600080fd5b61339d858286016131a9565b9150509250929050565b6000806000606084860312156133bc57600080fd5b60006133ca8682870161312b565b935050602084013567ffffffffffffffff8111156133e757600080fd5b6133f3868287016131a9565b925050604084013567ffffffffffffffff81111561341057600080fd5b61341c868287016131a9565b9150509250925092565b6000806040838503121561343957600080fd5b60006134478582860161312b565b9250506020613458858286016131d3565b9150509250929050565b60006020828403121561347457600080fd5b600061348284828501613155565b91505092915050565b60006020828403121561349d57600080fd5b60006134ab8482850161316a565b91505092915050565b600080604083850312156134c757600080fd5b600083013567ffffffffffffffff8111156134e157600080fd5b6134ed858286016131a9565b92505060206134fe8582860161312b565b9150509250929050565b60006020828403121561351a57600080fd5b6000613528848285016131d3565b91505092915050565b600061353d83836139bd565b905092915050565b60006135518383613a27565b905092915050565b613562816140ea565b82525050565b613571816140ea565b82525050565b600061358282613f89565b61358c8185613fcf565b93508360208202850161359e85613f69565b8060005b858110156135da57848403895281516135bb8582613531565b94506135c683613fb5565b925060208a019950506001810190506135a2565b50829750879550505050505092915050565b60006135f782613f94565b6136018185613fe0565b93508360208202850161361385613f79565b8060005b8581101561364f57848403895281516136308582613545565b945061363b83613fc2565b925060208a01995050600181019050613617565b50829750879550505050505092915050565b61366a816140fc565b82525050565b613679816140fc565b82525050565b600061368a82613f9f565b6136948185613ff1565b93506136a481856020860161417f565b6136ad8161434b565b840191505092915050565b6136c18161415e565b82525050565b60006136d282613faa565b6136dc8185614002565b93506136ec81856020860161417f565b6136f58161434b565b840191505092915050565b600061370b82613faa565b6137158185614013565b935061372581856020860161417f565b61372e8161434b565b840191505092915050565b600061374482613faa565b61374e8185614024565b935061375e81856020860161417f565b80840191505092915050565b6000613777603283614013565b91506137828261435c565b604082019050919050565b600061379a601683614013565b91506137a5826143ab565b602082019050919050565b60006137bd602583614013565b91506137c8826143d4565b604082019050919050565b60006137e0601c83614013565b91506137eb82614423565b602082019050919050565b6000613803602483614013565b915061380e8261444c565b604082019050919050565b6000613826601983614013565b91506138318261449b565b602082019050919050565b6000613849602c83614013565b9150613854826144c4565b604082019050919050565b600061386c603883614013565b915061387782614513565b604082019050919050565b600061388f602a83614013565b915061389a82614562565b604082019050919050565b60006138b2602983614013565b91506138bd826145b1565b604082019050919050565b60006138d5602e83614013565b91506138e082614600565b604082019050919050565b60006138f8602083614013565b91506139038261464f565b602082019050919050565b600061391b603183614013565b915061392682614678565b604082019050919050565b600061393e602c83614013565b9150613949826146c7565b604082019050919050565b6000613961602f83614013565b915061396c82614716565b604082019050919050565b6000613984602183614013565b915061398f82614765565b604082019050919050565b60006139a7603183614013565b91506139b2826147b4565b604082019050919050565b60006080830160008301516139d56000860182613559565b50602083015184820360208601526139ed82826136c7565b91505060408301518482036040860152613a0782826136c7565b9150506060830151613a1c6060860182613a77565b508091505092915050565b6000606083016000830151613a3f6000860182613559565b5060208301518482036020860152613a5782826136c7565b9150506040830151613a6c6040860182613661565b508091505092915050565b613a8081614154565b82525050565b613a8f81614154565b82525050565b6000613aa18285613739565b9150613aad8284613739565b91508190509392505050565b6000602082019050613ace6000830184613568565b92915050565b6000608082019050613ae96000830187613568565b613af66020830186613568565b613b036040830185613a86565b8181036060830152613b15818461367f565b905095945050505050565b6000606082019050613b356000830186613568565b8181036020830152613b478185613700565b9050613b566040830184613670565b949350505050565b6000608082019050613b736000830187613568565b8181036020830152613b858186613700565b90508181036040830152613b998185613700565b9050613ba86060830184613a86565b95945050505050565b60006020820190508181036000830152613bcb8184613577565b905092915050565b60006020820190508181036000830152613bed81846135ec565b905092915050565b6000602082019050613c0a6000830184613670565b92915050565b60006020820190508181036000830152613c2a8184613700565b905092915050565b60006040820190508181036000830152613c4c8185613700565b9050613c5b6020830184613670565b9392505050565b60006060820190508181036000830152613c7c8186613700565b90508181036020830152613c908185613700565b9050613c9f60408301846136b8565b949350505050565b60006020820190508181036000830152613cc08161376a565b9050919050565b60006020820190508181036000830152613ce08161378d565b9050919050565b60006020820190508181036000830152613d00816137b0565b9050919050565b60006020820190508181036000830152613d20816137d3565b9050919050565b60006020820190508181036000830152613d40816137f6565b9050919050565b60006020820190508181036000830152613d6081613819565b9050919050565b60006020820190508181036000830152613d808161383c565b9050919050565b60006020820190508181036000830152613da08161385f565b9050919050565b60006020820190508181036000830152613dc081613882565b9050919050565b60006020820190508181036000830152613de0816138a5565b9050919050565b60006020820190508181036000830152613e00816138c8565b9050919050565b60006020820190508181036000830152613e20816138eb565b9050919050565b60006020820190508181036000830152613e408161390e565b9050919050565b60006020820190508181036000830152613e6081613931565b9050919050565b60006020820190508181036000830152613e8081613954565b9050919050565b60006020820190508181036000830152613ea081613977565b9050919050565b60006020820190508181036000830152613ec08161399a565b9050919050565b6000602082019050613edc6000830184613a86565b92915050565b6000613eec613efd565b9050613ef882826141e4565b919050565b6000604051905090565b600067ffffffffffffffff821115613f2257613f2161431c565b5b613f2b8261434b565b9050602081019050919050565b600067ffffffffffffffff821115613f5357613f5261431c565b5b613f5c8261434b565b9050602081019050919050565b6000819050602082019050919050565b6000819050602082019050919050565b600081519050919050565b600081519050919050565b600081519050919050565b600081519050919050565b6000602082019050919050565b6000602082019050919050565b600082825260208201905092915050565b600082825260208201905092915050565b600082825260208201905092915050565b600082825260208201905092915050565b600082825260208201905092915050565b600081905092915050565b600061403a82614154565b915061404583614154565b9250827fffffffffffffffffffffffffffffffffffffffffffffffffffffffffffffffff0382111561407a5761407961428f565b5b828201905092915050565b600061409082614154565b915061409b83614154565b9250826140ab576140aa6142be565b5b828204905092915050565b60006140c182614154565b91506140cc83614154565b9250828210156140df576140de61428f565b5b828203905092915050565b60006140f582614134565b9050919050565b60008115159050919050565b60007fffffffff0000000000000000000000000000000000000000000000000000000082169050919050565b600073ffffffffffffffffffffffffffffffffffffffff82169050919050565b6000819050919050565b600061416982614154565b9050919050565b82818337600083830152505050565b60005b8381101561419d578082015181840152602081019050614182565b838111156141ac576000848401525b50505050565b600060028204905060018216806141ca57607f821691505b602082108114156141de576141dd6142ed565b5b50919050565b6141ed8261434b565b810181811067ffffffffffffffff8211171561420c5761420b61431c565b5b80604052505050565b600061422082614154565b91507fffffffffffffffffffffffffffffffffffffffffffffffffffffffffffffffff8214156142535761425261428f565b5b600182019050919050565b600061426982614154565b915061427483614154565b925082614284576142836142be565b5b828206905092915050565b7f4e487b7100000000000000000000000000000000000000000000000000000000600052601160045260246000fd5b7f4e487b7100000000000000000000000000000000000000000000000000000000600052601260045260246000fd5b7f4e487b7100000000000000000000000000000000000000000000000000000000600052602260045260246000fd5b7f4e487b7100000000000000000000000000000000000000000000000000000000600052604160045260246000fd5b6000601f19601f8301169050919050565b7f4552433732313a207472616e7366657220746f206e6f6e20455243373231526560008201527f63656976657220696d706c656d656e7465720000000000000000000000000000602082015250565b7f566f74696e67206e6f7420616c6c6f7765642079657400000000000000000000600082015250565b7f4552433732313a207472616e736665722066726f6d20696e636f72726563742060008201527f6f776e6572000000000000000000000000000000000000000000000000000000602082015250565b7f4552433732313a20746f6b656e20616c7265616479206d696e74656400000000600082015250565b7f4552433732313a207472616e7366657220746f20746865207a65726f2061646460008201527f7265737300000000000000000000000000000000000000000000000000000000602082015250565b7f4552433732313a20617070726f766520746f2063616c6c657200000000000000600082015250565b7f4552433732313a206f70657261746f7220717565727920666f72206e6f6e657860008201527f697374656e7420746f6b656e0000000000000000000000000000000000000000602082015250565b7f4552433732313a20617070726f76652063616c6c6572206973206e6f74206f7760008201527f6e6572206e6f7220617070726f76656420666f7220616c6c0000000000000000602082015250565b7f4552433732313a2062616c616e636520717565727920666f7220746865207a6560008201527f726f206164647265737300000000000000000000000000000000000000000000602082015250565b7f4552433732313a206f776e657220717565727920666f72206e6f6e657869737460008201527f656e7420746f6b656e0000000000000000000000000000000000000000000000602082015250565b7f45524337323155524953746f726167653a2055524920736574206f66206e6f6e60008201527f6578697374656e7420746f6b656e000000000000000000000000000000000000602082015250565b7f4552433732313a206d696e7420746f20746865207a65726f2061646472657373600082015250565b7f45524337323155524953746f726167653a2055524920717565727920666f722060008201527f6e6f6e6578697374656e7420746f6b656e000000000000000000000000000000602082015250565b7f4552433732313a20617070726f76656420717565727920666f72206e6f6e657860008201527f697374656e7420746f6b656e0000000000000000000000000000000000000000602082015250565b7f4552433732314d657461646174613a2055524920717565727920666f72206e6f60008201527f6e6578697374656e7420746f6b656e0000000000000000000000000000000000602082015250565b7f4552433732313a20617070726f76616c20746f2063757272656e74206f776e6560008201527f7200000000000000000000000000000000000000000000000000000000000000602082015250565b7f4552433732313a207472616e736665722063616c6c6572206973206e6f74206f60008201527f776e6572206e6f7220617070726f766564000000000000000000000000000000602082015250565b61480c816140ea565b811461481757600080fd5b50565b614823816140fc565b811461482e57600080fd5b50565b61483a81614108565b811461484557600080fd5b50565b61485181614154565b811461485c57600080fd5b5056fea264697066735822122080ac5fc0cb1a5773fc9e0f3edb8ca1b460b6417a63023232d33f85cd9364640564736f6c63430008010033",
  "linkReferences": {},
  "deployedLinkReferences": {}
}