{
    "_format": "hh-sol-artifact-1",
    "contractName": "VotingSystem",
    "sourceName": "contracts/VotingSystem.sol",
    "abi": [
        {
            "inputs": [],
            "stateMutability": "nonpayable",
            "type": "constructor"
        },
        {
            "inputs": [
                {
                    "internalType": "address",
                    "name": "_candAddress",
                    "type": "address"
                },
                {
                    "internalType": "string",
                    "name": "_candName",
                    "type": "string"
                },
                {
                    "internalType": "string",
                    "name": "_candProposal",
                    "type": "string"
                }
            ],
            "name": "addCandidate",
            "outputs": [
                {
                    "components": [
                        {
                            "internalType": "address",
                            "name": "candAddress",
                            "type": "address"
                        },
                        {
                            "internalType": "string",
                            "name": "name",
                            "type": "string"
                        },
                        {
                            "internalType": "string",
                            "name": "proposal",
                            "type": "string"
                        },
                        {
                            "internalType": "uint256",
                            "name": "votes",
                            "type": "uint256"
                        }
                    ],
                    "internalType": "struct VotingSystem.candidate[]",
                    "name": "",
                    "type": "tuple[]"
                }
            ],
            "stateMutability": "nonpayable",
            "type": "function"
        },
        {
            "inputs": [
                {
                    "internalType": "address",
                    "name": "_voterAddress",
                    "type": "address"
                },
                {
                    "internalType": "string",
                    "name": "_voterName",
                    "type": "string"
                }
            ],
            "name": "addVoters",
            "outputs": [
                {
                    "components": [
                        {
                            "internalType": "address",
                            "name": "voterAddress",
                            "type": "address"
                        },
                        {
                            "internalType": "string",
                            "name": "name",
                            "type": "string"
                        },
                        {
                            "internalType": "bool",
                            "name": "voted",
                            "type": "bool"
                        }
                    ],
                    "internalType": "struct VotingSystem.voter[]",
                    "name": "",
                    "type": "tuple[]"
                }
            ],
            "stateMutability": "nonpayable",
            "type": "function"
        },
        {
            "inputs": [
                {
                    "internalType": "uint256",
                    "name": "",
                    "type": "uint256"
                }
            ],
            "name": "candArr",
            "outputs": [
                {
                    "internalType": "address",
                    "name": "candAddress",
                    "type": "address"
                },
                {
                    "internalType": "string",
                    "name": "name",
                    "type": "string"
                },
                {
                    "internalType": "string",
                    "name": "proposal",
                    "type": "string"
                },
                {
                    "internalType": "uint256",
                    "name": "votes",
                    "type": "uint256"
                }
            ],
            "stateMutability": "view",
            "type": "function"
        },
        {
            "inputs": [],
            "name": "endVoting",
            "outputs": [
                {
                    "components": [
                        {
                            "internalType": "address",
                            "name": "candAddress",
                            "type": "address"
                        },
                        {
                            "internalType": "string",
                            "name": "name",
                            "type": "string"
                        },
                        {
                            "internalType": "string",
                            "name": "proposal",
                            "type": "string"
                        },
                        {
                            "internalType": "uint256",
                            "name": "votes",
                            "type": "uint256"
                        }
                    ],
                    "internalType": "struct VotingSystem.candidate",
                    "name": "",
                    "type": "tuple"
                }
            ],
            "stateMutability": "nonpayable",
            "type": "function"
        },
        {
            "inputs": [],
            "name": "getCandidates",
            "outputs": [
                {
                    "components": [
                        {
                            "internalType": "address",
                            "name": "candAddress",
                            "type": "address"
                        },
                        {
                            "internalType": "string",
                            "name": "name",
                            "type": "string"
                        },
                        {
                            "internalType": "string",
                            "name": "proposal",
                            "type": "string"
                        },
                        {
                            "internalType": "uint256",
                            "name": "votes",
                            "type": "uint256"
                        }
                    ],
                    "internalType": "struct VotingSystem.candidate[]",
                    "name": "",
                    "type": "tuple[]"
                }
            ],
            "stateMutability": "view",
            "type": "function"
        },
        {
            "inputs": [],
            "name": "getVoters",
            "outputs": [
                {
                    "components": [
                        {
                            "internalType": "address",
                            "name": "voterAddress",
                            "type": "address"
                        },
                        {
                            "internalType": "string",
                            "name": "name",
                            "type": "string"
                        },
                        {
                            "internalType": "bool",
                            "name": "voted",
                            "type": "bool"
                        }
                    ],
                    "internalType": "struct VotingSystem.voter[]",
                    "name": "",
                    "type": "tuple[]"
                }
            ],
            "stateMutability": "view",
            "type": "function"
        },
        {
            "inputs": [],
            "name": "startVoting",
            "outputs": [],
            "stateMutability": "nonpayable",
            "type": "function"
        },
        {
            "inputs": [
                {
                    "internalType": "address",
                    "name": "_candAddress",
                    "type": "address"
                }
            ],
            "name": "voteCandidate",
            "outputs": [],
            "stateMutability": "nonpayable",
            "type": "function"
        },
        {
            "inputs": [
                {
                    "internalType": "uint256",
                    "name": "",
                    "type": "uint256"
                }
            ],
            "name": "voterArr",
            "outputs": [
                {
                    "internalType": "address",
                    "name": "voterAddress",
                    "type": "address"
                },
                {
                    "internalType": "string",
                    "name": "name",
                    "type": "string"
                },
                {
                    "internalType": "bool",
                    "name": "voted",
                    "type": "bool"
                }
            ],
            "stateMutability": "view",
            "type": "function"
        }
    ],
    "bytecode": "0x608060405234801561001057600080fd5b5033600260006101000a81548173ffffffffffffffffffffffffffffffffffffffff021916908373ffffffffffffffffffffffffffffffffffffffff160217905550611f8d806100616000396000f3fe608060405234801561001057600080fd5b50600436106100935760003560e01c8063a2683db711610066578063a2683db71461010f578063c3403ddf1461013f578063cdd722531461015d578063e22a62311461017b578063f2a3991c146101ab57610093565b806306a49fce146100985780631ec6b60a146100b657806326bb886d146100c05780637cabb274146100dc575b600080fd5b6100a06101dd565b6040516100ad9190611baa565b60405180910390f35b6100be6103c0565b005b6100da60048036038101906100d591906116b2565b610437565b005b6100f660048036038101906100f191906117ae565b610897565b6040516101069493929190611b57565b60405180910390f35b610129600480360381019061012491906116db565b610a07565b6040516101369190611bcc565b60405180910390f35b610147610cab565b6040516101549190611c0e565b60405180910390f35b610165610f84565b6040516101729190611bcc565b60405180910390f35b6101956004803603810190610190919061172f565b6110e6565b6040516101a29190611baa565b60405180910390f35b6101c560048036038101906101c091906117ae565b611417565b6040516101d493929190611b19565b60405180910390f35b60606000805480602002602001604051908101604052809291908181526020016000905b828210156103b757838290600052602060002090600402016040518060800160405290816000820160009054906101000a900473ffffffffffffffffffffffffffffffffffffffff1673ffffffffffffffffffffffffffffffffffffffff1673ffffffffffffffffffffffffffffffffffffffff16815260200160018201805461028a90611e10565b80601f01602080910402602001604051908101604052809291908181526020018280546102b690611e10565b80156103035780601f106102d857610100808354040283529160200191610303565b820191906000526020600020905b8154815290600101906020018083116102e657829003601f168201915b5050505050815260200160028201805461031c90611e10565b80601f016020809104026020016040519081016040528092919081815260200182805461034890611e10565b80156103955780601f1061036a57610100808354040283529160200191610395565b820191906000526020600020905b81548152906001019060200180831161037857829003601f168201915b5050505050815260200160038201548152505081526020019060010190610201565b50505050905090565b600260009054906101000a900473ffffffffffffffffffffffffffffffffffffffff1673ffffffffffffffffffffffffffffffffffffffff163373ffffffffffffffffffffffffffffffffffffffff161461041a57600080fd5b6001600260146101000a81548160ff021916908315150217905550565b600260149054906101000a900460ff16610486576040517f08c379a000000000000000000000000000000000000000000000000000000000815260040161047d90611bee565b60405180910390fd5b600260009054906101000a900473ffffffffffffffffffffffffffffffffffffffff1673ffffffffffffffffffffffffffffffffffffffff163373ffffffffffffffffffffffffffffffffffffffff1614156104e157600080fd5b60006104eb611506565b60005b60018054905081101561070a5760018181548110610535577f4e487b7100000000000000000000000000000000000000000000000000000000600052603260045260246000fd5b906000526020600020906003020160000160009054906101000a900473ffffffffffffffffffffffffffffffffffffffff1673ffffffffffffffffffffffffffffffffffffffff163373ffffffffffffffffffffffffffffffffffffffff1614156106f757600181815481106105d4577f4e487b7100000000000000000000000000000000000000000000000000000000600052603260045260246000fd5b90600052602060002090600302016040518060600160405290816000820160009054906101000a900473ffffffffffffffffffffffffffffffffffffffff1673ffffffffffffffffffffffffffffffffffffffff1673ffffffffffffffffffffffffffffffffffffffff16815260200160018201805461065390611e10565b80601f016020809104026020016040519081016040528092919081815260200182805461067f90611e10565b80156106cc5780601f106106a1576101008083540402835291602001916106cc565b820191906000526020600020905b8154815290600101906020018083116106af57829003601f168201915b505050505081526020016002820160009054906101000a900460ff1615151515815250509150600192505b808061070290611e42565b9150506104ee565b506001821461071857600080fd5b80604001511561072757600080fd5b60005b6000805490508110156108915760008181548110610771577f4e487b7100000000000000000000000000000000000000000000000000000000600052603260045260246000fd5b906000526020600020906004020160000160009054906101000a900473ffffffffffffffffffffffffffffffffffffffff1673ffffffffffffffffffffffffffffffffffffffff168473ffffffffffffffffffffffffffffffffffffffff16141561087e57600160008281548110610812577f4e487b7100000000000000000000000000000000000000000000000000000000600052603260045260246000fd5b90600052602060002090600402016003015461082e9190611d30565b60008281548110610868577f4e487b7100000000000000000000000000000000000000000000000000000000600052603260045260246000fd5b9060005260206000209060040201600301819055505b808061088990611e42565b91505061072a565b50505050565b600081815481106108a757600080fd5b90600052602060002090600402016000915090508060000160009054906101000a900473ffffffffffffffffffffffffffffffffffffffff16908060010180546108f090611e10565b80601f016020809104026020016040519081016040528092919081815260200182805461091c90611e10565b80156109695780601f1061093e57610100808354040283529160200191610969565b820191906000526020600020905b81548152906001019060200180831161094c57829003601f168201915b50505050509080600201805461097e90611e10565b80601f01602080910402602001604051908101604052809291908181526020018280546109aa90611e10565b80156109f75780601f106109cc576101008083540402835291602001916109f7565b820191906000526020600020905b8154815290600101906020018083116109da57829003601f168201915b5050505050908060030154905084565b6060600260009054906101000a900473ffffffffffffffffffffffffffffffffffffffff1673ffffffffffffffffffffffffffffffffffffffff163373ffffffffffffffffffffffffffffffffffffffff1614610a6357600080fd5b600160405180606001604052808573ffffffffffffffffffffffffffffffffffffffff16815260200184815260200160001515815250908060018154018082558091505060019003906000526020600020906003020160009091909190915060008201518160000160006101000a81548173ffffffffffffffffffffffffffffffffffffffff021916908373ffffffffffffffffffffffffffffffffffffffff1602179055506020820151816001019080519060200190610b2592919061153f565b5060408201518160020160006101000a81548160ff02191690831515021790555050506001805480602002602001604051908101604052809291908181526020016000905b82821015610c9f57838290600052602060002090600302016040518060600160405290816000820160009054906101000a900473ffffffffffffffffffffffffffffffffffffffff1673ffffffffffffffffffffffffffffffffffffffff1673ffffffffffffffffffffffffffffffffffffffff168152602001600182018054610bf390611e10565b80601f0160208091040260200160405190810160405280929190818152602001828054610c1f90611e10565b8015610c6c5780601f10610c4157610100808354040283529160200191610c6c565b820191906000526020600020905b815481529060010190602001808311610c4f57829003601f168201915b505050505081526020016002820160009054906101000a900460ff16151515158152505081526020019060010190610b6a565b50505050905092915050565b610cb36115c5565b600260009054906101000a900473ffffffffffffffffffffffffffffffffffffffff1673ffffffffffffffffffffffffffffffffffffffff163373ffffffffffffffffffffffffffffffffffffffff1614610d0d57600080fd5b6000600260146101000a81548160ff02191690831515021790555060008060005b600080549050811015610da55760008181548110610d75577f4e487b7100000000000000000000000000000000000000000000000000000000600052603260045260246000fd5b906000526020600020906004020160030154831015610d92578091505b8080610d9d90611e42565b915050610d2e565b5060008181548110610de0577f4e487b7100000000000000000000000000000000000000000000000000000000600052603260045260246000fd5b90600052602060002090600402016040518060800160405290816000820160009054906101000a900473ffffffffffffffffffffffffffffffffffffffff1673ffffffffffffffffffffffffffffffffffffffff1673ffffffffffffffffffffffffffffffffffffffff168152602001600182018054610e5f90611e10565b80601f0160208091040260200160405190810160405280929190818152602001828054610e8b90611e10565b8015610ed85780601f10610ead57610100808354040283529160200191610ed8565b820191906000526020600020905b815481529060010190602001808311610ebb57829003601f168201915b50505050508152602001600282018054610ef190611e10565b80601f0160208091040260200160405190810160405280929190818152602001828054610f1d90611e10565b8015610f6a5780601f10610f3f57610100808354040283529160200191610f6a565b820191906000526020600020905b815481529060010190602001808311610f4d57829003601f168201915b505050505081526020016003820154815250509250505090565b60606001805480602002602001604051908101604052809291908181526020016000905b828210156110dd57838290600052602060002090600302016040518060600160405290816000820160009054906101000a900473ffffffffffffffffffffffffffffffffffffffff1673ffffffffffffffffffffffffffffffffffffffff1673ffffffffffffffffffffffffffffffffffffffff16815260200160018201805461103190611e10565b80601f016020809104026020016040519081016040528092919081815260200182805461105d90611e10565b80156110aa5780601f1061107f576101008083540402835291602001916110aa565b820191906000526020600020905b81548152906001019060200180831161108d57829003601f168201915b505050505081526020016002820160009054906101000a900460ff16151515158152505081526020019060010190610fa8565b50505050905090565b6060600260009054906101000a900473ffffffffffffffffffffffffffffffffffffffff1673ffffffffffffffffffffffffffffffffffffffff163373ffffffffffffffffffffffffffffffffffffffff161461114257600080fd5b600060405180608001604052808673ffffffffffffffffffffffffffffffffffffffff1681526020018581526020018481526020016000815250908060018154018082558091505060019003906000526020600020906004020160009091909190915060008201518160000160006101000a81548173ffffffffffffffffffffffffffffffffffffffff021916908373ffffffffffffffffffffffffffffffffffffffff160217905550602082015181600101908051906020019061120892919061153f565b50604082015181600201908051906020019061122592919061153f565b506060820151816003015550506000805480602002602001604051908101604052809291908181526020016000905b8282101561140a57838290600052602060002090600402016040518060800160405290816000820160009054906101000a900473ffffffffffffffffffffffffffffffffffffffff1673ffffffffffffffffffffffffffffffffffffffff1673ffffffffffffffffffffffffffffffffffffffff1681526020016001820180546112dd90611e10565b80601f016020809104026020016040519081016040528092919081815260200182805461130990611e10565b80156113565780601f1061132b57610100808354040283529160200191611356565b820191906000526020600020905b81548152906001019060200180831161133957829003601f168201915b5050505050815260200160028201805461136f90611e10565b80601f016020809104026020016040519081016040528092919081815260200182805461139b90611e10565b80156113e85780601f106113bd576101008083540402835291602001916113e8565b820191906000526020600020905b8154815290600101906020018083116113cb57829003601f168201915b5050505050815260200160038201548152505081526020019060010190611254565b5050505090509392505050565b6001818154811061142757600080fd5b90600052602060002090600302016000915090508060000160009054906101000a900473ffffffffffffffffffffffffffffffffffffffff169080600101805461147090611e10565b80601f016020809104026020016040519081016040528092919081815260200182805461149c90611e10565b80156114e95780601f106114be576101008083540402835291602001916114e9565b820191906000526020600020905b8154815290600101906020018083116114cc57829003601f168201915b5050505050908060020160009054906101000a900460ff16905083565b6040518060600160405280600073ffffffffffffffffffffffffffffffffffffffff168152602001606081526020016000151581525090565b82805461154b90611e10565b90600052602060002090601f01602090048101928261156d57600085556115b4565b82601f1061158657805160ff19168380011785556115b4565b828001600101855582156115b4579182015b828111156115b3578251825591602001919060010190611598565b5b5090506115c19190611603565b5090565b6040518060800160405280600073ffffffffffffffffffffffffffffffffffffffff1681526020016060815260200160608152602001600081525090565b5b8082111561161c576000816000905550600101611604565b5090565b600061163361162e84611c61565b611c30565b90508281526020810184848401111561164b57600080fd5b611656848285611dce565b509392505050565b60008135905061166d81611f29565b92915050565b600082601f83011261168457600080fd5b8135611694848260208601611620565b91505092915050565b6000813590506116ac81611f40565b92915050565b6000602082840312156116c457600080fd5b60006116d28482850161165e565b91505092915050565b600080604083850312156116ee57600080fd5b60006116fc8582860161165e565b925050602083013567ffffffffffffffff81111561171957600080fd5b61172585828601611673565b9150509250929050565b60008060006060848603121561174457600080fd5b60006117528682870161165e565b935050602084013567ffffffffffffffff81111561176f57600080fd5b61177b86828701611673565b925050604084013567ffffffffffffffff81111561179857600080fd5b6117a486828701611673565b9150509250925092565b6000602082840312156117c057600080fd5b60006117ce8482850161169d565b91505092915050565b60006117e383836119d7565b905092915050565b60006117f78383611aab565b905092915050565b61180881611d86565b82525050565b61181781611d86565b82525050565b600061182882611cb1565b6118328185611cec565b93508360208202850161184485611c91565b8060005b85811015611880578484038952815161186185826117d7565b945061186c83611cd2565b925060208a01995050600181019050611848565b50829750879550505050505092915050565b600061189d82611cbc565b6118a78185611cfd565b9350836020820285016118b985611ca1565b8060005b858110156118f557848403895281516118d685826117eb565b94506118e183611cdf565b925060208a019950506001810190506118bd565b50829750879550505050505092915050565b61191081611d98565b82525050565b61191f81611d98565b82525050565b600061193082611cc7565b61193a8185611d0e565b935061194a818560208601611ddd565b61195381611f18565b840191505092915050565b600061196982611cc7565b6119738185611d1f565b9350611983818560208601611ddd565b61198c81611f18565b840191505092915050565b60006119a4601683611d1f565b91507f566f74696e67206e6f7420616c6c6f77656420796574000000000000000000006000830152602082019050919050565b60006080830160008301516119ef60008601826117ff565b5060208301518482036020860152611a078282611925565b91505060408301518482036040860152611a218282611925565b9150506060830151611a366060860182611afb565b508091505092915050565b6000608083016000830151611a5960008601826117ff565b5060208301518482036020860152611a718282611925565b91505060408301518482036040860152611a8b8282611925565b9150506060830151611aa06060860182611afb565b508091505092915050565b6000606083016000830151611ac360008601826117ff565b5060208301518482036020860152611adb8282611925565b9150506040830151611af06040860182611907565b508091505092915050565b611b0481611dc4565b82525050565b611b1381611dc4565b82525050565b6000606082019050611b2e600083018661180e565b8181036020830152611b40818561195e565b9050611b4f6040830184611916565b949350505050565b6000608082019050611b6c600083018761180e565b8181036020830152611b7e818661195e565b90508181036040830152611b92818561195e565b9050611ba16060830184611b0a565b95945050505050565b60006020820190508181036000830152611bc4818461181d565b905092915050565b60006020820190508181036000830152611be68184611892565b905092915050565b60006020820190508181036000830152611c0781611997565b9050919050565b60006020820190508181036000830152611c288184611a41565b905092915050565b6000604051905081810181811067ffffffffffffffff82111715611c5757611c56611ee9565b5b8060405250919050565b600067ffffffffffffffff821115611c7c57611c7b611ee9565b5b601f19601f8301169050602081019050919050565b6000819050602082019050919050565b6000819050602082019050919050565b600081519050919050565b600081519050919050565b600081519050919050565b6000602082019050919050565b6000602082019050919050565b600082825260208201905092915050565b600082825260208201905092915050565b600082825260208201905092915050565b600082825260208201905092915050565b6000611d3b82611dc4565b9150611d4683611dc4565b9250827fffffffffffffffffffffffffffffffffffffffffffffffffffffffffffffffff03821115611d7b57611d7a611e8b565b5b828201905092915050565b6000611d9182611da4565b9050919050565b60008115159050919050565b600073ffffffffffffffffffffffffffffffffffffffff82169050919050565b6000819050919050565b82818337600083830152505050565b60005b83811015611dfb578082015181840152602081019050611de0565b83811115611e0a576000848401525b50505050565b60006002820490506001821680611e2857607f821691505b60208210811415611e3c57611e3b611eba565b5b50919050565b6000611e4d82611dc4565b91507fffffffffffffffffffffffffffffffffffffffffffffffffffffffffffffffff821415611e8057611e7f611e8b565b5b600182019050919050565b7f4e487b7100000000000000000000000000000000000000000000000000000000600052601160045260246000fd5b7f4e487b7100000000000000000000000000000000000000000000000000000000600052602260045260246000fd5b7f4e487b7100000000000000000000000000000000000000000000000000000000600052604160045260246000fd5b6000601f19601f8301169050919050565b611f3281611d86565b8114611f3d57600080fd5b50565b611f4981611dc4565b8114611f5457600080fd5b5056fea26469706673582212201170e415a0313b57fc111629c05e4cc2a0453c0df5d6e85241a086d80bb5fd2864736f6c63430008000033",
    "linkReferences": {},
    "deployedLinkReferences": {}
}