{
  "_format": "hh-sol-artifact-1",
  "contractName": "VotingSystem",
  "sourceName": "contracts/VotingSystem.sol",
  "abi": [
    {
      "inputs": [],
      "stateMutability": "nonpayable",
      "type": "constructor"
    },
    {
      "anonymous": false,
      "inputs": [
        {
          "indexed": true,
          "internalType": "address",
          "name": "candAdd",
          "type": "address"
        },
        {
          "indexed": false,
          "internalType": "string",
          "name": "name",
          "type": "string"
        },
        {
          "indexed": false,
          "internalType": "string",
          "name": "proposal",
          "type": "string"
        },
        {
          "indexed": false,
          "internalType": "uint256",
          "name": "votes",
          "type": "uint256"
        }
      ],
      "name": "NewCandidate",
      "type": "event"
    },
    {
      "anonymous": false,
      "inputs": [
        {
          "indexed": true,
          "internalType": "address",
          "name": "voterAdd",
          "type": "address"
        },
        {
          "indexed": false,
          "internalType": "string",
          "name": "name",
          "type": "string"
        },
        {
          "indexed": false,
          "internalType": "bool",
          "name": "voted",
          "type": "bool"
        }
      ],
      "name": "NewVoter",
      "type": "event"
    },
    {
      "inputs": [
        {
          "internalType": "address",
          "name": "_candAddress",
          "type": "address"
        },
        {
          "internalType": "string",
          "name": "_candName",
          "type": "string"
        },
        {
          "internalType": "string",
          "name": "_candProposal",
          "type": "string"
        }
      ],
      "name": "addCandidate",
      "outputs": [],
      "stateMutability": "nonpayable",
      "type": "function"
    },
    {
      "inputs": [
        {
          "internalType": "address",
          "name": "_voterAddress",
          "type": "address"
        },
        {
          "internalType": "string",
          "name": "_voterName",
          "type": "string"
        }
      ],
      "name": "addVoter",
      "outputs": [],
      "stateMutability": "nonpayable",
      "type": "function"
    },
    {
      "inputs": [
        {
          "internalType": "uint256",
          "name": "",
          "type": "uint256"
        }
      ],
      "name": "candArr",
      "outputs": [
        {
          "internalType": "address",
          "name": "candAddress",
          "type": "address"
        },
        {
          "internalType": "string",
          "name": "name",
          "type": "string"
        },
        {
          "internalType": "string",
          "name": "proposal",
          "type": "string"
        },
        {
          "internalType": "uint256",
          "name": "votes",
          "type": "uint256"
        }
      ],
      "stateMutability": "view",
      "type": "function"
    },
    {
      "inputs": [],
      "name": "endVoting",
      "outputs": [
        {
          "components": [
            {
              "internalType": "address",
              "name": "candAddress",
              "type": "address"
            },
            {
              "internalType": "string",
              "name": "name",
              "type": "string"
            },
            {
              "internalType": "string",
              "name": "proposal",
              "type": "string"
            },
            {
              "internalType": "uint256",
              "name": "votes",
              "type": "uint256"
            }
          ],
          "internalType": "struct VotingSystem.candidate",
          "name": "",
          "type": "tuple"
        }
      ],
      "stateMutability": "nonpayable",
      "type": "function"
    },
    {
      "inputs": [],
      "name": "getCandidates",
      "outputs": [
        {
          "components": [
            {
              "internalType": "address",
              "name": "candAddress",
              "type": "address"
            },
            {
              "internalType": "string",
              "name": "name",
              "type": "string"
            },
            {
              "internalType": "string",
              "name": "proposal",
              "type": "string"
            },
            {
              "internalType": "uint256",
              "name": "votes",
              "type": "uint256"
            }
          ],
          "internalType": "struct VotingSystem.candidate[]",
          "name": "",
          "type": "tuple[]"
        }
      ],
      "stateMutability": "view",
      "type": "function"
    },
    {
      "inputs": [],
      "name": "getVoters",
      "outputs": [
        {
          "components": [
            {
              "internalType": "address",
              "name": "voterAddress",
              "type": "address"
            },
            {
              "internalType": "string",
              "name": "name",
              "type": "string"
            },
            {
              "internalType": "bool",
              "name": "voted",
              "type": "bool"
            }
          ],
          "internalType": "struct VotingSystem.voter[]",
          "name": "",
          "type": "tuple[]"
        }
      ],
      "stateMutability": "view",
      "type": "function"
    },
    {
      "inputs": [
        {
          "internalType": "address",
          "name": "_ad",
          "type": "address"
        }
      ],
      "name": "isManager",
      "outputs": [
        {
          "internalType": "bool",
          "name": "",
          "type": "bool"
        }
      ],
      "stateMutability": "view",
      "type": "function"
    },
    {
      "inputs": [],
      "name": "startVoting",
      "outputs": [],
      "stateMutability": "nonpayable",
      "type": "function"
    },
    {
      "inputs": [
        {
          "internalType": "address",
          "name": "_candAddress",
          "type": "address"
        }
      ],
      "name": "voteCandidate",
      "outputs": [],
      "stateMutability": "nonpayable",
      "type": "function"
    },
    {
      "inputs": [
        {
          "internalType": "uint256",
          "name": "",
          "type": "uint256"
        }
      ],
      "name": "voterArr",
      "outputs": [
        {
          "internalType": "address",
          "name": "voterAddress",
          "type": "address"
        },
        {
          "internalType": "string",
          "name": "name",
          "type": "string"
        },
        {
          "internalType": "bool",
          "name": "voted",
          "type": "bool"
        }
      ],
      "stateMutability": "view",
      "type": "function"
    }
  ],
  "bytecode": "0x608060405234801561001057600080fd5b5033600260006101000a81548173ffffffffffffffffffffffffffffffffffffffff021916908373ffffffffffffffffffffffffffffffffffffffff160217905550612256806100616000396000f3fe608060405234801561001057600080fd5b506004361061009e5760003560e01c8063cdd7225311610066578063cdd7225314610138578063d9e95a9814610156578063e22a623114610172578063f2a3991c1461018e578063f3ae2415146101c05761009e565b806306a49fce146100a35780631ec6b60a146100c157806326bb886d146100cb5780637cabb274146100e7578063c3403ddf1461011a575b600080fd5b6100ab6101f0565b6040516100b89190611d47565b60405180910390f35b6100c96103d3565b005b6100e560048036038101906100e091906117c0565b61044a565b005b61010160048036038101906100fc91906118bc565b610a93565b6040516101119493929190611cf4565b60405180910390f35b610122610c03565b60405161012f9190611eb0565b60405180910390f35b610140610edc565b60405161014d9190611d69565b60405180910390f35b610170600480360381019061016b91906117e9565b61103e565b005b61018c6004803603810190610187919061183d565b61129a565b005b6101a860048036038101906101a391906118bc565b611504565b6040516101b793929190611cb6565b60405180910390f35b6101da60048036038101906101d591906117c0565b6115f3565b6040516101e79190611d8b565b60405180910390f35b60606000805480602002602001604051908101604052809291908181526020016000905b828210156103ca57838290600052602060002090600402016040518060800160405290816000820160009054906101000a900473ffffffffffffffffffffffffffffffffffffffff1673ffffffffffffffffffffffffffffffffffffffff1673ffffffffffffffffffffffffffffffffffffffff16815260200160018201805461029d906120d9565b80601f01602080910402602001604051908101604052809291908181526020018280546102c9906120d9565b80156103165780601f106102eb57610100808354040283529160200191610316565b820191906000526020600020905b8154815290600101906020018083116102f957829003601f168201915b5050505050815260200160028201805461032f906120d9565b80601f016020809104026020016040519081016040528092919081815260200182805461035b906120d9565b80156103a85780601f1061037d576101008083540402835291602001916103a8565b820191906000526020600020905b81548152906001019060200180831161038b57829003601f168201915b5050505050815260200160038201548152505081526020019060010190610214565b50505050905090565b600260009054906101000a900473ffffffffffffffffffffffffffffffffffffffff1673ffffffffffffffffffffffffffffffffffffffff163373ffffffffffffffffffffffffffffffffffffffff161461042d57600080fd5b6001600260146101000a81548160ff021916908315150217905550565b600260149054906101000a900460ff16610499576040517f08c379a000000000000000000000000000000000000000000000000000000000815260040161049090611e90565b60405180910390fd5b600260009054906101000a900473ffffffffffffffffffffffffffffffffffffffff1673ffffffffffffffffffffffffffffffffffffffff163373ffffffffffffffffffffffffffffffffffffffff1614156104f457600080fd5b60008060005b6001805490508110156105c15760018181548110610541577f4e487b7100000000000000000000000000000000000000000000000000000000600052603260045260246000fd5b906000526020600020906003020160000160009054906101000a900473ffffffffffffffffffffffffffffffffffffffff1673ffffffffffffffffffffffffffffffffffffffff163373ffffffffffffffffffffffffffffffffffffffff1614156105ae57809150600192505b80806105b99061210b565b9150506104fa565b50600182146105cf57600080fd5b60018181548110610609577f4e487b7100000000000000000000000000000000000000000000000000000000600052603260045260246000fd5b906000526020600020906003020160020160009054906101000a900460ff161561063257600080fd5b60005b600080549050811015610a8d576000818154811061067c577f4e487b7100000000000000000000000000000000000000000000000000000000600052603260045260246000fd5b906000526020600020906004020160000160009054906101000a900473ffffffffffffffffffffffffffffffffffffffff1673ffffffffffffffffffffffffffffffffffffffff168473ffffffffffffffffffffffffffffffffffffffff161415610a7a5760016000828154811061071d577f4e487b7100000000000000000000000000000000000000000000000000000000600052603260045260246000fd5b9060005260206000209060040201600301546107399190611fe7565b60008281548110610773577f4e487b7100000000000000000000000000000000000000000000000000000000600052603260045260246000fd5b90600052602060002090600402016003018190555060018083815481106107c3577f4e487b7100000000000000000000000000000000000000000000000000000000600052603260045260246000fd5b906000526020600020906003020160020160006101000a81548160ff0219169083151502179055508373ffffffffffffffffffffffffffffffffffffffff167fc7e9b5441428ea3adeaac63526e39b43f0105390be443ebe7cc976c304840ddd6000838154811061085d577f4e487b7100000000000000000000000000000000000000000000000000000000600052603260045260246000fd5b9060005260206000209060040201600101600084815481106108a8577f4e487b7100000000000000000000000000000000000000000000000000000000600052603260045260246000fd5b9060005260206000209060040201600201600085815481106108f3577f4e487b7100000000000000000000000000000000000000000000000000000000600052603260045260246000fd5b90600052602060002090600402016003015460405161091493929190611e4b565b60405180910390a260018181548110610956577f4e487b7100000000000000000000000000000000000000000000000000000000600052603260045260246000fd5b906000526020600020906003020160000160009054906101000a900473ffffffffffffffffffffffffffffffffffffffff1673ffffffffffffffffffffffffffffffffffffffff167fd1341ba54138fc2127191a51c3e4e2dc76e5ca995a4fa8044a609b6e5c4b2331600183815481106109f9577f4e487b7100000000000000000000000000000000000000000000000000000000600052603260045260246000fd5b906000526020600020906003020160010160018481548110610a44577f4e487b7100000000000000000000000000000000000000000000000000000000600052603260045260246000fd5b906000526020600020906003020160020160009054906101000a900460ff16604051610a71929190611e1b565b60405180910390a25b8080610a859061210b565b915050610635565b50505050565b60008181548110610aa357600080fd5b90600052602060002090600402016000915090508060000160009054906101000a900473ffffffffffffffffffffffffffffffffffffffff1690806001018054610aec906120d9565b80601f0160208091040260200160405190810160405280929190818152602001828054610b18906120d9565b8015610b655780601f10610b3a57610100808354040283529160200191610b65565b820191906000526020600020905b815481529060010190602001808311610b4857829003601f168201915b505050505090806002018054610b7a906120d9565b80601f0160208091040260200160405190810160405280929190818152602001828054610ba6906120d9565b8015610bf35780601f10610bc857610100808354040283529160200191610bf3565b820191906000526020600020905b815481529060010190602001808311610bd657829003601f168201915b5050505050908060030154905084565b610c0b61164d565b600260009054906101000a900473ffffffffffffffffffffffffffffffffffffffff1673ffffffffffffffffffffffffffffffffffffffff163373ffffffffffffffffffffffffffffffffffffffff1614610c6557600080fd5b6000600260146101000a81548160ff02191690831515021790555060008060005b600080549050811015610cfd5760008181548110610ccd577f4e487b7100000000000000000000000000000000000000000000000000000000600052603260045260246000fd5b906000526020600020906004020160030154831015610cea578091505b8080610cf59061210b565b915050610c86565b5060008181548110610d38577f4e487b7100000000000000000000000000000000000000000000000000000000600052603260045260246000fd5b90600052602060002090600402016040518060800160405290816000820160009054906101000a900473ffffffffffffffffffffffffffffffffffffffff1673ffffffffffffffffffffffffffffffffffffffff1673ffffffffffffffffffffffffffffffffffffffff168152602001600182018054610db7906120d9565b80601f0160208091040260200160405190810160405280929190818152602001828054610de3906120d9565b8015610e305780601f10610e0557610100808354040283529160200191610e30565b820191906000526020600020905b815481529060010190602001808311610e1357829003601f168201915b50505050508152602001600282018054610e49906120d9565b80601f0160208091040260200160405190810160405280929190818152602001828054610e75906120d9565b8015610ec25780601f10610e9757610100808354040283529160200191610ec2565b820191906000526020600020905b815481529060010190602001808311610ea557829003601f168201915b505050505081526020016003820154815250509250505090565b60606001805480602002602001604051908101604052809291908181526020016000905b8282101561103557838290600052602060002090600302016040518060600160405290816000820160009054906101000a900473ffffffffffffffffffffffffffffffffffffffff1673ffffffffffffffffffffffffffffffffffffffff1673ffffffffffffffffffffffffffffffffffffffff168152602001600182018054610f89906120d9565b80601f0160208091040260200160405190810160405280929190818152602001828054610fb5906120d9565b80156110025780601f10610fd757610100808354040283529160200191611002565b820191906000526020600020905b815481529060010190602001808311610fe557829003601f168201915b505050505081526020016002820160009054906101000a900460ff16151515158152505081526020019060010190610f00565b50505050905090565b600260009054906101000a900473ffffffffffffffffffffffffffffffffffffffff1673ffffffffffffffffffffffffffffffffffffffff163373ffffffffffffffffffffffffffffffffffffffff161461109857600080fd5b60005b60018054905081101561115f57600181815481106110e2577f4e487b7100000000000000000000000000000000000000000000000000000000600052603260045260246000fd5b906000526020600020906003020160000160009054906101000a900473ffffffffffffffffffffffffffffffffffffffff1673ffffffffffffffffffffffffffffffffffffffff168373ffffffffffffffffffffffffffffffffffffffff16141561114c57600080fd5b80806111579061210b565b91505061109b565b50600160405180606001604052808473ffffffffffffffffffffffffffffffffffffffff16815260200183815260200160001515815250908060018154018082558091505060019003906000526020600020906003020160009091909190915060008201518160000160006101000a81548173ffffffffffffffffffffffffffffffffffffffff021916908373ffffffffffffffffffffffffffffffffffffffff160217905550602082015181600101908051906020019061122292919061168b565b5060408201518160020160006101000a81548160ff02191690831515021790555050508173ffffffffffffffffffffffffffffffffffffffff167fd1341ba54138fc2127191a51c3e4e2dc76e5ca995a4fa8044a609b6e5c4b233182600060405161128e929190611da6565b60405180910390a25050565b600260009054906101000a900473ffffffffffffffffffffffffffffffffffffffff1673ffffffffffffffffffffffffffffffffffffffff163373ffffffffffffffffffffffffffffffffffffffff16146112f457600080fd5b60005b6000805490508110156113bb576000818154811061133e577f4e487b7100000000000000000000000000000000000000000000000000000000600052603260045260246000fd5b906000526020600020906004020160000160009054906101000a900473ffffffffffffffffffffffffffffffffffffffff1673ffffffffffffffffffffffffffffffffffffffff168473ffffffffffffffffffffffffffffffffffffffff1614156113a857600080fd5b80806113b39061210b565b9150506112f7565b50600060405180608001604052808573ffffffffffffffffffffffffffffffffffffffff1681526020018481526020018381526020016000815250908060018154018082558091505060019003906000526020600020906004020160009091909190915060008201518160000160006101000a81548173ffffffffffffffffffffffffffffffffffffffff021916908373ffffffffffffffffffffffffffffffffffffffff160217905550602082015181600101908051906020019061148292919061168b565b50604082015181600201908051906020019061149f92919061168b565b506060820151816003015550508273ffffffffffffffffffffffffffffffffffffffff167fc7e9b5441428ea3adeaac63526e39b43f0105390be443ebe7cc976c304840ddd838360006040516114f793929190611dd6565b60405180910390a2505050565b6001818154811061151457600080fd5b90600052602060002090600302016000915090508060000160009054906101000a900473ffffffffffffffffffffffffffffffffffffffff169080600101805461155d906120d9565b80601f0160208091040260200160405190810160405280929190818152602001828054611589906120d9565b80156115d65780601f106115ab576101008083540402835291602001916115d6565b820191906000526020600020905b8154815290600101906020018083116115b957829003601f168201915b5050505050908060020160009054906101000a900460ff16905083565b6000600260009054906101000a900473ffffffffffffffffffffffffffffffffffffffff1673ffffffffffffffffffffffffffffffffffffffff168273ffffffffffffffffffffffffffffffffffffffff16149050919050565b6040518060800160405280600073ffffffffffffffffffffffffffffffffffffffff1681526020016060815260200160608152602001600081525090565b828054611697906120d9565b90600052602060002090601f0160209004810192826116b95760008555611700565b82601f106116d257805160ff1916838001178555611700565b82800160010185558215611700579182015b828111156116ff5782518255916020019190600101906116e4565b5b50905061170d9190611711565b5090565b5b8082111561172a576000816000905550600101611712565b5090565b600061174161173c84611f03565b611ed2565b90508281526020810184848401111561175957600080fd5b611764848285612097565b509392505050565b60008135905061177b816121f2565b92915050565b600082601f83011261179257600080fd5b81356117a284826020860161172e565b91505092915050565b6000813590506117ba81612209565b92915050565b6000602082840312156117d257600080fd5b60006117e08482850161176c565b91505092915050565b600080604083850312156117fc57600080fd5b600061180a8582860161176c565b925050602083013567ffffffffffffffff81111561182757600080fd5b61183385828601611781565b9150509250929050565b60008060006060848603121561185257600080fd5b60006118608682870161176c565b935050602084013567ffffffffffffffff81111561187d57600080fd5b61188986828701611781565b925050604084013567ffffffffffffffff8111156118a657600080fd5b6118b286828701611781565b9150509250925092565b6000602082840312156118ce57600080fd5b60006118dc848285016117ab565b91505092915050565b60006118f18383611b74565b905092915050565b60006119058383611c48565b905092915050565b6119168161203d565b82525050565b6119258161203d565b82525050565b600061193682611f68565b6119408185611fa3565b93508360208202850161195285611f33565b8060005b8581101561198e578484038952815161196f85826118e5565b945061197a83611f89565b925060208a01995050600181019050611956565b50829750879550505050505092915050565b60006119ab82611f73565b6119b58185611fb4565b9350836020820285016119c785611f43565b8060005b85811015611a0357848403895281516119e485826118f9565b94506119ef83611f96565b925060208a019950506001810190506119cb565b50829750879550505050505092915050565b611a1e8161204f565b82525050565b611a2d8161204f565b82525050565b611a3c81612085565b82525050565b6000611a4d82611f7e565b611a578185611fc5565b9350611a678185602086016120a6565b611a70816121e1565b840191505092915050565b6000611a8682611f7e565b611a908185611fd6565b9350611aa08185602086016120a6565b611aa9816121e1565b840191505092915050565b60008154611ac1816120d9565b611acb8186611fd6565b94506001821660008114611ae65760018114611af857611b2b565b60ff1983168652602086019350611b2b565b611b0185611f53565b60005b83811015611b2357815481890152600182019150602081019050611b04565b808801955050505b50505092915050565b6000611b41601683611fd6565b91507f566f74696e67206e6f7420616c6c6f77656420796574000000000000000000006000830152602082019050919050565b6000608083016000830151611b8c600086018261190d565b5060208301518482036020860152611ba48282611a42565b91505060408301518482036040860152611bbe8282611a42565b9150506060830151611bd36060860182611c98565b508091505092915050565b6000608083016000830151611bf6600086018261190d565b5060208301518482036020860152611c0e8282611a42565b91505060408301518482036040860152611c288282611a42565b9150506060830151611c3d6060860182611c98565b508091505092915050565b6000606083016000830151611c60600086018261190d565b5060208301518482036020860152611c788282611a42565b9150506040830151611c8d6040860182611a15565b508091505092915050565b611ca18161207b565b82525050565b611cb08161207b565b82525050565b6000606082019050611ccb600083018661191c565b8181036020830152611cdd8185611a7b565b9050611cec6040830184611a24565b949350505050565b6000608082019050611d09600083018761191c565b8181036020830152611d1b8186611a7b565b90508181036040830152611d2f8185611a7b565b9050611d3e6060830184611ca7565b95945050505050565b60006020820190508181036000830152611d61818461192b565b905092915050565b60006020820190508181036000830152611d8381846119a0565b905092915050565b6000602082019050611da06000830184611a24565b92915050565b60006040820190508181036000830152611dc08185611a7b565b9050611dcf6020830184611a24565b9392505050565b60006060820190508181036000830152611df08186611a7b565b90508181036020830152611e048185611a7b565b9050611e136040830184611a33565b949350505050565b60006040820190508181036000830152611e358185611ab4565b9050611e446020830184611a24565b9392505050565b60006060820190508181036000830152611e658186611ab4565b90508181036020830152611e798185611ab4565b9050611e886040830184611ca7565b949350505050565b60006020820190508181036000830152611ea981611b34565b9050919050565b60006020820190508181036000830152611eca8184611bde565b905092915050565b6000604051905081810181811067ffffffffffffffff82111715611ef957611ef86121b2565b5b8060405250919050565b600067ffffffffffffffff821115611f1e57611f1d6121b2565b5b601f19601f8301169050602081019050919050565b6000819050602082019050919050565b6000819050602082019050919050565b60008190508160005260206000209050919050565b600081519050919050565b600081519050919050565b600081519050919050565b6000602082019050919050565b6000602082019050919050565b600082825260208201905092915050565b600082825260208201905092915050565b600082825260208201905092915050565b600082825260208201905092915050565b6000611ff28261207b565b9150611ffd8361207b565b9250827fffffffffffffffffffffffffffffffffffffffffffffffffffffffffffffffff0382111561203257612031612154565b5b828201905092915050565b60006120488261205b565b9050919050565b60008115159050919050565b600073ffffffffffffffffffffffffffffffffffffffff82169050919050565b6000819050919050565b60006120908261207b565b9050919050565b82818337600083830152505050565b60005b838110156120c45780820151818401526020810190506120a9565b838111156120d3576000848401525b50505050565b600060028204905060018216806120f157607f821691505b6020821081141561210557612104612183565b5b50919050565b60006121168261207b565b91507fffffffffffffffffffffffffffffffffffffffffffffffffffffffffffffffff82141561214957612148612154565b5b600182019050919050565b7f4e487b7100000000000000000000000000000000000000000000000000000000600052601160045260246000fd5b7f4e487b7100000000000000000000000000000000000000000000000000000000600052602260045260246000fd5b7f4e487b7100000000000000000000000000000000000000000000000000000000600052604160045260246000fd5b6000601f19601f8301169050919050565b6121fb8161203d565b811461220657600080fd5b50565b6122128161207b565b811461221d57600080fd5b5056fea2646970667358221220d4e9456056515e778c00160968dc33d0c6a1d8ea64f32bc02f8aa3405e6c7b6364736f6c63430008000033",
  "linkReferences": {},
  "deployedLinkReferences": {}
}