{
  "_format": "hh-sol-artifact-1",
  "contractName": "VotingSystem",
  "sourceName": "contracts/VotingSystem.sol",
  "abi": [
    {
      "inputs": [],
      "stateMutability": "nonpayable",
      "type": "constructor"
    },
    {
      "anonymous": false,
      "inputs": [
        {
          "indexed": true,
          "internalType": "address",
          "name": "candAdd",
          "type": "address"
        },
        {
          "indexed": false,
          "internalType": "string",
          "name": "name",
          "type": "string"
        },
        {
          "indexed": false,
          "internalType": "string",
          "name": "proposal",
          "type": "string"
        },
        {
          "indexed": false,
          "internalType": "uint256",
          "name": "votes",
          "type": "uint256"
        }
      ],
      "name": "NewCandidate",
      "type": "event"
    },
    {
      "anonymous": false,
      "inputs": [
        {
          "indexed": true,
          "internalType": "address",
          "name": "voterAdd",
          "type": "address"
        },
        {
          "indexed": false,
          "internalType": "string",
          "name": "name",
          "type": "string"
        },
        {
          "indexed": false,
          "internalType": "bool",
          "name": "voted",
          "type": "bool"
        }
      ],
      "name": "NewVoter",
      "type": "event"
    },
    {
      "inputs": [
        {
          "internalType": "address",
          "name": "_candAddress",
          "type": "address"
        },
        {
          "internalType": "string",
          "name": "_candName",
          "type": "string"
        },
        {
          "internalType": "string",
          "name": "_candProposal",
          "type": "string"
        }
      ],
      "name": "addCandidate",
      "outputs": [],
      "stateMutability": "nonpayable",
      "type": "function"
    },
    {
      "inputs": [
        {
          "internalType": "address",
          "name": "_voterAddress",
          "type": "address"
        },
        {
          "internalType": "string",
          "name": "_voterName",
          "type": "string"
        }
      ],
      "name": "addVoter",
      "outputs": [],
      "stateMutability": "nonpayable",
      "type": "function"
    },
    {
      "inputs": [
        {
          "internalType": "uint256",
          "name": "",
          "type": "uint256"
        }
      ],
      "name": "candArr",
      "outputs": [
        {
          "internalType": "address",
          "name": "candAddress",
          "type": "address"
        },
        {
          "internalType": "string",
          "name": "name",
          "type": "string"
        },
        {
          "internalType": "string",
          "name": "proposal",
          "type": "string"
        },
        {
          "internalType": "uint256",
          "name": "votes",
          "type": "uint256"
        }
      ],
      "stateMutability": "view",
      "type": "function"
    },
    {
      "inputs": [],
      "name": "candWinner",
      "outputs": [
        {
          "internalType": "address",
          "name": "_candAddress",
          "type": "address"
        },
        {
          "internalType": "string",
          "name": "_name",
          "type": "string"
        },
        {
          "internalType": "string",
          "name": "_proposal",
          "type": "string"
        },
        {
          "internalType": "uint256",
          "name": "_votes",
          "type": "uint256"
        }
      ],
      "stateMutability": "view",
      "type": "function"
    },
    {
      "inputs": [],
      "name": "endVoting",
      "outputs": [],
      "stateMutability": "nonpayable",
      "type": "function"
    },
    {
      "inputs": [],
      "name": "getCandidates",
      "outputs": [
        {
          "components": [
            {
              "internalType": "address",
              "name": "candAddress",
              "type": "address"
            },
            {
              "internalType": "string",
              "name": "name",
              "type": "string"
            },
            {
              "internalType": "string",
              "name": "proposal",
              "type": "string"
            },
            {
              "internalType": "uint256",
              "name": "votes",
              "type": "uint256"
            }
          ],
          "internalType": "struct VotingSystem.candidate[]",
          "name": "",
          "type": "tuple[]"
        }
      ],
      "stateMutability": "view",
      "type": "function"
    },
    {
      "inputs": [],
      "name": "getVoters",
      "outputs": [
        {
          "components": [
            {
              "internalType": "address",
              "name": "voterAddress",
              "type": "address"
            },
            {
              "internalType": "string",
              "name": "name",
              "type": "string"
            },
            {
              "internalType": "bool",
              "name": "voted",
              "type": "bool"
            }
          ],
          "internalType": "struct VotingSystem.voter[]",
          "name": "",
          "type": "tuple[]"
        }
      ],
      "stateMutability": "view",
      "type": "function"
    },
    {
      "inputs": [
        {
          "internalType": "address",
          "name": "_ad",
          "type": "address"
        }
      ],
      "name": "isManager",
      "outputs": [
        {
          "internalType": "bool",
          "name": "",
          "type": "bool"
        }
      ],
      "stateMutability": "view",
      "type": "function"
    },
    {
      "inputs": [],
      "name": "resetCandidates",
      "outputs": [],
      "stateMutability": "nonpayable",
      "type": "function"
    },
    {
      "inputs": [],
      "name": "resetVoters",
      "outputs": [],
      "stateMutability": "nonpayable",
      "type": "function"
    },
    {
      "inputs": [],
      "name": "startVoting",
      "outputs": [],
      "stateMutability": "nonpayable",
      "type": "function"
    },
    {
      "inputs": [
        {
          "internalType": "address",
          "name": "_candAddress",
          "type": "address"
        }
      ],
      "name": "voteCandidate",
      "outputs": [],
      "stateMutability": "nonpayable",
      "type": "function"
    },
    {
      "inputs": [
        {
          "internalType": "uint256",
          "name": "",
          "type": "uint256"
        }
      ],
      "name": "voterArr",
      "outputs": [
        {
          "internalType": "address",
          "name": "voterAddress",
          "type": "address"
        },
        {
          "internalType": "string",
          "name": "name",
          "type": "string"
        },
        {
          "internalType": "bool",
          "name": "voted",
          "type": "bool"
        }
      ],
      "stateMutability": "view",
      "type": "function"
    },
    {
      "inputs": [],
      "name": "votingStatus",
      "outputs": [
        {
          "internalType": "bool",
          "name": "voteAllow",
          "type": "bool"
        }
      ],
      "stateMutability": "view",
      "type": "function"
    }
  ],
  "bytecode": "0x608060405234801561001057600080fd5b5033600260006101000a81548173ffffffffffffffffffffffffffffffffffffffff021916908373ffffffffffffffffffffffffffffffffffffffff16021790555061216c806100616000396000f3fe608060405234801561001057600080fd5b50600436106100ea5760003560e01c80637cabb2741161008c578063d9e95a9811610066578063d9e95a98146101e1578063e22a6231146101fd578063f2a3991c14610219578063f3ae24151461024b576100ea565b80637cabb27414610186578063c3403ddf146101b9578063cdd72253146101c3576100ea565b806326bb886d116100c857806326bb886d146101355780632f08a7b314610151578063553bd397146101725780637718d9f31461017c576100ea565b806306a49fce146100ef57806319f41a401461010d5780631ec6b60a1461012b575b600080fd5b6100f761027b565b6040516101049190611d09565b60405180910390f35b61011561045e565b6040516101229190611d4d565b60405180910390f35b610133610475565b005b61014f600480360381019061014a919061186c565b6104ec565b005b6101596108a7565b6040516101699493929190611cb6565b60405180910390f35b61017a610bbc565b005b610184610c26565b005b6101a0600480360381019061019b9190611968565b610c8f565b6040516101b09493929190611cb6565b60405180910390f35b6101c1610dff565b005b6101cb610e76565b6040516101d89190611d2b565b60405180910390f35b6101fb60048036038101906101f69190611895565b610fd8565b005b610217600480360381019061021291906118e9565b611234565b005b610233600480360381019061022e9190611968565b61149e565b60405161024293929190611c78565b60405180910390f35b6102656004803603810190610260919061186c565b61158d565b6040516102729190611d4d565b60405180910390f35b60606000805480602002602001604051908101604052809291908181526020016000905b8282101561045557838290600052602060002090600402016040518060800160405290816000820160009054906101000a900473ffffffffffffffffffffffffffffffffffffffff1673ffffffffffffffffffffffffffffffffffffffff1673ffffffffffffffffffffffffffffffffffffffff16815260200160018201805461032890611fef565b80601f016020809104026020016040519081016040528092919081815260200182805461035490611fef565b80156103a15780601f10610376576101008083540402835291602001916103a1565b820191906000526020600020905b81548152906001019060200180831161038457829003601f168201915b505050505081526020016002820180546103ba90611fef565b80601f01602080910402602001604051908101604052809291908181526020018280546103e690611fef565b80156104335780601f1061040857610100808354040283529160200191610433565b820191906000526020600020905b81548152906001019060200180831161041657829003601f168201915b505050505081526020016003820154815250508152602001906001019061029f565b50505050905090565b6000600260149054906101000a900460ff16905090565b600260009054906101000a900473ffffffffffffffffffffffffffffffffffffffff1673ffffffffffffffffffffffffffffffffffffffff163373ffffffffffffffffffffffffffffffffffffffff16146104cf57600080fd5b6001600260146101000a81548160ff021916908315150217905550565b600260149054906101000a900460ff1661053b576040517f08c379a000000000000000000000000000000000000000000000000000000000815260040161053290611ddd565b60405180910390fd5b600260009054906101000a900473ffffffffffffffffffffffffffffffffffffffff1673ffffffffffffffffffffffffffffffffffffffff163373ffffffffffffffffffffffffffffffffffffffff16141561059657600080fd5b60008060005b60018054905081101561066357600181815481106105e3577f4e487b7100000000000000000000000000000000000000000000000000000000600052603260045260246000fd5b906000526020600020906003020160000160009054906101000a900473ffffffffffffffffffffffffffffffffffffffff1673ffffffffffffffffffffffffffffffffffffffff163373ffffffffffffffffffffffffffffffffffffffff16141561065057809150600192505b808061065b90612021565b91505061059c565b506001821461067157600080fd5b600181815481106106ab577f4e487b7100000000000000000000000000000000000000000000000000000000600052603260045260246000fd5b906000526020600020906003020160020160009054906101000a900460ff16156106d457600080fd5b60005b6000805490508110156108a1576000818154811061071e577f4e487b7100000000000000000000000000000000000000000000000000000000600052603260045260246000fd5b906000526020600020906004020160000160009054906101000a900473ffffffffffffffffffffffffffffffffffffffff1673ffffffffffffffffffffffffffffffffffffffff168473ffffffffffffffffffffffffffffffffffffffff16141561088e576001600082815481106107bf577f4e487b7100000000000000000000000000000000000000000000000000000000600052603260045260246000fd5b9060005260206000209060040201600301546107db9190611efd565b60008281548110610815577f4e487b7100000000000000000000000000000000000000000000000000000000600052603260045260246000fd5b9060005260206000209060040201600301819055506001808381548110610865577f4e487b7100000000000000000000000000000000000000000000000000000000600052603260045260246000fd5b906000526020600020906003020160020160006101000a81548160ff0219169083151502179055505b808061089990612021565b9150506106d7565b50505050565b60006060806000600260149054906101000a900460ff16156108c857600080fd5b60008060005b6000805490508110156109455760008181548110610915577f4e487b7100000000000000000000000000000000000000000000000000000000600052603260045260246000fd5b906000526020600020906004020160030154831015610932578091505b808061093d90612021565b9150506108ce565b5060008181548110610980577f4e487b7100000000000000000000000000000000000000000000000000000000600052603260045260246000fd5b906000526020600020906004020160000160009054906101000a900473ffffffffffffffffffffffffffffffffffffffff16600082815481106109ec577f4e487b7100000000000000000000000000000000000000000000000000000000600052603260045260246000fd5b906000526020600020906004020160010160008381548110610a37577f4e487b7100000000000000000000000000000000000000000000000000000000600052603260045260246000fd5b906000526020600020906004020160020160008481548110610a82577f4e487b7100000000000000000000000000000000000000000000000000000000600052603260045260246000fd5b906000526020600020906004020160030154828054610aa090611fef565b80601f0160208091040260200160405190810160405280929190818152602001828054610acc90611fef565b8015610b195780601f10610aee57610100808354040283529160200191610b19565b820191906000526020600020905b815481529060010190602001808311610afc57829003601f168201915b50505050509250818054610b2c90611fef565b80601f0160208091040260200160405190810160405280929190818152602001828054610b5890611fef565b8015610ba55780601f10610b7a57610100808354040283529160200191610ba5565b820191906000526020600020905b815481529060010190602001808311610b8857829003601f168201915b505050505091509550955095509550505090919293565b600260009054906101000a900473ffffffffffffffffffffffffffffffffffffffff1673ffffffffffffffffffffffffffffffffffffffff163373ffffffffffffffffffffffffffffffffffffffff1614610c1657600080fd5b60016000610c2491906115e7565b565b600260009054906101000a900473ffffffffffffffffffffffffffffffffffffffff1673ffffffffffffffffffffffffffffffffffffffff163373ffffffffffffffffffffffffffffffffffffffff1614610c8057600080fd5b600080610c8d919061160b565b565b60008181548110610c9f57600080fd5b90600052602060002090600402016000915090508060000160009054906101000a900473ffffffffffffffffffffffffffffffffffffffff1690806001018054610ce890611fef565b80601f0160208091040260200160405190810160405280929190818152602001828054610d1490611fef565b8015610d615780601f10610d3657610100808354040283529160200191610d61565b820191906000526020600020905b815481529060010190602001808311610d4457829003601f168201915b505050505090806002018054610d7690611fef565b80601f0160208091040260200160405190810160405280929190818152602001828054610da290611fef565b8015610def5780601f10610dc457610100808354040283529160200191610def565b820191906000526020600020905b815481529060010190602001808311610dd257829003601f168201915b5050505050908060030154905084565b600260009054906101000a900473ffffffffffffffffffffffffffffffffffffffff1673ffffffffffffffffffffffffffffffffffffffff163373ffffffffffffffffffffffffffffffffffffffff1614610e5957600080fd5b6000600260146101000a81548160ff021916908315150217905550565b60606001805480602002602001604051908101604052809291908181526020016000905b82821015610fcf57838290600052602060002090600302016040518060600160405290816000820160009054906101000a900473ffffffffffffffffffffffffffffffffffffffff1673ffffffffffffffffffffffffffffffffffffffff1673ffffffffffffffffffffffffffffffffffffffff168152602001600182018054610f2390611fef565b80601f0160208091040260200160405190810160405280929190818152602001828054610f4f90611fef565b8015610f9c5780601f10610f7157610100808354040283529160200191610f9c565b820191906000526020600020905b815481529060010190602001808311610f7f57829003601f168201915b505050505081526020016002820160009054906101000a900460ff16151515158152505081526020019060010190610e9a565b50505050905090565b600260009054906101000a900473ffffffffffffffffffffffffffffffffffffffff1673ffffffffffffffffffffffffffffffffffffffff163373ffffffffffffffffffffffffffffffffffffffff161461103257600080fd5b60005b6001805490508110156110f9576001818154811061107c577f4e487b7100000000000000000000000000000000000000000000000000000000600052603260045260246000fd5b906000526020600020906003020160000160009054906101000a900473ffffffffffffffffffffffffffffffffffffffff1673ffffffffffffffffffffffffffffffffffffffff168373ffffffffffffffffffffffffffffffffffffffff1614156110e657600080fd5b80806110f190612021565b915050611035565b50600160405180606001604052808473ffffffffffffffffffffffffffffffffffffffff16815260200183815260200160001515815250908060018154018082558091505060019003906000526020600020906003020160009091909190915060008201518160000160006101000a81548173ffffffffffffffffffffffffffffffffffffffff021916908373ffffffffffffffffffffffffffffffffffffffff16021790555060208201518160010190805190602001906111bc92919061162f565b5060408201518160020160006101000a81548160ff02191690831515021790555050508173ffffffffffffffffffffffffffffffffffffffff167fd1341ba54138fc2127191a51c3e4e2dc76e5ca995a4fa8044a609b6e5c4b2331826000604051611228929190611d68565b60405180910390a25050565b600260009054906101000a900473ffffffffffffffffffffffffffffffffffffffff1673ffffffffffffffffffffffffffffffffffffffff163373ffffffffffffffffffffffffffffffffffffffff161461128e57600080fd5b60005b60008054905081101561135557600081815481106112d8577f4e487b7100000000000000000000000000000000000000000000000000000000600052603260045260246000fd5b906000526020600020906004020160000160009054906101000a900473ffffffffffffffffffffffffffffffffffffffff1673ffffffffffffffffffffffffffffffffffffffff168473ffffffffffffffffffffffffffffffffffffffff16141561134257600080fd5b808061134d90612021565b915050611291565b50600060405180608001604052808573ffffffffffffffffffffffffffffffffffffffff1681526020018481526020018381526020016000815250908060018154018082558091505060019003906000526020600020906004020160009091909190915060008201518160000160006101000a81548173ffffffffffffffffffffffffffffffffffffffff021916908373ffffffffffffffffffffffffffffffffffffffff160217905550602082015181600101908051906020019061141c92919061162f565b50604082015181600201908051906020019061143992919061162f565b506060820151816003015550508273ffffffffffffffffffffffffffffffffffffffff167fc7e9b5441428ea3adeaac63526e39b43f0105390be443ebe7cc976c304840ddd8383600060405161149193929190611d98565b60405180910390a2505050565b600181815481106114ae57600080fd5b90600052602060002090600302016000915090508060000160009054906101000a900473ffffffffffffffffffffffffffffffffffffffff16908060010180546114f790611fef565b80601f016020809104026020016040519081016040528092919081815260200182805461152390611fef565b80156115705780601f1061154557610100808354040283529160200191611570565b820191906000526020600020905b81548152906001019060200180831161155357829003601f168201915b5050505050908060020160009054906101000a900460ff16905083565b6000600260009054906101000a900473ffffffffffffffffffffffffffffffffffffffff1673ffffffffffffffffffffffffffffffffffffffff168273ffffffffffffffffffffffffffffffffffffffff16149050919050565b508054600082556003029060005260206000209081019061160891906116b5565b50565b508054600082556004029060005260206000209081019061162c9190611717565b50565b82805461163b90611fef565b90600052602060002090601f01602090048101928261165d57600085556116a4565b82601f1061167657805160ff19168380011785556116a4565b828001600101855582156116a4579182015b828111156116a3578251825591602001919060010190611688565b5b5090506116b1919061177d565b5090565b5b8082111561171357600080820160006101000a81549073ffffffffffffffffffffffffffffffffffffffff02191690556001820160006116f6919061179a565b6002820160006101000a81549060ff0219169055506003016116b6565b5090565b5b8082111561177957600080820160006101000a81549073ffffffffffffffffffffffffffffffffffffffff0219169055600182016000611758919061179a565b600282016000611768919061179a565b600382016000905550600401611718565b5090565b5b8082111561179657600081600090555060010161177e565b5090565b5080546117a690611fef565b6000825580601f106117b857506117d7565b601f0160209004906000526020600020908101906117d6919061177d565b5b50565b60006117ed6117e884611e2e565b611dfd565b90508281526020810184848401111561180557600080fd5b611810848285611fad565b509392505050565b60008135905061182781612108565b92915050565b600082601f83011261183e57600080fd5b813561184e8482602086016117da565b91505092915050565b6000813590506118668161211f565b92915050565b60006020828403121561187e57600080fd5b600061188c84828501611818565b91505092915050565b600080604083850312156118a857600080fd5b60006118b685828601611818565b925050602083013567ffffffffffffffff8111156118d357600080fd5b6118df8582860161182d565b9150509250929050565b6000806000606084860312156118fe57600080fd5b600061190c86828701611818565b935050602084013567ffffffffffffffff81111561192957600080fd5b6119358682870161182d565b925050604084013567ffffffffffffffff81111561195257600080fd5b61195e8682870161182d565b9150509250925092565b60006020828403121561197a57600080fd5b600061198884828501611857565b91505092915050565b600061199d8383611ba0565b905092915050565b60006119b18383611c0a565b905092915050565b6119c281611f53565b82525050565b6119d181611f53565b82525050565b60006119e282611e7e565b6119ec8185611eb9565b9350836020820285016119fe85611e5e565b8060005b85811015611a3a5784840389528151611a1b8582611991565b9450611a2683611e9f565b925060208a01995050600181019050611a02565b50829750879550505050505092915050565b6000611a5782611e89565b611a618185611eca565b935083602082028501611a7385611e6e565b8060005b85811015611aaf5784840389528151611a9085826119a5565b9450611a9b83611eac565b925060208a01995050600181019050611a77565b50829750879550505050505092915050565b611aca81611f65565b82525050565b611ad981611f65565b82525050565b611ae881611f9b565b82525050565b6000611af982611e94565b611b038185611edb565b9350611b13818560208601611fbc565b611b1c816120f7565b840191505092915050565b6000611b3282611e94565b611b3c8185611eec565b9350611b4c818560208601611fbc565b611b55816120f7565b840191505092915050565b6000611b6d601683611eec565b91507f566f74696e67206e6f7420616c6c6f77656420796574000000000000000000006000830152602082019050919050565b6000608083016000830151611bb860008601826119b9565b5060208301518482036020860152611bd08282611aee565b91505060408301518482036040860152611bea8282611aee565b9150506060830151611bff6060860182611c5a565b508091505092915050565b6000606083016000830151611c2260008601826119b9565b5060208301518482036020860152611c3a8282611aee565b9150506040830151611c4f6040860182611ac1565b508091505092915050565b611c6381611f91565b82525050565b611c7281611f91565b82525050565b6000606082019050611c8d60008301866119c8565b8181036020830152611c9f8185611b27565b9050611cae6040830184611ad0565b949350505050565b6000608082019050611ccb60008301876119c8565b8181036020830152611cdd8186611b27565b90508181036040830152611cf18185611b27565b9050611d006060830184611c69565b95945050505050565b60006020820190508181036000830152611d2381846119d7565b905092915050565b60006020820190508181036000830152611d458184611a4c565b905092915050565b6000602082019050611d626000830184611ad0565b92915050565b60006040820190508181036000830152611d828185611b27565b9050611d916020830184611ad0565b9392505050565b60006060820190508181036000830152611db28186611b27565b90508181036020830152611dc68185611b27565b9050611dd56040830184611adf565b949350505050565b60006020820190508181036000830152611df681611b60565b9050919050565b6000604051905081810181811067ffffffffffffffff82111715611e2457611e236120c8565b5b8060405250919050565b600067ffffffffffffffff821115611e4957611e486120c8565b5b601f19601f8301169050602081019050919050565b6000819050602082019050919050565b6000819050602082019050919050565b600081519050919050565b600081519050919050565b600081519050919050565b6000602082019050919050565b6000602082019050919050565b600082825260208201905092915050565b600082825260208201905092915050565b600082825260208201905092915050565b600082825260208201905092915050565b6000611f0882611f91565b9150611f1383611f91565b9250827fffffffffffffffffffffffffffffffffffffffffffffffffffffffffffffffff03821115611f4857611f4761206a565b5b828201905092915050565b6000611f5e82611f71565b9050919050565b60008115159050919050565b600073ffffffffffffffffffffffffffffffffffffffff82169050919050565b6000819050919050565b6000611fa682611f91565b9050919050565b82818337600083830152505050565b60005b83811015611fda578082015181840152602081019050611fbf565b83811115611fe9576000848401525b50505050565b6000600282049050600182168061200757607f821691505b6020821081141561201b5761201a612099565b5b50919050565b600061202c82611f91565b91507fffffffffffffffffffffffffffffffffffffffffffffffffffffffffffffffff82141561205f5761205e61206a565b5b600182019050919050565b7f4e487b7100000000000000000000000000000000000000000000000000000000600052601160045260246000fd5b7f4e487b7100000000000000000000000000000000000000000000000000000000600052602260045260246000fd5b7f4e487b7100000000000000000000000000000000000000000000000000000000600052604160045260246000fd5b6000601f19601f8301169050919050565b61211181611f53565b811461211c57600080fd5b50565b61212881611f91565b811461213357600080fd5b5056fea26469706673582212205470e0defbaba7e8056d3616f05c7f5690eb31d86e3a27a632e98dd8b97e856e64736f6c63430008000033",
  "linkReferences": {},
  "deployedLinkReferences": {}
}