{
  "_format": "hh-sol-artifact-1",
  "contractName": "VotingSystem",
  "sourceName": "contracts/VotingSystem.sol",
  "abi": [
    {
      "inputs": [],
      "stateMutability": "nonpayable",
      "type": "constructor"
    },
    {
      "anonymous": false,
      "inputs": [
        {
          "indexed": true,
          "internalType": "address",
          "name": "owner",
          "type": "address"
        },
        {
          "indexed": true,
          "internalType": "address",
          "name": "approved",
          "type": "address"
        },
        {
          "indexed": true,
          "internalType": "uint256",
          "name": "tokenId",
          "type": "uint256"
        }
      ],
      "name": "Approval",
      "type": "event"
    },
    {
      "anonymous": false,
      "inputs": [
        {
          "indexed": true,
          "internalType": "address",
          "name": "owner",
          "type": "address"
        },
        {
          "indexed": true,
          "internalType": "address",
          "name": "operator",
          "type": "address"
        },
        {
          "indexed": false,
          "internalType": "bool",
          "name": "approved",
          "type": "bool"
        }
      ],
      "name": "ApprovalForAll",
      "type": "event"
    },
    {
      "anonymous": false,
      "inputs": [
        {
          "indexed": true,
          "internalType": "address",
          "name": "candAdd",
          "type": "address"
        },
        {
          "indexed": false,
          "internalType": "string",
          "name": "name",
          "type": "string"
        },
        {
          "indexed": false,
          "internalType": "string",
          "name": "proposal",
          "type": "string"
        },
        {
          "indexed": false,
          "internalType": "uint256",
          "name": "votes",
          "type": "uint256"
        }
      ],
      "name": "NewCandidate",
      "type": "event"
    },
    {
      "anonymous": false,
      "inputs": [
        {
          "indexed": true,
          "internalType": "address",
          "name": "voterAdd",
          "type": "address"
        },
        {
          "indexed": false,
          "internalType": "string",
          "name": "name",
          "type": "string"
        },
        {
          "indexed": false,
          "internalType": "bool",
          "name": "voted",
          "type": "bool"
        }
      ],
      "name": "NewVoter",
      "type": "event"
    },
    {
      "anonymous": false,
      "inputs": [
        {
          "indexed": true,
          "internalType": "address",
          "name": "from",
          "type": "address"
        },
        {
          "indexed": true,
          "internalType": "address",
          "name": "to",
          "type": "address"
        },
        {
          "indexed": true,
          "internalType": "uint256",
          "name": "tokenId",
          "type": "uint256"
        }
      ],
      "name": "Transfer",
      "type": "event"
    },
    {
      "inputs": [
        {
          "internalType": "address",
          "name": "_candAddress",
          "type": "address"
        },
        {
          "internalType": "string",
          "name": "_candName",
          "type": "string"
        },
        {
          "internalType": "string",
          "name": "_candProposal",
          "type": "string"
        }
      ],
      "name": "addCandidate",
      "outputs": [],
      "stateMutability": "nonpayable",
      "type": "function"
    },
    {
      "inputs": [
        {
          "internalType": "address",
          "name": "_voterAddress",
          "type": "address"
        },
        {
          "internalType": "string",
          "name": "_voterName",
          "type": "string"
        }
      ],
      "name": "addVoter",
      "outputs": [],
      "stateMutability": "nonpayable",
      "type": "function"
    },
    {
      "inputs": [
        {
          "internalType": "address",
          "name": "to",
          "type": "address"
        },
        {
          "internalType": "uint256",
          "name": "tokenId",
          "type": "uint256"
        }
      ],
      "name": "approve",
      "outputs": [],
      "stateMutability": "nonpayable",
      "type": "function"
    },
    {
      "inputs": [
        {
          "internalType": "address",
          "name": "owner",
          "type": "address"
        }
      ],
      "name": "balanceOf",
      "outputs": [
        {
          "internalType": "uint256",
          "name": "",
          "type": "uint256"
        }
      ],
      "stateMutability": "view",
      "type": "function"
    },
    {
      "inputs": [
        {
          "internalType": "uint256",
          "name": "",
          "type": "uint256"
        }
      ],
      "name": "candArr",
      "outputs": [
        {
          "internalType": "address",
          "name": "candAddress",
          "type": "address"
        },
        {
          "internalType": "string",
          "name": "name",
          "type": "string"
        },
        {
          "internalType": "string",
          "name": "proposal",
          "type": "string"
        },
        {
          "internalType": "uint256",
          "name": "votes",
          "type": "uint256"
        }
      ],
      "stateMutability": "view",
      "type": "function"
    },
    {
      "inputs": [],
      "name": "candWinner",
      "outputs": [
        {
          "internalType": "address",
          "name": "_candAddress",
          "type": "address"
        },
        {
          "internalType": "string",
          "name": "_name",
          "type": "string"
        },
        {
          "internalType": "string",
          "name": "_proposal",
          "type": "string"
        },
        {
          "internalType": "uint256",
          "name": "_votes",
          "type": "uint256"
        }
      ],
      "stateMutability": "view",
      "type": "function"
    },
    {
      "inputs": [],
      "name": "endVoting",
      "outputs": [],
      "stateMutability": "nonpayable",
      "type": "function"
    },
    {
      "inputs": [
        {
          "internalType": "uint256",
          "name": "tokenId",
          "type": "uint256"
        }
      ],
      "name": "getApproved",
      "outputs": [
        {
          "internalType": "address",
          "name": "",
          "type": "address"
        }
      ],
      "stateMutability": "view",
      "type": "function"
    },
    {
      "inputs": [],
      "name": "getCandidates",
      "outputs": [
        {
          "components": [
            {
              "internalType": "address",
              "name": "candAddress",
              "type": "address"
            },
            {
              "internalType": "string",
              "name": "name",
              "type": "string"
            },
            {
              "internalType": "string",
              "name": "proposal",
              "type": "string"
            },
            {
              "internalType": "uint256",
              "name": "votes",
              "type": "uint256"
            }
          ],
          "internalType": "struct VotingSystem.candidate[]",
          "name": "",
          "type": "tuple[]"
        }
      ],
      "stateMutability": "view",
      "type": "function"
    },
    {
      "inputs": [],
      "name": "getTokenId",
      "outputs": [
        {
          "internalType": "uint256",
          "name": "Id",
          "type": "uint256"
        }
      ],
      "stateMutability": "view",
      "type": "function"
    },
    {
      "inputs": [],
      "name": "getVoters",
      "outputs": [
        {
          "components": [
            {
              "internalType": "address",
              "name": "voterAddress",
              "type": "address"
            },
            {
              "internalType": "string",
              "name": "name",
              "type": "string"
            },
            {
              "internalType": "bool",
              "name": "voted",
              "type": "bool"
            }
          ],
          "internalType": "struct VotingSystem.voter[]",
          "name": "",
          "type": "tuple[]"
        }
      ],
      "stateMutability": "view",
      "type": "function"
    },
    {
      "inputs": [
        {
          "internalType": "address",
          "name": "owner",
          "type": "address"
        },
        {
          "internalType": "address",
          "name": "operator",
          "type": "address"
        }
      ],
      "name": "isApprovedForAll",
      "outputs": [
        {
          "internalType": "bool",
          "name": "",
          "type": "bool"
        }
      ],
      "stateMutability": "view",
      "type": "function"
    },
    {
      "inputs": [
        {
          "internalType": "address",
          "name": "_ad",
          "type": "address"
        }
      ],
      "name": "isManager",
      "outputs": [
        {
          "internalType": "bool",
          "name": "",
          "type": "bool"
        }
      ],
      "stateMutability": "view",
      "type": "function"
    },
    {
      "inputs": [
        {
          "internalType": "string",
          "name": "tokenUri",
          "type": "string"
        },
        {
          "internalType": "address",
          "name": "_recieverAdd",
          "type": "address"
        }
      ],
      "name": "makeAnEpicNFT",
      "outputs": [],
      "stateMutability": "nonpayable",
      "type": "function"
    },
    {
      "inputs": [],
      "name": "name",
      "outputs": [
        {
          "internalType": "string",
          "name": "",
          "type": "string"
        }
      ],
      "stateMutability": "view",
      "type": "function"
    },
    {
      "inputs": [
        {
          "internalType": "uint256",
          "name": "tokenId",
          "type": "uint256"
        }
      ],
      "name": "ownerOf",
      "outputs": [
        {
          "internalType": "address",
          "name": "",
          "type": "address"
        }
      ],
      "stateMutability": "view",
      "type": "function"
    },
    {
      "inputs": [],
      "name": "resetCandidates",
      "outputs": [],
      "stateMutability": "nonpayable",
      "type": "function"
    },
    {
      "inputs": [],
      "name": "resetVoters",
      "outputs": [],
      "stateMutability": "nonpayable",
      "type": "function"
    },
    {
      "inputs": [
        {
          "internalType": "address",
          "name": "from",
          "type": "address"
        },
        {
          "internalType": "address",
          "name": "to",
          "type": "address"
        },
        {
          "internalType": "uint256",
          "name": "tokenId",
          "type": "uint256"
        }
      ],
      "name": "safeTransferFrom",
      "outputs": [],
      "stateMutability": "nonpayable",
      "type": "function"
    },
    {
      "inputs": [
        {
          "internalType": "address",
          "name": "from",
          "type": "address"
        },
        {
          "internalType": "address",
          "name": "to",
          "type": "address"
        },
        {
          "internalType": "uint256",
          "name": "tokenId",
          "type": "uint256"
        },
        {
          "internalType": "bytes",
          "name": "_data",
          "type": "bytes"
        }
      ],
      "name": "safeTransferFrom",
      "outputs": [],
      "stateMutability": "nonpayable",
      "type": "function"
    },
    {
      "inputs": [
        {
          "internalType": "address",
          "name": "operator",
          "type": "address"
        },
        {
          "internalType": "bool",
          "name": "approved",
          "type": "bool"
        }
      ],
      "name": "setApprovalForAll",
      "outputs": [],
      "stateMutability": "nonpayable",
      "type": "function"
    },
    {
      "inputs": [],
      "name": "startVoting",
      "outputs": [],
      "stateMutability": "nonpayable",
      "type": "function"
    },
    {
      "inputs": [
        {
          "internalType": "bytes4",
          "name": "interfaceId",
          "type": "bytes4"
        }
      ],
      "name": "supportsInterface",
      "outputs": [
        {
          "internalType": "bool",
          "name": "",
          "type": "bool"
        }
      ],
      "stateMutability": "view",
      "type": "function"
    },
    {
      "inputs": [],
      "name": "symbol",
      "outputs": [
        {
          "internalType": "string",
          "name": "",
          "type": "string"
        }
      ],
      "stateMutability": "view",
      "type": "function"
    },
    {
      "inputs": [
        {
          "internalType": "uint256",
          "name": "tokenId",
          "type": "uint256"
        }
      ],
      "name": "tokenURI",
      "outputs": [
        {
          "internalType": "string",
          "name": "",
          "type": "string"
        }
      ],
      "stateMutability": "view",
      "type": "function"
    },
    {
      "inputs": [
        {
          "internalType": "address",
          "name": "from",
          "type": "address"
        },
        {
          "internalType": "address",
          "name": "to",
          "type": "address"
        },
        {
          "internalType": "uint256",
          "name": "tokenId",
          "type": "uint256"
        }
      ],
      "name": "transferFrom",
      "outputs": [],
      "stateMutability": "nonpayable",
      "type": "function"
    },
    {
      "inputs": [
        {
          "internalType": "address",
          "name": "_candAddress",
          "type": "address"
        }
      ],
      "name": "voteCandidate",
      "outputs": [],
      "stateMutability": "nonpayable",
      "type": "function"
    },
    {
      "inputs": [
        {
          "internalType": "uint256",
          "name": "",
          "type": "uint256"
        }
      ],
      "name": "voterArr",
      "outputs": [
        {
          "internalType": "address",
          "name": "voterAddress",
          "type": "address"
        },
        {
          "internalType": "string",
          "name": "name",
          "type": "string"
        },
        {
          "internalType": "bool",
          "name": "voted",
          "type": "bool"
        }
      ],
      "stateMutability": "view",
      "type": "function"
    },
    {
      "inputs": [],
      "name": "votingStatus",
      "outputs": [
        {
          "internalType": "bool",
          "name": "voteAllow",
          "type": "bool"
        }
      ],
      "stateMutability": "view",
      "type": "function"
    }
  ],
  "bytecode": "0x60806040523480156200001157600080fd5b506040518060400160405280600981526020017f57696e6e65724e465400000000000000000000000000000000000000000000008152506040518060400160405280600481526020017f574e465400000000000000000000000000000000000000000000000000000000815250816000908051906020019062000096929190620000f9565b508060019080519060200190620000af929190620000f9565b50505033600960006101000a81548173ffffffffffffffffffffffffffffffffffffffff021916908373ffffffffffffffffffffffffffffffffffffffff1602179055506200020e565b8280546200010790620001a9565b90600052602060002090601f0160209004810192826200012b576000855562000177565b82601f106200014657805160ff191683800117855562000177565b8280016001018555821562000177579182015b828111156200017657825182559160200191906001019062000159565b5b5090506200018691906200018a565b5090565b5b80821115620001a55760008160009055506001016200018b565b5090565b60006002820490506001821680620001c257607f821691505b60208210811415620001d957620001d8620001df565b5b50919050565b7f4e487b7100000000000000000000000000000000000000000000000000000000600052602260045260246000fd5b614985806200021e6000396000f3fe608060405234801561001057600080fd5b50600436106101cf5760003560e01c806370a0823111610104578063c3403ddf116100a2578063e22a623111610071578063e22a6231146104d4578063e985e9c5146104f0578063f2a3991c14610520578063f3ae241514610552576101cf565b8063c3403ddf14610460578063c87b56dd1461046a578063cdd722531461049a578063d9e95a98146104b8576101cf565b806395d89b41116100de57806395d89b41146103ee578063a001faf31461040c578063a22cb46514610428578063b88d4fde14610444576101cf565b806370a08231146103815780637718d9f3146103b15780637cabb274146103bb576101cf565b80631ec6b60a116101715780632f08a7b31161014b5780632f08a7b31461030a57806342842e0e1461032b578063553bd397146103475780636352211e14610351576101cf565b80631ec6b60a146102c857806323b872dd146102d257806326bb886d146102ee576101cf565b806306fdde03116101ad57806306fdde0314610240578063081812fc1461025e578063095ea7b31461028e57806319f41a40146102aa576101cf565b8063010a38f5146101d457806301ffc9a7146101f257806306a49fce14610222575b600080fd5b6101dc610582565b6040516101e99190613fb7565b60405180910390f35b61020c60048036038101906102079190613552565b6105a1565b6040516102199190613ce5565b60405180910390f35b61022a610683565b6040516102379190613ca1565b60405180910390f35b610248610866565b6040516102559190613d00565b60405180910390f35b610278600480360381019061027391906135f8565b6108f8565b6040516102859190613ba9565b60405180910390f35b6102a860048036038101906102a39190613516565b61097d565b005b6102b2610a95565b6040516102bf9190613ce5565b60405180910390f35b6102d0610aac565b005b6102ec60048036038101906102e7919061333d565b610b23565b005b610308600480360381019061030391906132d8565b610b83565b005b610312610f3f565b6040516103229493929190613c4e565b60405180910390f35b6103456004803603810190610340919061333d565b611254565b005b61034f611274565b005b61036b600480360381019061036691906135f8565b6112de565b6040516103789190613ba9565b60405180910390f35b61039b600480360381019061039691906132d8565b611390565b6040516103a89190613fb7565b60405180910390f35b6103b9611448565b005b6103d560048036038101906103d091906135f8565b6114b2565b6040516103e59493929190613c4e565b60405180910390f35b6103f6611622565b6040516104039190613d00565b60405180910390f35b610426600480360381019061042191906135a4565b6116b4565b005b610442600480360381019061043d9190613407565b6116e5565b005b61045e6004803603810190610459919061338c565b6116fb565b005b61046861175d565b005b610484600480360381019061047f91906135f8565b6117d4565b6040516104919190613d00565b60405180910390f35b6104a2611926565b6040516104af9190613cc3565b60405180910390f35b6104d260048036038101906104cd9190613443565b611a88565b005b6104ee60048036038101906104e99190613497565b611ce4565b005b61050a60048036038101906105059190613301565b611f4e565b6040516105179190613ce5565b60405180910390f35b61053a600480360381019061053591906135f8565b611fe2565b60405161054993929190613c10565b60405180910390f35b61056c600480360381019061056791906132d8565b6120d1565b6040516105799190613ce5565b60405180910390f35b60008061058f600a61212b565b905061059a81612139565b8091505090565b60007f80ac58cd000000000000000000000000000000000000000000000000000000007bffffffffffffffffffffffffffffffffffffffffffffffffffffffff1916827bffffffffffffffffffffffffffffffffffffffffffffffffffffffff1916148061066c57507f5b5e139f000000000000000000000000000000000000000000000000000000007bffffffffffffffffffffffffffffffffffffffffffffffffffffffff1916827bffffffffffffffffffffffffffffffffffffffffffffffffffffffff1916145b8061067c575061067b826121d2565b5b9050919050565b60606007805480602002602001604051908101604052809291908181526020016000905b8282101561085d57838290600052602060002090600402016040518060800160405290816000820160009054906101000a900473ffffffffffffffffffffffffffffffffffffffff1673ffffffffffffffffffffffffffffffffffffffff1673ffffffffffffffffffffffffffffffffffffffff168152602001600182018054610730906142a2565b80601f016020809104026020016040519081016040528092919081815260200182805461075c906142a2565b80156107a95780601f1061077e576101008083540402835291602001916107a9565b820191906000526020600020905b81548152906001019060200180831161078c57829003601f168201915b505050505081526020016002820180546107c2906142a2565b80601f01602080910402602001604051908101604052809291908181526020018280546107ee906142a2565b801561083b5780601f106108105761010080835404028352916020019161083b565b820191906000526020600020905b81548152906001019060200180831161081e57829003601f168201915b50505050508152602001600382015481525050815260200190600101906106a7565b50505050905090565b606060008054610875906142a2565b80601f01602080910402602001604051908101604052809291908181526020018280546108a1906142a2565b80156108ee5780601f106108c3576101008083540402835291602001916108ee565b820191906000526020600020905b8154815290600101906020018083116108d157829003601f168201915b5050505050905090565b60006109038261223c565b610942576040517f08c379a000000000000000000000000000000000000000000000000000000000815260040161093990613f37565b60405180910390fd5b6004600083815260200190815260200160002060009054906101000a900473ffffffffffffffffffffffffffffffffffffffff169050919050565b6000610988826112de565b90508073ffffffffffffffffffffffffffffffffffffffff168373ffffffffffffffffffffffffffffffffffffffff1614156109f9576040517f08c379a00000000000000000000000000000000000000000000000000000000081526004016109f090613f77565b60405180910390fd5b8073ffffffffffffffffffffffffffffffffffffffff16610a186122a8565b73ffffffffffffffffffffffffffffffffffffffff161480610a475750610a4681610a416122a8565b611f4e565b5b610a86576040517f08c379a0000000000000000000000000000000000000000000000000000000008152600401610a7d90613e77565b60405180910390fd5b610a9083836122b0565b505050565b6000600960149054906101000a900460ff16905090565b600960009054906101000a900473ffffffffffffffffffffffffffffffffffffffff1673ffffffffffffffffffffffffffffffffffffffff163373ffffffffffffffffffffffffffffffffffffffff1614610b0657600080fd5b6001600960146101000a81548160ff021916908315150217905550565b610b34610b2e6122a8565b82612369565b610b73576040517f08c379a0000000000000000000000000000000000000000000000000000000008152600401610b6a90613f97565b60405180910390fd5b610b7e838383612447565b505050565b600960149054906101000a900460ff16610bd2576040517f08c379a0000000000000000000000000000000000000000000000000000000008152600401610bc990613db7565b60405180910390fd5b600960009054906101000a900473ffffffffffffffffffffffffffffffffffffffff1673ffffffffffffffffffffffffffffffffffffffff163373ffffffffffffffffffffffffffffffffffffffff161415610c2d57600080fd5b60008060005b600880549050811015610cfa5760088181548110610c7a577f4e487b7100000000000000000000000000000000000000000000000000000000600052603260045260246000fd5b906000526020600020906003020160000160009054906101000a900473ffffffffffffffffffffffffffffffffffffffff1673ffffffffffffffffffffffffffffffffffffffff163373ffffffffffffffffffffffffffffffffffffffff161415610ce757809150600192505b8080610cf290614305565b915050610c33565b5060018214610d0857600080fd5b60088181548110610d42577f4e487b7100000000000000000000000000000000000000000000000000000000600052603260045260246000fd5b906000526020600020906003020160020160009054906101000a900460ff1615610d6b57600080fd5b60005b600780549050811015610f395760078181548110610db5577f4e487b7100000000000000000000000000000000000000000000000000000000600052603260045260246000fd5b906000526020600020906004020160000160009054906101000a900473ffffffffffffffffffffffffffffffffffffffff1673ffffffffffffffffffffffffffffffffffffffff168473ffffffffffffffffffffffffffffffffffffffff161415610f2657600160078281548110610e56577f4e487b7100000000000000000000000000000000000000000000000000000000600052603260045260246000fd5b906000526020600020906004020160030154610e72919061411f565b60078281548110610eac577f4e487b7100000000000000000000000000000000000000000000000000000000600052603260045260246000fd5b906000526020600020906004020160030181905550600160088381548110610efd577f4e487b7100000000000000000000000000000000000000000000000000000000600052603260045260246000fd5b906000526020600020906003020160020160006101000a81548160ff0219169083151502179055505b8080610f3190614305565b915050610d6e565b50505050565b60006060806000600960149054906101000a900460ff1615610f6057600080fd5b60008060005b600780549050811015610fdd5760078181548110610fad577f4e487b7100000000000000000000000000000000000000000000000000000000600052603260045260246000fd5b906000526020600020906004020160030154831015610fca578091505b8080610fd590614305565b915050610f66565b5060078181548110611018577f4e487b7100000000000000000000000000000000000000000000000000000000600052603260045260246000fd5b906000526020600020906004020160000160009054906101000a900473ffffffffffffffffffffffffffffffffffffffff1660078281548110611084577f4e487b7100000000000000000000000000000000000000000000000000000000600052603260045260246000fd5b9060005260206000209060040201600101600783815481106110cf577f4e487b7100000000000000000000000000000000000000000000000000000000600052603260045260246000fd5b90600052602060002090600402016002016007848154811061111a577f4e487b7100000000000000000000000000000000000000000000000000000000600052603260045260246000fd5b906000526020600020906004020160030154828054611138906142a2565b80601f0160208091040260200160405190810160405280929190818152602001828054611164906142a2565b80156111b15780601f10611186576101008083540402835291602001916111b1565b820191906000526020600020905b81548152906001019060200180831161119457829003601f168201915b505050505092508180546111c4906142a2565b80601f01602080910402602001604051908101604052809291908181526020018280546111f0906142a2565b801561123d5780601f106112125761010080835404028352916020019161123d565b820191906000526020600020905b81548152906001019060200180831161122057829003601f168201915b505050505091509550955095509550505090919293565b61126f838383604051806020016040528060008152506116fb565b505050565b600960009054906101000a900473ffffffffffffffffffffffffffffffffffffffff1673ffffffffffffffffffffffffffffffffffffffff163373ffffffffffffffffffffffffffffffffffffffff16146112ce57600080fd5b600860006112dc9190612fac565b565b6000806002600084815260200190815260200160002060009054906101000a900473ffffffffffffffffffffffffffffffffffffffff169050600073ffffffffffffffffffffffffffffffffffffffff168173ffffffffffffffffffffffffffffffffffffffff161415611387576040517f08c379a000000000000000000000000000000000000000000000000000000000815260040161137e90613eb7565b60405180910390fd5b80915050919050565b60008073ffffffffffffffffffffffffffffffffffffffff168273ffffffffffffffffffffffffffffffffffffffff161415611401576040517f08c379a00000000000000000000000000000000000000000000000000000000081526004016113f890613e97565b60405180910390fd5b600360008373ffffffffffffffffffffffffffffffffffffffff1673ffffffffffffffffffffffffffffffffffffffff168152602001908152602001600020549050919050565b600960009054906101000a900473ffffffffffffffffffffffffffffffffffffffff1673ffffffffffffffffffffffffffffffffffffffff163373ffffffffffffffffffffffffffffffffffffffff16146114a257600080fd5b600760006114b09190612fd0565b565b600781815481106114c257600080fd5b90600052602060002090600402016000915090508060000160009054906101000a900473ffffffffffffffffffffffffffffffffffffffff169080600101805461150b906142a2565b80601f0160208091040260200160405190810160405280929190818152602001828054611537906142a2565b80156115845780601f1061155957610100808354040283529160200191611584565b820191906000526020600020905b81548152906001019060200180831161156757829003601f168201915b505050505090806002018054611599906142a2565b80601f01602080910402602001604051908101604052809291908181526020018280546115c5906142a2565b80156116125780601f106115e757610100808354040283529160200191611612565b820191906000526020600020905b8154815290600101906020018083116115f557829003601f168201915b5050505050908060030154905084565b606060018054611631906142a2565b80601f016020809104026020016040519081016040528092919081815260200182805461165d906142a2565b80156116aa5780601f1061167f576101008083540402835291602001916116aa565b820191906000526020600020905b81548152906001019060200180831161168d57829003601f168201915b5050505050905090565b60006116c0600a61212b565b90506116cc82826126ae565b6116d681846126cc565b6116e0600a612740565b505050565b6116f76116f06122a8565b8383612756565b5050565b61170c6117066122a8565b83612369565b61174b576040517f08c379a000000000000000000000000000000000000000000000000000000000815260040161174290613f97565b60405180910390fd5b611757848484846128c3565b50505050565b600960009054906101000a900473ffffffffffffffffffffffffffffffffffffffff1673ffffffffffffffffffffffffffffffffffffffff163373ffffffffffffffffffffffffffffffffffffffff16146117b757600080fd5b6000600960146101000a81548160ff021916908315150217905550565b60606117df8261223c565b61181e576040517f08c379a000000000000000000000000000000000000000000000000000000000815260040161181590613f17565b60405180910390fd5b600060066000848152602001908152602001600020805461183e906142a2565b80601f016020809104026020016040519081016040528092919081815260200182805461186a906142a2565b80156118b75780601f1061188c576101008083540402835291602001916118b7565b820191906000526020600020905b81548152906001019060200180831161189a57829003601f168201915b5050505050905060006118c861291f565b90506000815114156118de578192505050611921565b6000825111156119135780826040516020016118fb929190613b85565b60405160208183030381529060405292505050611921565b61191c84612936565b925050505b919050565b60606008805480602002602001604051908101604052809291908181526020016000905b82821015611a7f57838290600052602060002090600302016040518060600160405290816000820160009054906101000a900473ffffffffffffffffffffffffffffffffffffffff1673ffffffffffffffffffffffffffffffffffffffff1673ffffffffffffffffffffffffffffffffffffffff1681526020016001820180546119d3906142a2565b80601f01602080910402602001604051908101604052809291908181526020018280546119ff906142a2565b8015611a4c5780601f10611a2157610100808354040283529160200191611a4c565b820191906000526020600020905b815481529060010190602001808311611a2f57829003601f168201915b505050505081526020016002820160009054906101000a900460ff1615151515815250508152602001906001019061194a565b50505050905090565b600960009054906101000a900473ffffffffffffffffffffffffffffffffffffffff1673ffffffffffffffffffffffffffffffffffffffff163373ffffffffffffffffffffffffffffffffffffffff1614611ae257600080fd5b60005b600880549050811015611ba95760088181548110611b2c577f4e487b7100000000000000000000000000000000000000000000000000000000600052603260045260246000fd5b906000526020600020906003020160000160009054906101000a900473ffffffffffffffffffffffffffffffffffffffff1673ffffffffffffffffffffffffffffffffffffffff168373ffffffffffffffffffffffffffffffffffffffff161415611b9657600080fd5b8080611ba190614305565b915050611ae5565b50600860405180606001604052808473ffffffffffffffffffffffffffffffffffffffff16815260200183815260200160001515815250908060018154018082558091505060019003906000526020600020906003020160009091909190915060008201518160000160006101000a81548173ffffffffffffffffffffffffffffffffffffffff021916908373ffffffffffffffffffffffffffffffffffffffff1602179055506020820151816001019080519060200190611c6c929190612ff4565b5060408201518160020160006101000a81548160ff02191690831515021790555050508173ffffffffffffffffffffffffffffffffffffffff167fd1341ba54138fc2127191a51c3e4e2dc76e5ca995a4fa8044a609b6e5c4b2331826000604051611cd8929190613d22565b60405180910390a25050565b600960009054906101000a900473ffffffffffffffffffffffffffffffffffffffff1673ffffffffffffffffffffffffffffffffffffffff163373ffffffffffffffffffffffffffffffffffffffff1614611d3e57600080fd5b60005b600780549050811015611e055760078181548110611d88577f4e487b7100000000000000000000000000000000000000000000000000000000600052603260045260246000fd5b906000526020600020906004020160000160009054906101000a900473ffffffffffffffffffffffffffffffffffffffff1673ffffffffffffffffffffffffffffffffffffffff168473ffffffffffffffffffffffffffffffffffffffff161415611df257600080fd5b8080611dfd90614305565b915050611d41565b50600760405180608001604052808573ffffffffffffffffffffffffffffffffffffffff1681526020018481526020018381526020016000815250908060018154018082558091505060019003906000526020600020906004020160009091909190915060008201518160000160006101000a81548173ffffffffffffffffffffffffffffffffffffffff021916908373ffffffffffffffffffffffffffffffffffffffff1602179055506020820151816001019080519060200190611ecc929190612ff4565b506040820151816002019080519060200190611ee9929190612ff4565b506060820151816003015550508273ffffffffffffffffffffffffffffffffffffffff167fc7e9b5441428ea3adeaac63526e39b43f0105390be443ebe7cc976c304840ddd83836000604051611f4193929190613d52565b60405180910390a2505050565b6000600560008473ffffffffffffffffffffffffffffffffffffffff1673ffffffffffffffffffffffffffffffffffffffff16815260200190815260200160002060008373ffffffffffffffffffffffffffffffffffffffff1673ffffffffffffffffffffffffffffffffffffffff16815260200190815260200160002060009054906101000a900460ff16905092915050565b60088181548110611ff257600080fd5b90600052602060002090600302016000915090508060000160009054906101000a900473ffffffffffffffffffffffffffffffffffffffff169080600101805461203b906142a2565b80601f0160208091040260200160405190810160405280929190818152602001828054612067906142a2565b80156120b45780601f10612089576101008083540402835291602001916120b4565b820191906000526020600020905b81548152906001019060200180831161209757829003601f168201915b5050505050908060020160009054906101000a900460ff16905083565b6000600960009054906101000a900473ffffffffffffffffffffffffffffffffffffffff1673ffffffffffffffffffffffffffffffffffffffff168273ffffffffffffffffffffffffffffffffffffffff16149050919050565b600081600001549050919050565b6121cf8160405160240161214d9190613fb7565b6040516020818303038152906040527ff5b1bba9000000000000000000000000000000000000000000000000000000007bffffffffffffffffffffffffffffffffffffffffffffffffffffffff19166020820180517bffffffffffffffffffffffffffffffffffffffffffffffffffffffff83818316178352505050506129dd565b50565b60007f01ffc9a7000000000000000000000000000000000000000000000000000000007bffffffffffffffffffffffffffffffffffffffffffffffffffffffff1916827bffffffffffffffffffffffffffffffffffffffffffffffffffffffff1916149050919050565b60008073ffffffffffffffffffffffffffffffffffffffff166002600084815260200190815260200160002060009054906101000a900473ffffffffffffffffffffffffffffffffffffffff1673ffffffffffffffffffffffffffffffffffffffff1614159050919050565b600033905090565b816004600083815260200190815260200160002060006101000a81548173ffffffffffffffffffffffffffffffffffffffff021916908373ffffffffffffffffffffffffffffffffffffffff160217905550808273ffffffffffffffffffffffffffffffffffffffff16612323836112de565b73ffffffffffffffffffffffffffffffffffffffff167f8c5be1e5ebec7d5bd14f71427d1e84f3dd0314c0f7b2291e5b200ac8c7c3b92560405160405180910390a45050565b60006123748261223c565b6123b3576040517f08c379a00000000000000000000000000000000000000000000000000000000081526004016123aa90613e57565b60405180910390fd5b60006123be836112de565b90508073ffffffffffffffffffffffffffffffffffffffff168473ffffffffffffffffffffffffffffffffffffffff16148061240057506123ff8185611f4e565b5b8061243e57508373ffffffffffffffffffffffffffffffffffffffff16612426846108f8565b73ffffffffffffffffffffffffffffffffffffffff16145b91505092915050565b8273ffffffffffffffffffffffffffffffffffffffff16612467826112de565b73ffffffffffffffffffffffffffffffffffffffff16146124bd576040517f08c379a00000000000000000000000000000000000000000000000000000000081526004016124b490613dd7565b60405180910390fd5b600073ffffffffffffffffffffffffffffffffffffffff168273ffffffffffffffffffffffffffffffffffffffff16141561252d576040517f08c379a000000000000000000000000000000000000000000000000000000000815260040161252490613e17565b60405180910390fd5b612538838383612a06565b6125436000826122b0565b6001600360008573ffffffffffffffffffffffffffffffffffffffff1673ffffffffffffffffffffffffffffffffffffffff168152602001908152602001600020600082825461259391906141a6565b925050819055506001600360008473ffffffffffffffffffffffffffffffffffffffff1673ffffffffffffffffffffffffffffffffffffffff16815260200190815260200160002060008282546125ea919061411f565b92505081905550816002600083815260200190815260200160002060006101000a81548173ffffffffffffffffffffffffffffffffffffffff021916908373ffffffffffffffffffffffffffffffffffffffff160217905550808273ffffffffffffffffffffffffffffffffffffffff168473ffffffffffffffffffffffffffffffffffffffff167fddf252ad1be2c89b69c2b068fc378daa952ba7f163c4a11628f55a4df523b3ef60405160405180910390a46126a9838383612a0b565b505050565b6126c8828260405180602001604052806000815250612a10565b5050565b6126d58261223c565b612714576040517f08c379a000000000000000000000000000000000000000000000000000000000815260040161270b90613ed7565b60405180910390fd5b8060066000848152602001908152602001600020908051906020019061273b929190612ff4565b505050565b6001816000016000828254019250508190555050565b8173ffffffffffffffffffffffffffffffffffffffff168373ffffffffffffffffffffffffffffffffffffffff1614156127c5576040517f08c379a00000000000000000000000000000000000000000000000000000000081526004016127bc90613e37565b60405180910390fd5b80600560008573ffffffffffffffffffffffffffffffffffffffff1673ffffffffffffffffffffffffffffffffffffffff16815260200190815260200160002060008473ffffffffffffffffffffffffffffffffffffffff1673ffffffffffffffffffffffffffffffffffffffff16815260200190815260200160002060006101000a81548160ff0219169083151502179055508173ffffffffffffffffffffffffffffffffffffffff168373ffffffffffffffffffffffffffffffffffffffff167f17307eab39ab6107e8899845ad3d59bd9653f200f220920489ca2b5937696c31836040516128b69190613ce5565b60405180910390a3505050565b6128ce848484612447565b6128da84848484612a6b565b612919576040517f08c379a000000000000000000000000000000000000000000000000000000000815260040161291090613d97565b60405180910390fd5b50505050565b606060405180602001604052806000815250905090565b60606129418261223c565b612980576040517f08c379a000000000000000000000000000000000000000000000000000000000815260040161297790613f57565b60405180910390fd5b600061298a61291f565b905060008151116129aa57604051806020016040528060008152506129d5565b806129b484612c02565b6040516020016129c5929190613b85565b6040516020818303038152906040525b915050919050565b60008151905060006a636f6e736f6c652e6c6f679050602083016000808483855afa5050505050565b505050565b505050565b612a1a8383612daf565b612a276000848484612a6b565b612a66576040517f08c379a0000000000000000000000000000000000000000000000000000000008152600401612a5d90613d97565b60405180910390fd5b505050565b6000612a8c8473ffffffffffffffffffffffffffffffffffffffff16612f89565b15612bf5578373ffffffffffffffffffffffffffffffffffffffff1663150b7a02612ab56122a8565b8786866040518563ffffffff1660e01b8152600401612ad79493929190613bc4565b602060405180830381600087803b158015612af157600080fd5b505af1925050508015612b2257506040513d601f19601f82011682018060405250810190612b1f919061357b565b60015b612ba5573d8060008114612b52576040519150601f19603f3d011682016040523d82523d6000602084013e612b57565b606091505b50600081511415612b9d576040517f08c379a0000000000000000000000000000000000000000000000000000000008152600401612b9490613d97565b60405180910390fd5b805181602001fd5b63150b7a0260e01b7bffffffffffffffffffffffffffffffffffffffffffffffffffffffff1916817bffffffffffffffffffffffffffffffffffffffffffffffffffffffff191614915050612bfa565b600190505b949350505050565b60606000821415612c4a576040518060400160405280600181526020017f30000000000000000000000000000000000000000000000000000000000000008152509050612daa565b600082905060005b60008214612c7c578080612c6590614305565b915050600a82612c759190614175565b9150612c52565b60008167ffffffffffffffff811115612cbe577f4e487b7100000000000000000000000000000000000000000000000000000000600052604160045260246000fd5b6040519080825280601f01601f191660200182016040528015612cf05781602001600182028036833780820191505090505b5090505b60008514612da357600182612d0991906141a6565b9150600a85612d18919061434e565b6030612d24919061411f565b60f81b818381518110612d60577f4e487b7100000000000000000000000000000000000000000000000000000000600052603260045260246000fd5b60200101907effffffffffffffffffffffffffffffffffffffffffffffffffffffffffffff1916908160001a905350600a85612d9c9190614175565b9450612cf4565b8093505050505b919050565b600073ffffffffffffffffffffffffffffffffffffffff168273ffffffffffffffffffffffffffffffffffffffff161415612e1f576040517f08c379a0000000000000000000000000000000000000000000000000000000008152600401612e1690613ef7565b60405180910390fd5b612e288161223c565b15612e68576040517f08c379a0000000000000000000000000000000000000000000000000000000008152600401612e5f90613df7565b60405180910390fd5b612e7460008383612a06565b6001600360008473ffffffffffffffffffffffffffffffffffffffff1673ffffffffffffffffffffffffffffffffffffffff1681526020019081526020016000206000828254612ec4919061411f565b92505081905550816002600083815260200190815260200160002060006101000a81548173ffffffffffffffffffffffffffffffffffffffff021916908373ffffffffffffffffffffffffffffffffffffffff160217905550808273ffffffffffffffffffffffffffffffffffffffff16600073ffffffffffffffffffffffffffffffffffffffff167fddf252ad1be2c89b69c2b068fc378daa952ba7f163c4a11628f55a4df523b3ef60405160405180910390a4612f8560008383612a0b565b5050565b6000808273ffffffffffffffffffffffffffffffffffffffff163b119050919050565b5080546000825560030290600052602060002090810190612fcd919061307a565b50565b5080546000825560040290600052602060002090810190612ff191906130dc565b50565b828054613000906142a2565b90600052602060002090601f0160209004810192826130225760008555613069565b82601f1061303b57805160ff1916838001178555613069565b82800160010185558215613069579182015b8281111561306857825182559160200191906001019061304d565b5b5090506130769190613142565b5090565b5b808211156130d857600080820160006101000a81549073ffffffffffffffffffffffffffffffffffffffff02191690556001820160006130bb919061315f565b6002820160006101000a81549060ff02191690555060030161307b565b5090565b5b8082111561313e57600080820160006101000a81549073ffffffffffffffffffffffffffffffffffffffff021916905560018201600061311d919061315f565b60028201600061312d919061315f565b6003820160009055506004016130dd565b5090565b5b8082111561315b576000816000905550600101613143565b5090565b50805461316b906142a2565b6000825580601f1061317d575061319c565b601f01602090049060005260206000209081019061319b9190613142565b5b50565b60006131b26131ad84613ff7565b613fd2565b9050828152602081018484840111156131ca57600080fd5b6131d5848285614260565b509392505050565b60006131f06131eb84614028565b613fd2565b90508281526020810184848401111561320857600080fd5b613213848285614260565b509392505050565b60008135905061322a816148f3565b92915050565b60008135905061323f8161490a565b92915050565b60008135905061325481614921565b92915050565b60008151905061326981614921565b92915050565b600082601f83011261328057600080fd5b813561329084826020860161319f565b91505092915050565b600082601f8301126132aa57600080fd5b81356132ba8482602086016131dd565b91505092915050565b6000813590506132d281614938565b92915050565b6000602082840312156132ea57600080fd5b60006132f88482850161321b565b91505092915050565b6000806040838503121561331457600080fd5b60006133228582860161321b565b92505060206133338582860161321b565b9150509250929050565b60008060006060848603121561335257600080fd5b60006133608682870161321b565b93505060206133718682870161321b565b9250506040613382868287016132c3565b9150509250925092565b600080600080608085870312156133a257600080fd5b60006133b08782880161321b565b94505060206133c18782880161321b565b93505060406133d2878288016132c3565b925050606085013567ffffffffffffffff8111156133ef57600080fd5b6133fb8782880161326f565b91505092959194509250565b6000806040838503121561341a57600080fd5b60006134288582860161321b565b925050602061343985828601613230565b9150509250929050565b6000806040838503121561345657600080fd5b60006134648582860161321b565b925050602083013567ffffffffffffffff81111561348157600080fd5b61348d85828601613299565b9150509250929050565b6000806000606084860312156134ac57600080fd5b60006134ba8682870161321b565b935050602084013567ffffffffffffffff8111156134d757600080fd5b6134e386828701613299565b925050604084013567ffffffffffffffff81111561350057600080fd5b61350c86828701613299565b9150509250925092565b6000806040838503121561352957600080fd5b60006135378582860161321b565b9250506020613548858286016132c3565b9150509250929050565b60006020828403121561356457600080fd5b600061357284828501613245565b91505092915050565b60006020828403121561358d57600080fd5b600061359b8482850161325a565b91505092915050565b600080604083850312156135b757600080fd5b600083013567ffffffffffffffff8111156135d157600080fd5b6135dd85828601613299565b92505060206135ee8582860161321b565b9150509250929050565b60006020828403121561360a57600080fd5b6000613618848285016132c3565b91505092915050565b600061362d8383613aad565b905092915050565b60006136418383613b17565b905092915050565b613652816141da565b82525050565b613661816141da565b82525050565b600061367282614079565b61367c81856140bf565b93508360208202850161368e85614059565b8060005b858110156136ca57848403895281516136ab8582613621565b94506136b6836140a5565b925060208a01995050600181019050613692565b50829750879550505050505092915050565b60006136e782614084565b6136f181856140d0565b93508360208202850161370385614069565b8060005b8581101561373f57848403895281516137208582613635565b945061372b836140b2565b925060208a01995050600181019050613707565b50829750879550505050505092915050565b61375a816141ec565b82525050565b613769816141ec565b82525050565b600061377a8261408f565b61378481856140e1565b935061379481856020860161426f565b61379d8161443b565b840191505092915050565b6137b18161424e565b82525050565b60006137c28261409a565b6137cc81856140f2565b93506137dc81856020860161426f565b6137e58161443b565b840191505092915050565b60006137fb8261409a565b6138058185614103565b935061381581856020860161426f565b61381e8161443b565b840191505092915050565b60006138348261409a565b61383e8185614114565b935061384e81856020860161426f565b80840191505092915050565b6000613867603283614103565b91506138728261444c565b604082019050919050565b600061388a601683614103565b91506138958261449b565b602082019050919050565b60006138ad602583614103565b91506138b8826144c4565b604082019050919050565b60006138d0601c83614103565b91506138db82614513565b602082019050919050565b60006138f3602483614103565b91506138fe8261453c565b604082019050919050565b6000613916601983614103565b91506139218261458b565b602082019050919050565b6000613939602c83614103565b9150613944826145b4565b604082019050919050565b600061395c603883614103565b915061396782614603565b604082019050919050565b600061397f602a83614103565b915061398a82614652565b604082019050919050565b60006139a2602983614103565b91506139ad826146a1565b604082019050919050565b60006139c5602e83614103565b91506139d0826146f0565b604082019050919050565b60006139e8602083614103565b91506139f38261473f565b602082019050919050565b6000613a0b603183614103565b9150613a1682614768565b604082019050919050565b6000613a2e602c83614103565b9150613a39826147b7565b604082019050919050565b6000613a51602f83614103565b9150613a5c82614806565b604082019050919050565b6000613a74602183614103565b9150613a7f82614855565b604082019050919050565b6000613a97603183614103565b9150613aa2826148a4565b604082019050919050565b6000608083016000830151613ac56000860182613649565b5060208301518482036020860152613add82826137b7565b91505060408301518482036040860152613af782826137b7565b9150506060830151613b0c6060860182613b67565b508091505092915050565b6000606083016000830151613b2f6000860182613649565b5060208301518482036020860152613b4782826137b7565b9150506040830151613b5c6040860182613751565b508091505092915050565b613b7081614244565b82525050565b613b7f81614244565b82525050565b6000613b918285613829565b9150613b9d8284613829565b91508190509392505050565b6000602082019050613bbe6000830184613658565b92915050565b6000608082019050613bd96000830187613658565b613be66020830186613658565b613bf36040830185613b76565b8181036060830152613c05818461376f565b905095945050505050565b6000606082019050613c256000830186613658565b8181036020830152613c3781856137f0565b9050613c466040830184613760565b949350505050565b6000608082019050613c636000830187613658565b8181036020830152613c7581866137f0565b90508181036040830152613c8981856137f0565b9050613c986060830184613b76565b95945050505050565b60006020820190508181036000830152613cbb8184613667565b905092915050565b60006020820190508181036000830152613cdd81846136dc565b905092915050565b6000602082019050613cfa6000830184613760565b92915050565b60006020820190508181036000830152613d1a81846137f0565b905092915050565b60006040820190508181036000830152613d3c81856137f0565b9050613d4b6020830184613760565b9392505050565b60006060820190508181036000830152613d6c81866137f0565b90508181036020830152613d8081856137f0565b9050613d8f60408301846137a8565b949350505050565b60006020820190508181036000830152613db08161385a565b9050919050565b60006020820190508181036000830152613dd08161387d565b9050919050565b60006020820190508181036000830152613df0816138a0565b9050919050565b60006020820190508181036000830152613e10816138c3565b9050919050565b60006020820190508181036000830152613e30816138e6565b9050919050565b60006020820190508181036000830152613e5081613909565b9050919050565b60006020820190508181036000830152613e708161392c565b9050919050565b60006020820190508181036000830152613e908161394f565b9050919050565b60006020820190508181036000830152613eb081613972565b9050919050565b60006020820190508181036000830152613ed081613995565b9050919050565b60006020820190508181036000830152613ef0816139b8565b9050919050565b60006020820190508181036000830152613f10816139db565b9050919050565b60006020820190508181036000830152613f30816139fe565b9050919050565b60006020820190508181036000830152613f5081613a21565b9050919050565b60006020820190508181036000830152613f7081613a44565b9050919050565b60006020820190508181036000830152613f9081613a67565b9050919050565b60006020820190508181036000830152613fb081613a8a565b9050919050565b6000602082019050613fcc6000830184613b76565b92915050565b6000613fdc613fed565b9050613fe882826142d4565b919050565b6000604051905090565b600067ffffffffffffffff8211156140125761401161440c565b5b61401b8261443b565b9050602081019050919050565b600067ffffffffffffffff8211156140435761404261440c565b5b61404c8261443b565b9050602081019050919050565b6000819050602082019050919050565b6000819050602082019050919050565b600081519050919050565b600081519050919050565b600081519050919050565b600081519050919050565b6000602082019050919050565b6000602082019050919050565b600082825260208201905092915050565b600082825260208201905092915050565b600082825260208201905092915050565b600082825260208201905092915050565b600082825260208201905092915050565b600081905092915050565b600061412a82614244565b915061413583614244565b9250827fffffffffffffffffffffffffffffffffffffffffffffffffffffffffffffffff0382111561416a5761416961437f565b5b828201905092915050565b600061418082614244565b915061418b83614244565b92508261419b5761419a6143ae565b5b828204905092915050565b60006141b182614244565b91506141bc83614244565b9250828210156141cf576141ce61437f565b5b828203905092915050565b60006141e582614224565b9050919050565b60008115159050919050565b60007fffffffff0000000000000000000000000000000000000000000000000000000082169050919050565b600073ffffffffffffffffffffffffffffffffffffffff82169050919050565b6000819050919050565b600061425982614244565b9050919050565b82818337600083830152505050565b60005b8381101561428d578082015181840152602081019050614272565b8381111561429c576000848401525b50505050565b600060028204905060018216806142ba57607f821691505b602082108114156142ce576142cd6143dd565b5b50919050565b6142dd8261443b565b810181811067ffffffffffffffff821117156142fc576142fb61440c565b5b80604052505050565b600061431082614244565b91507fffffffffffffffffffffffffffffffffffffffffffffffffffffffffffffffff8214156143435761434261437f565b5b600182019050919050565b600061435982614244565b915061436483614244565b925082614374576143736143ae565b5b828206905092915050565b7f4e487b7100000000000000000000000000000000000000000000000000000000600052601160045260246000fd5b7f4e487b7100000000000000000000000000000000000000000000000000000000600052601260045260246000fd5b7f4e487b7100000000000000000000000000000000000000000000000000000000600052602260045260246000fd5b7f4e487b7100000000000000000000000000000000000000000000000000000000600052604160045260246000fd5b6000601f19601f8301169050919050565b7f4552433732313a207472616e7366657220746f206e6f6e20455243373231526560008201527f63656976657220696d706c656d656e7465720000000000000000000000000000602082015250565b7f566f74696e67206e6f7420616c6c6f7765642079657400000000000000000000600082015250565b7f4552433732313a207472616e736665722066726f6d20696e636f72726563742060008201527f6f776e6572000000000000000000000000000000000000000000000000000000602082015250565b7f4552433732313a20746f6b656e20616c7265616479206d696e74656400000000600082015250565b7f4552433732313a207472616e7366657220746f20746865207a65726f2061646460008201527f7265737300000000000000000000000000000000000000000000000000000000602082015250565b7f4552433732313a20617070726f766520746f2063616c6c657200000000000000600082015250565b7f4552433732313a206f70657261746f7220717565727920666f72206e6f6e657860008201527f697374656e7420746f6b656e0000000000000000000000000000000000000000602082015250565b7f4552433732313a20617070726f76652063616c6c6572206973206e6f74206f7760008201527f6e6572206e6f7220617070726f76656420666f7220616c6c0000000000000000602082015250565b7f4552433732313a2062616c616e636520717565727920666f7220746865207a6560008201527f726f206164647265737300000000000000000000000000000000000000000000602082015250565b7f4552433732313a206f776e657220717565727920666f72206e6f6e657869737460008201527f656e7420746f6b656e0000000000000000000000000000000000000000000000602082015250565b7f45524337323155524953746f726167653a2055524920736574206f66206e6f6e60008201527f6578697374656e7420746f6b656e000000000000000000000000000000000000602082015250565b7f4552433732313a206d696e7420746f20746865207a65726f2061646472657373600082015250565b7f45524337323155524953746f726167653a2055524920717565727920666f722060008201527f6e6f6e6578697374656e7420746f6b656e000000000000000000000000000000602082015250565b7f4552433732313a20617070726f76656420717565727920666f72206e6f6e657860008201527f697374656e7420746f6b656e0000000000000000000000000000000000000000602082015250565b7f4552433732314d657461646174613a2055524920717565727920666f72206e6f60008201527f6e6578697374656e7420746f6b656e0000000000000000000000000000000000602082015250565b7f4552433732313a20617070726f76616c20746f2063757272656e74206f776e6560008201527f7200000000000000000000000000000000000000000000000000000000000000602082015250565b7f4552433732313a207472616e736665722063616c6c6572206973206e6f74206f60008201527f776e6572206e6f7220617070726f766564000000000000000000000000000000602082015250565b6148fc816141da565b811461490757600080fd5b50565b614913816141ec565b811461491e57600080fd5b50565b61492a816141f8565b811461493557600080fd5b50565b61494181614244565b811461494c57600080fd5b5056fea2646970667358221220654bb5bf89c273d2bf48e26926791e8f76231da497fa31dea3e6c00e9d7b382164736f6c63430008010033",
  "linkReferences": {},
  "deployedLinkReferences": {}
}