{
  "_format": "hh-sol-artifact-1",
  "contractName": "VotingSystem",
  "sourceName": "contracts/VotingSystem.sol",
  "abi": [
    {
      "inputs": [],
      "stateMutability": "nonpayable",
      "type": "constructor"
    },
    {
      "anonymous": false,
      "inputs": [
        {
          "indexed": true,
          "internalType": "address",
          "name": "owner",
          "type": "address"
        },
        {
          "indexed": true,
          "internalType": "address",
          "name": "approved",
          "type": "address"
        },
        {
          "indexed": true,
          "internalType": "uint256",
          "name": "tokenId",
          "type": "uint256"
        }
      ],
      "name": "Approval",
      "type": "event"
    },
    {
      "anonymous": false,
      "inputs": [
        {
          "indexed": true,
          "internalType": "address",
          "name": "owner",
          "type": "address"
        },
        {
          "indexed": true,
          "internalType": "address",
          "name": "operator",
          "type": "address"
        },
        {
          "indexed": false,
          "internalType": "bool",
          "name": "approved",
          "type": "bool"
        }
      ],
      "name": "ApprovalForAll",
      "type": "event"
    },
    {
      "anonymous": false,
      "inputs": [
        {
          "indexed": true,
          "internalType": "address",
          "name": "candAdd",
          "type": "address"
        },
        {
          "indexed": false,
          "internalType": "string",
          "name": "name",
          "type": "string"
        },
        {
          "indexed": false,
          "internalType": "string",
          "name": "proposal",
          "type": "string"
        },
        {
          "indexed": false,
          "internalType": "uint256",
          "name": "votes",
          "type": "uint256"
        }
      ],
      "name": "NewCandidate",
      "type": "event"
    },
    {
      "anonymous": false,
      "inputs": [
        {
          "indexed": true,
          "internalType": "address",
          "name": "voterAdd",
          "type": "address"
        },
        {
          "indexed": false,
          "internalType": "string",
          "name": "name",
          "type": "string"
        },
        {
          "indexed": false,
          "internalType": "bool",
          "name": "voted",
          "type": "bool"
        }
      ],
      "name": "NewVoter",
      "type": "event"
    },
    {
      "anonymous": false,
      "inputs": [
        {
          "indexed": true,
          "internalType": "address",
          "name": "from",
          "type": "address"
        },
        {
          "indexed": true,
          "internalType": "address",
          "name": "to",
          "type": "address"
        },
        {
          "indexed": true,
          "internalType": "uint256",
          "name": "tokenId",
          "type": "uint256"
        }
      ],
      "name": "Transfer",
      "type": "event"
    },
    {
      "inputs": [
        {
          "internalType": "address",
          "name": "_candAddress",
          "type": "address"
        },
        {
          "internalType": "string",
          "name": "_candName",
          "type": "string"
        },
        {
          "internalType": "string",
          "name": "_candProposal",
          "type": "string"
        }
      ],
      "name": "addCandidate",
      "outputs": [],
      "stateMutability": "nonpayable",
      "type": "function"
    },
    {
      "inputs": [
        {
          "internalType": "address",
          "name": "_voterAddress",
          "type": "address"
        },
        {
          "internalType": "string",
          "name": "_voterName",
          "type": "string"
        }
      ],
      "name": "addVoter",
      "outputs": [],
      "stateMutability": "nonpayable",
      "type": "function"
    },
    {
      "inputs": [
        {
          "internalType": "address",
          "name": "to",
          "type": "address"
        },
        {
          "internalType": "uint256",
          "name": "tokenId",
          "type": "uint256"
        }
      ],
      "name": "approve",
      "outputs": [],
      "stateMutability": "nonpayable",
      "type": "function"
    },
    {
      "inputs": [
        {
          "internalType": "address",
          "name": "owner",
          "type": "address"
        }
      ],
      "name": "balanceOf",
      "outputs": [
        {
          "internalType": "uint256",
          "name": "",
          "type": "uint256"
        }
      ],
      "stateMutability": "view",
      "type": "function"
    },
    {
      "inputs": [
        {
          "internalType": "uint256",
          "name": "",
          "type": "uint256"
        }
      ],
      "name": "candArr",
      "outputs": [
        {
          "internalType": "address",
          "name": "candAddress",
          "type": "address"
        },
        {
          "internalType": "string",
          "name": "name",
          "type": "string"
        },
        {
          "internalType": "string",
          "name": "proposal",
          "type": "string"
        },
        {
          "internalType": "uint256",
          "name": "votes",
          "type": "uint256"
        }
      ],
      "stateMutability": "view",
      "type": "function"
    },
    {
      "inputs": [],
      "name": "candWinner",
      "outputs": [
        {
          "internalType": "address",
          "name": "_candAddress",
          "type": "address"
        },
        {
          "internalType": "string",
          "name": "_name",
          "type": "string"
        },
        {
          "internalType": "string",
          "name": "_proposal",
          "type": "string"
        },
        {
          "internalType": "uint256",
          "name": "_votes",
          "type": "uint256"
        }
      ],
      "stateMutability": "view",
      "type": "function"
    },
    {
      "inputs": [],
      "name": "endVoting",
      "outputs": [],
      "stateMutability": "nonpayable",
      "type": "function"
    },
    {
      "inputs": [
        {
          "internalType": "uint256",
          "name": "tokenId",
          "type": "uint256"
        }
      ],
      "name": "getApproved",
      "outputs": [
        {
          "internalType": "address",
          "name": "",
          "type": "address"
        }
      ],
      "stateMutability": "view",
      "type": "function"
    },
    {
      "inputs": [],
      "name": "getCandidates",
      "outputs": [
        {
          "components": [
            {
              "internalType": "address",
              "name": "candAddress",
              "type": "address"
            },
            {
              "internalType": "string",
              "name": "name",
              "type": "string"
            },
            {
              "internalType": "string",
              "name": "proposal",
              "type": "string"
            },
            {
              "internalType": "uint256",
              "name": "votes",
              "type": "uint256"
            }
          ],
          "internalType": "struct VotingSystem.candidate[]",
          "name": "",
          "type": "tuple[]"
        }
      ],
      "stateMutability": "view",
      "type": "function"
    },
    {
      "inputs": [],
      "name": "getTokenId",
      "outputs": [
        {
          "internalType": "uint256",
          "name": "Id",
          "type": "uint256"
        }
      ],
      "stateMutability": "view",
      "type": "function"
    },
    {
      "inputs": [],
      "name": "getVoters",
      "outputs": [
        {
          "components": [
            {
              "internalType": "address",
              "name": "voterAddress",
              "type": "address"
            },
            {
              "internalType": "string",
              "name": "name",
              "type": "string"
            },
            {
              "internalType": "bool",
              "name": "voted",
              "type": "bool"
            }
          ],
          "internalType": "struct VotingSystem.voter[]",
          "name": "",
          "type": "tuple[]"
        }
      ],
      "stateMutability": "view",
      "type": "function"
    },
    {
      "inputs": [
        {
          "internalType": "address",
          "name": "owner",
          "type": "address"
        },
        {
          "internalType": "address",
          "name": "operator",
          "type": "address"
        }
      ],
      "name": "isApprovedForAll",
      "outputs": [
        {
          "internalType": "bool",
          "name": "",
          "type": "bool"
        }
      ],
      "stateMutability": "view",
      "type": "function"
    },
    {
      "inputs": [
        {
          "internalType": "address",
          "name": "_ad",
          "type": "address"
        }
      ],
      "name": "isManager",
      "outputs": [
        {
          "internalType": "bool",
          "name": "",
          "type": "bool"
        }
      ],
      "stateMutability": "view",
      "type": "function"
    },
    {
      "inputs": [],
      "name": "isVotingAllowed",
      "outputs": [
        {
          "internalType": "bool",
          "name": "v_allow",
          "type": "bool"
        }
      ],
      "stateMutability": "view",
      "type": "function"
    },
    {
      "inputs": [
        {
          "internalType": "string",
          "name": "tokenUri",
          "type": "string"
        },
        {
          "internalType": "address",
          "name": "_recieverAdd",
          "type": "address"
        }
      ],
      "name": "makeAnEpicNFT",
      "outputs": [],
      "stateMutability": "nonpayable",
      "type": "function"
    },
    {
      "inputs": [],
      "name": "name",
      "outputs": [
        {
          "internalType": "string",
          "name": "",
          "type": "string"
        }
      ],
      "stateMutability": "view",
      "type": "function"
    },
    {
      "inputs": [
        {
          "internalType": "uint256",
          "name": "tokenId",
          "type": "uint256"
        }
      ],
      "name": "ownerOf",
      "outputs": [
        {
          "internalType": "address",
          "name": "",
          "type": "address"
        }
      ],
      "stateMutability": "view",
      "type": "function"
    },
    {
      "inputs": [],
      "name": "resetCandidates",
      "outputs": [],
      "stateMutability": "nonpayable",
      "type": "function"
    },
    {
      "inputs": [],
      "name": "resetVoters",
      "outputs": [],
      "stateMutability": "nonpayable",
      "type": "function"
    },
    {
      "inputs": [
        {
          "internalType": "address",
          "name": "from",
          "type": "address"
        },
        {
          "internalType": "address",
          "name": "to",
          "type": "address"
        },
        {
          "internalType": "uint256",
          "name": "tokenId",
          "type": "uint256"
        }
      ],
      "name": "safeTransferFrom",
      "outputs": [],
      "stateMutability": "nonpayable",
      "type": "function"
    },
    {
      "inputs": [
        {
          "internalType": "address",
          "name": "from",
          "type": "address"
        },
        {
          "internalType": "address",
          "name": "to",
          "type": "address"
        },
        {
          "internalType": "uint256",
          "name": "tokenId",
          "type": "uint256"
        },
        {
          "internalType": "bytes",
          "name": "_data",
          "type": "bytes"
        }
      ],
      "name": "safeTransferFrom",
      "outputs": [],
      "stateMutability": "nonpayable",
      "type": "function"
    },
    {
      "inputs": [
        {
          "internalType": "address",
          "name": "operator",
          "type": "address"
        },
        {
          "internalType": "bool",
          "name": "approved",
          "type": "bool"
        }
      ],
      "name": "setApprovalForAll",
      "outputs": [],
      "stateMutability": "nonpayable",
      "type": "function"
    },
    {
      "inputs": [],
      "name": "startVoting",
      "outputs": [],
      "stateMutability": "nonpayable",
      "type": "function"
    },
    {
      "inputs": [
        {
          "internalType": "bytes4",
          "name": "interfaceId",
          "type": "bytes4"
        }
      ],
      "name": "supportsInterface",
      "outputs": [
        {
          "internalType": "bool",
          "name": "",
          "type": "bool"
        }
      ],
      "stateMutability": "view",
      "type": "function"
    },
    {
      "inputs": [],
      "name": "symbol",
      "outputs": [
        {
          "internalType": "string",
          "name": "",
          "type": "string"
        }
      ],
      "stateMutability": "view",
      "type": "function"
    },
    {
      "inputs": [
        {
          "internalType": "uint256",
          "name": "tokenId",
          "type": "uint256"
        }
      ],
      "name": "tokenURI",
      "outputs": [
        {
          "internalType": "string",
          "name": "",
          "type": "string"
        }
      ],
      "stateMutability": "view",
      "type": "function"
    },
    {
      "inputs": [
        {
          "internalType": "address",
          "name": "from",
          "type": "address"
        },
        {
          "internalType": "address",
          "name": "to",
          "type": "address"
        },
        {
          "internalType": "uint256",
          "name": "tokenId",
          "type": "uint256"
        }
      ],
      "name": "transferFrom",
      "outputs": [],
      "stateMutability": "nonpayable",
      "type": "function"
    },
    {
      "inputs": [
        {
          "internalType": "address",
          "name": "_candAddress",
          "type": "address"
        }
      ],
      "name": "voteCandidate",
      "outputs": [],
      "stateMutability": "nonpayable",
      "type": "function"
    },
    {
      "inputs": [
        {
          "internalType": "uint256",
          "name": "",
          "type": "uint256"
        }
      ],
      "name": "voterArr",
      "outputs": [
        {
          "internalType": "address",
          "name": "voterAddress",
          "type": "address"
        },
        {
          "internalType": "string",
          "name": "name",
          "type": "string"
        },
        {
          "internalType": "bool",
          "name": "voted",
          "type": "bool"
        }
      ],
      "stateMutability": "view",
      "type": "function"
    },
    {
      "inputs": [],
      "name": "votingStatus",
      "outputs": [
        {
          "internalType": "bool",
          "name": "voteAllow",
          "type": "bool"
        }
      ],
      "stateMutability": "view",
      "type": "function"
    }
  ],
  "bytecode": "0x60806040523480156200001157600080fd5b506040518060400160405280600981526020017f57696e6e65724e465400000000000000000000000000000000000000000000008152506040518060400160405280600481526020017f574e465400000000000000000000000000000000000000000000000000000000815250816000908051906020019062000096929190620000f9565b508060019080519060200190620000af929190620000f9565b50505033600960006101000a81548173ffffffffffffffffffffffffffffffffffffffff021916908373ffffffffffffffffffffffffffffffffffffffff1602179055506200020e565b8280546200010790620001a9565b90600052602060002090601f0160209004810192826200012b576000855562000177565b82601f106200014657805160ff191683800117855562000177565b8280016001018555821562000177579182015b828111156200017657825182559160200191906001019062000159565b5b5090506200018691906200018a565b5090565b5b80821115620001a55760008160009055506001016200018b565b5090565b60006002820490506001821680620001c257607f821691505b60208210811415620001d957620001d8620001df565b5b50919050565b7f4e487b7100000000000000000000000000000000000000000000000000000000600052602260045260246000fd5b6149c5806200021e6000396000f3fe608060405234801561001057600080fd5b50600436106101da5760003560e01c806370a0823111610104578063c3403ddf116100a2578063e22a623111610071578063e22a6231146104fd578063e985e9c514610519578063f2a3991c14610549578063f3ae24151461057b576101da565b8063c3403ddf14610489578063c87b56dd14610493578063cdd72253146104c3578063d9e95a98146104e1576101da565b806395d89b41116100de57806395d89b4114610417578063a001faf314610435578063a22cb46514610451578063b88d4fde1461046d576101da565b806370a08231146103aa5780637718d9f3146103da5780637cabb274146103e4576101da565b80631ec6b60a1161017c57806342842e0e1161014b57806342842e0e14610336578063553bd397146103525780636352211e1461035c5780636df37fd71461038c576101da565b80631ec6b60a146102d357806323b872dd146102dd57806326bb886d146102f95780632f08a7b314610315576101da565b806306fdde03116101b857806306fdde031461024b578063081812fc14610269578063095ea7b31461029957806319f41a40146102b5576101da565b8063010a38f5146101df57806301ffc9a7146101fd57806306a49fce1461022d575b600080fd5b6101e76105ab565b6040516101f49190613ff7565b60405180910390f35b61021760048036038101906102129190613592565b6105ca565b6040516102249190613d25565b60405180910390f35b6102356106ac565b6040516102429190613ce1565b60405180910390f35b61025361088f565b6040516102609190613d40565b60405180910390f35b610283600480360381019061027e9190613638565b610921565b6040516102909190613be9565b60405180910390f35b6102b360048036038101906102ae9190613556565b6109a6565b005b6102bd610abe565b6040516102ca9190613d25565b60405180910390f35b6102db610ad5565b005b6102f760048036038101906102f2919061337d565b610b4c565b005b610313600480360381019061030e9190613318565b610bac565b005b61031d610f68565b60405161032d9493929190613c8e565b60405180910390f35b610350600480360381019061034b919061337d565b61127d565b005b61035a61129d565b005b61037660048036038101906103719190613638565b611307565b6040516103839190613be9565b60405180910390f35b6103946113b9565b6040516103a19190613d25565b60405180910390f35b6103c460048036038101906103bf9190613318565b6113d0565b6040516103d19190613ff7565b60405180910390f35b6103e2611488565b005b6103fe60048036038101906103f99190613638565b6114f2565b60405161040e9493929190613c8e565b60405180910390f35b61041f611662565b60405161042c9190613d40565b60405180910390f35b61044f600480360381019061044a91906135e4565b6116f4565b005b61046b60048036038101906104669190613447565b611725565b005b610487600480360381019061048291906133cc565b61173b565b005b61049161179d565b005b6104ad60048036038101906104a89190613638565b611814565b6040516104ba9190613d40565b60405180910390f35b6104cb611966565b6040516104d89190613d03565b60405180910390f35b6104fb60048036038101906104f69190613483565b611ac8565b005b610517600480360381019061051291906134d7565b611d24565b005b610533600480360381019061052e9190613341565b611f8e565b6040516105409190613d25565b60405180910390f35b610563600480360381019061055e9190613638565b612022565b60405161057293929190613c50565b60405180910390f35b61059560048036038101906105909190613318565b612111565b6040516105a29190613d25565b60405180910390f35b6000806105b8600a61216b565b90506105c381612179565b8091505090565b60007f80ac58cd000000000000000000000000000000000000000000000000000000007bffffffffffffffffffffffffffffffffffffffffffffffffffffffff1916827bffffffffffffffffffffffffffffffffffffffffffffffffffffffff1916148061069557507f5b5e139f000000000000000000000000000000000000000000000000000000007bffffffffffffffffffffffffffffffffffffffffffffffffffffffff1916827bffffffffffffffffffffffffffffffffffffffffffffffffffffffff1916145b806106a557506106a482612212565b5b9050919050565b60606007805480602002602001604051908101604052809291908181526020016000905b8282101561088657838290600052602060002090600402016040518060800160405290816000820160009054906101000a900473ffffffffffffffffffffffffffffffffffffffff1673ffffffffffffffffffffffffffffffffffffffff1673ffffffffffffffffffffffffffffffffffffffff168152602001600182018054610759906142e2565b80601f0160208091040260200160405190810160405280929190818152602001828054610785906142e2565b80156107d25780601f106107a7576101008083540402835291602001916107d2565b820191906000526020600020905b8154815290600101906020018083116107b557829003601f168201915b505050505081526020016002820180546107eb906142e2565b80601f0160208091040260200160405190810160405280929190818152602001828054610817906142e2565b80156108645780601f1061083957610100808354040283529160200191610864565b820191906000526020600020905b81548152906001019060200180831161084757829003601f168201915b50505050508152602001600382015481525050815260200190600101906106d0565b50505050905090565b60606000805461089e906142e2565b80601f01602080910402602001604051908101604052809291908181526020018280546108ca906142e2565b80156109175780601f106108ec57610100808354040283529160200191610917565b820191906000526020600020905b8154815290600101906020018083116108fa57829003601f168201915b5050505050905090565b600061092c8261227c565b61096b576040517f08c379a000000000000000000000000000000000000000000000000000000000815260040161096290613f77565b60405180910390fd5b6004600083815260200190815260200160002060009054906101000a900473ffffffffffffffffffffffffffffffffffffffff169050919050565b60006109b182611307565b90508073ffffffffffffffffffffffffffffffffffffffff168373ffffffffffffffffffffffffffffffffffffffff161415610a22576040517f08c379a0000000000000000000000000000000000000000000000000000000008152600401610a1990613fb7565b60405180910390fd5b8073ffffffffffffffffffffffffffffffffffffffff16610a416122e8565b73ffffffffffffffffffffffffffffffffffffffff161480610a705750610a6f81610a6a6122e8565b611f8e565b5b610aaf576040517f08c379a0000000000000000000000000000000000000000000000000000000008152600401610aa690613eb7565b60405180910390fd5b610ab983836122f0565b505050565b6000600960149054906101000a900460ff16905090565b600960009054906101000a900473ffffffffffffffffffffffffffffffffffffffff1673ffffffffffffffffffffffffffffffffffffffff163373ffffffffffffffffffffffffffffffffffffffff1614610b2f57600080fd5b6001600960146101000a81548160ff021916908315150217905550565b610b5d610b576122e8565b826123a9565b610b9c576040517f08c379a0000000000000000000000000000000000000000000000000000000008152600401610b9390613fd7565b60405180910390fd5b610ba7838383612487565b505050565b600960149054906101000a900460ff16610bfb576040517f08c379a0000000000000000000000000000000000000000000000000000000008152600401610bf290613df7565b60405180910390fd5b600960009054906101000a900473ffffffffffffffffffffffffffffffffffffffff1673ffffffffffffffffffffffffffffffffffffffff163373ffffffffffffffffffffffffffffffffffffffff161415610c5657600080fd5b60008060005b600880549050811015610d235760088181548110610ca3577f4e487b7100000000000000000000000000000000000000000000000000000000600052603260045260246000fd5b906000526020600020906003020160000160009054906101000a900473ffffffffffffffffffffffffffffffffffffffff1673ffffffffffffffffffffffffffffffffffffffff163373ffffffffffffffffffffffffffffffffffffffff161415610d1057809150600192505b8080610d1b90614345565b915050610c5c565b5060018214610d3157600080fd5b60088181548110610d6b577f4e487b7100000000000000000000000000000000000000000000000000000000600052603260045260246000fd5b906000526020600020906003020160020160009054906101000a900460ff1615610d9457600080fd5b60005b600780549050811015610f625760078181548110610dde577f4e487b7100000000000000000000000000000000000000000000000000000000600052603260045260246000fd5b906000526020600020906004020160000160009054906101000a900473ffffffffffffffffffffffffffffffffffffffff1673ffffffffffffffffffffffffffffffffffffffff168473ffffffffffffffffffffffffffffffffffffffff161415610f4f57600160078281548110610e7f577f4e487b7100000000000000000000000000000000000000000000000000000000600052603260045260246000fd5b906000526020600020906004020160030154610e9b919061415f565b60078281548110610ed5577f4e487b7100000000000000000000000000000000000000000000000000000000600052603260045260246000fd5b906000526020600020906004020160030181905550600160088381548110610f26577f4e487b7100000000000000000000000000000000000000000000000000000000600052603260045260246000fd5b906000526020600020906003020160020160006101000a81548160ff0219169083151502179055505b8080610f5a90614345565b915050610d97565b50505050565b60006060806000600960149054906101000a900460ff1615610f8957600080fd5b60008060005b6007805490508110156110065760078181548110610fd6577f4e487b7100000000000000000000000000000000000000000000000000000000600052603260045260246000fd5b906000526020600020906004020160030154831015610ff3578091505b8080610ffe90614345565b915050610f8f565b5060078181548110611041577f4e487b7100000000000000000000000000000000000000000000000000000000600052603260045260246000fd5b906000526020600020906004020160000160009054906101000a900473ffffffffffffffffffffffffffffffffffffffff16600782815481106110ad577f4e487b7100000000000000000000000000000000000000000000000000000000600052603260045260246000fd5b9060005260206000209060040201600101600783815481106110f8577f4e487b7100000000000000000000000000000000000000000000000000000000600052603260045260246000fd5b906000526020600020906004020160020160078481548110611143577f4e487b7100000000000000000000000000000000000000000000000000000000600052603260045260246000fd5b906000526020600020906004020160030154828054611161906142e2565b80601f016020809104026020016040519081016040528092919081815260200182805461118d906142e2565b80156111da5780601f106111af576101008083540402835291602001916111da565b820191906000526020600020905b8154815290600101906020018083116111bd57829003601f168201915b505050505092508180546111ed906142e2565b80601f0160208091040260200160405190810160405280929190818152602001828054611219906142e2565b80156112665780601f1061123b57610100808354040283529160200191611266565b820191906000526020600020905b81548152906001019060200180831161124957829003601f168201915b505050505091509550955095509550505090919293565b6112988383836040518060200160405280600081525061173b565b505050565b600960009054906101000a900473ffffffffffffffffffffffffffffffffffffffff1673ffffffffffffffffffffffffffffffffffffffff163373ffffffffffffffffffffffffffffffffffffffff16146112f757600080fd5b600860006113059190612fec565b565b6000806002600084815260200190815260200160002060009054906101000a900473ffffffffffffffffffffffffffffffffffffffff169050600073ffffffffffffffffffffffffffffffffffffffff168173ffffffffffffffffffffffffffffffffffffffff1614156113b0576040517f08c379a00000000000000000000000000000000000000000000000000000000081526004016113a790613ef7565b60405180910390fd5b80915050919050565b6000600960149054906101000a900460ff16905090565b60008073ffffffffffffffffffffffffffffffffffffffff168273ffffffffffffffffffffffffffffffffffffffff161415611441576040517f08c379a000000000000000000000000000000000000000000000000000000000815260040161143890613ed7565b60405180910390fd5b600360008373ffffffffffffffffffffffffffffffffffffffff1673ffffffffffffffffffffffffffffffffffffffff168152602001908152602001600020549050919050565b600960009054906101000a900473ffffffffffffffffffffffffffffffffffffffff1673ffffffffffffffffffffffffffffffffffffffff163373ffffffffffffffffffffffffffffffffffffffff16146114e257600080fd5b600760006114f09190613010565b565b6007818154811061150257600080fd5b90600052602060002090600402016000915090508060000160009054906101000a900473ffffffffffffffffffffffffffffffffffffffff169080600101805461154b906142e2565b80601f0160208091040260200160405190810160405280929190818152602001828054611577906142e2565b80156115c45780601f10611599576101008083540402835291602001916115c4565b820191906000526020600020905b8154815290600101906020018083116115a757829003601f168201915b5050505050908060020180546115d9906142e2565b80601f0160208091040260200160405190810160405280929190818152602001828054611605906142e2565b80156116525780601f1061162757610100808354040283529160200191611652565b820191906000526020600020905b81548152906001019060200180831161163557829003601f168201915b5050505050908060030154905084565b606060018054611671906142e2565b80601f016020809104026020016040519081016040528092919081815260200182805461169d906142e2565b80156116ea5780601f106116bf576101008083540402835291602001916116ea565b820191906000526020600020905b8154815290600101906020018083116116cd57829003601f168201915b5050505050905090565b6000611700600a61216b565b905061170c82826126ee565b611716818461270c565b611720600a612780565b505050565b6117376117306122e8565b8383612796565b5050565b61174c6117466122e8565b836123a9565b61178b576040517f08c379a000000000000000000000000000000000000000000000000000000000815260040161178290613fd7565b60405180910390fd5b61179784848484612903565b50505050565b600960009054906101000a900473ffffffffffffffffffffffffffffffffffffffff1673ffffffffffffffffffffffffffffffffffffffff163373ffffffffffffffffffffffffffffffffffffffff16146117f757600080fd5b6000600960146101000a81548160ff021916908315150217905550565b606061181f8261227c565b61185e576040517f08c379a000000000000000000000000000000000000000000000000000000000815260040161185590613f57565b60405180910390fd5b600060066000848152602001908152602001600020805461187e906142e2565b80601f01602080910402602001604051908101604052809291908181526020018280546118aa906142e2565b80156118f75780601f106118cc576101008083540402835291602001916118f7565b820191906000526020600020905b8154815290600101906020018083116118da57829003601f168201915b50505050509050600061190861295f565b905060008151141561191e578192505050611961565b60008251111561195357808260405160200161193b929190613bc5565b60405160208183030381529060405292505050611961565b61195c84612976565b925050505b919050565b60606008805480602002602001604051908101604052809291908181526020016000905b82821015611abf57838290600052602060002090600302016040518060600160405290816000820160009054906101000a900473ffffffffffffffffffffffffffffffffffffffff1673ffffffffffffffffffffffffffffffffffffffff1673ffffffffffffffffffffffffffffffffffffffff168152602001600182018054611a13906142e2565b80601f0160208091040260200160405190810160405280929190818152602001828054611a3f906142e2565b8015611a8c5780601f10611a6157610100808354040283529160200191611a8c565b820191906000526020600020905b815481529060010190602001808311611a6f57829003601f168201915b505050505081526020016002820160009054906101000a900460ff1615151515815250508152602001906001019061198a565b50505050905090565b600960009054906101000a900473ffffffffffffffffffffffffffffffffffffffff1673ffffffffffffffffffffffffffffffffffffffff163373ffffffffffffffffffffffffffffffffffffffff1614611b2257600080fd5b60005b600880549050811015611be95760088181548110611b6c577f4e487b7100000000000000000000000000000000000000000000000000000000600052603260045260246000fd5b906000526020600020906003020160000160009054906101000a900473ffffffffffffffffffffffffffffffffffffffff1673ffffffffffffffffffffffffffffffffffffffff168373ffffffffffffffffffffffffffffffffffffffff161415611bd657600080fd5b8080611be190614345565b915050611b25565b50600860405180606001604052808473ffffffffffffffffffffffffffffffffffffffff16815260200183815260200160001515815250908060018154018082558091505060019003906000526020600020906003020160009091909190915060008201518160000160006101000a81548173ffffffffffffffffffffffffffffffffffffffff021916908373ffffffffffffffffffffffffffffffffffffffff1602179055506020820151816001019080519060200190611cac929190613034565b5060408201518160020160006101000a81548160ff02191690831515021790555050508173ffffffffffffffffffffffffffffffffffffffff167fd1341ba54138fc2127191a51c3e4e2dc76e5ca995a4fa8044a609b6e5c4b2331826000604051611d18929190613d62565b60405180910390a25050565b600960009054906101000a900473ffffffffffffffffffffffffffffffffffffffff1673ffffffffffffffffffffffffffffffffffffffff163373ffffffffffffffffffffffffffffffffffffffff1614611d7e57600080fd5b60005b600780549050811015611e455760078181548110611dc8577f4e487b7100000000000000000000000000000000000000000000000000000000600052603260045260246000fd5b906000526020600020906004020160000160009054906101000a900473ffffffffffffffffffffffffffffffffffffffff1673ffffffffffffffffffffffffffffffffffffffff168473ffffffffffffffffffffffffffffffffffffffff161415611e3257600080fd5b8080611e3d90614345565b915050611d81565b50600760405180608001604052808573ffffffffffffffffffffffffffffffffffffffff1681526020018481526020018381526020016000815250908060018154018082558091505060019003906000526020600020906004020160009091909190915060008201518160000160006101000a81548173ffffffffffffffffffffffffffffffffffffffff021916908373ffffffffffffffffffffffffffffffffffffffff1602179055506020820151816001019080519060200190611f0c929190613034565b506040820151816002019080519060200190611f29929190613034565b506060820151816003015550508273ffffffffffffffffffffffffffffffffffffffff167fc7e9b5441428ea3adeaac63526e39b43f0105390be443ebe7cc976c304840ddd83836000604051611f8193929190613d92565b60405180910390a2505050565b6000600560008473ffffffffffffffffffffffffffffffffffffffff1673ffffffffffffffffffffffffffffffffffffffff16815260200190815260200160002060008373ffffffffffffffffffffffffffffffffffffffff1673ffffffffffffffffffffffffffffffffffffffff16815260200190815260200160002060009054906101000a900460ff16905092915050565b6008818154811061203257600080fd5b90600052602060002090600302016000915090508060000160009054906101000a900473ffffffffffffffffffffffffffffffffffffffff169080600101805461207b906142e2565b80601f01602080910402602001604051908101604052809291908181526020018280546120a7906142e2565b80156120f45780601f106120c9576101008083540402835291602001916120f4565b820191906000526020600020905b8154815290600101906020018083116120d757829003601f168201915b5050505050908060020160009054906101000a900460ff16905083565b6000600960009054906101000a900473ffffffffffffffffffffffffffffffffffffffff1673ffffffffffffffffffffffffffffffffffffffff168273ffffffffffffffffffffffffffffffffffffffff16149050919050565b600081600001549050919050565b61220f8160405160240161218d9190613ff7565b6040516020818303038152906040527ff5b1bba9000000000000000000000000000000000000000000000000000000007bffffffffffffffffffffffffffffffffffffffffffffffffffffffff19166020820180517bffffffffffffffffffffffffffffffffffffffffffffffffffffffff8381831617835250505050612a1d565b50565b60007f01ffc9a7000000000000000000000000000000000000000000000000000000007bffffffffffffffffffffffffffffffffffffffffffffffffffffffff1916827bffffffffffffffffffffffffffffffffffffffffffffffffffffffff1916149050919050565b60008073ffffffffffffffffffffffffffffffffffffffff166002600084815260200190815260200160002060009054906101000a900473ffffffffffffffffffffffffffffffffffffffff1673ffffffffffffffffffffffffffffffffffffffff1614159050919050565b600033905090565b816004600083815260200190815260200160002060006101000a81548173ffffffffffffffffffffffffffffffffffffffff021916908373ffffffffffffffffffffffffffffffffffffffff160217905550808273ffffffffffffffffffffffffffffffffffffffff1661236383611307565b73ffffffffffffffffffffffffffffffffffffffff167f8c5be1e5ebec7d5bd14f71427d1e84f3dd0314c0f7b2291e5b200ac8c7c3b92560405160405180910390a45050565b60006123b48261227c565b6123f3576040517f08c379a00000000000000000000000000000000000000000000000000000000081526004016123ea90613e97565b60405180910390fd5b60006123fe83611307565b90508073ffffffffffffffffffffffffffffffffffffffff168473ffffffffffffffffffffffffffffffffffffffff161480612440575061243f8185611f8e565b5b8061247e57508373ffffffffffffffffffffffffffffffffffffffff1661246684610921565b73ffffffffffffffffffffffffffffffffffffffff16145b91505092915050565b8273ffffffffffffffffffffffffffffffffffffffff166124a782611307565b73ffffffffffffffffffffffffffffffffffffffff16146124fd576040517f08c379a00000000000000000000000000000000000000000000000000000000081526004016124f490613e17565b60405180910390fd5b600073ffffffffffffffffffffffffffffffffffffffff168273ffffffffffffffffffffffffffffffffffffffff16141561256d576040517f08c379a000000000000000000000000000000000000000000000000000000000815260040161256490613e57565b60405180910390fd5b612578838383612a46565b6125836000826122f0565b6001600360008573ffffffffffffffffffffffffffffffffffffffff1673ffffffffffffffffffffffffffffffffffffffff16815260200190815260200160002060008282546125d391906141e6565b925050819055506001600360008473ffffffffffffffffffffffffffffffffffffffff1673ffffffffffffffffffffffffffffffffffffffff168152602001908152602001600020600082825461262a919061415f565b92505081905550816002600083815260200190815260200160002060006101000a81548173ffffffffffffffffffffffffffffffffffffffff021916908373ffffffffffffffffffffffffffffffffffffffff160217905550808273ffffffffffffffffffffffffffffffffffffffff168473ffffffffffffffffffffffffffffffffffffffff167fddf252ad1be2c89b69c2b068fc378daa952ba7f163c4a11628f55a4df523b3ef60405160405180910390a46126e9838383612a4b565b505050565b612708828260405180602001604052806000815250612a50565b5050565b6127158261227c565b612754576040517f08c379a000000000000000000000000000000000000000000000000000000000815260040161274b90613f17565b60405180910390fd5b8060066000848152602001908152602001600020908051906020019061277b929190613034565b505050565b6001816000016000828254019250508190555050565b8173ffffffffffffffffffffffffffffffffffffffff168373ffffffffffffffffffffffffffffffffffffffff161415612805576040517f08c379a00000000000000000000000000000000000000000000000000000000081526004016127fc90613e77565b60405180910390fd5b80600560008573ffffffffffffffffffffffffffffffffffffffff1673ffffffffffffffffffffffffffffffffffffffff16815260200190815260200160002060008473ffffffffffffffffffffffffffffffffffffffff1673ffffffffffffffffffffffffffffffffffffffff16815260200190815260200160002060006101000a81548160ff0219169083151502179055508173ffffffffffffffffffffffffffffffffffffffff168373ffffffffffffffffffffffffffffffffffffffff167f17307eab39ab6107e8899845ad3d59bd9653f200f220920489ca2b5937696c31836040516128f69190613d25565b60405180910390a3505050565b61290e848484612487565b61291a84848484612aab565b612959576040517f08c379a000000000000000000000000000000000000000000000000000000000815260040161295090613dd7565b60405180910390fd5b50505050565b606060405180602001604052806000815250905090565b60606129818261227c565b6129c0576040517f08c379a00000000000000000000000000000000000000000000000000000000081526004016129b790613f97565b60405180910390fd5b60006129ca61295f565b905060008151116129ea5760405180602001604052806000815250612a15565b806129f484612c42565b604051602001612a05929190613bc5565b6040516020818303038152906040525b915050919050565b60008151905060006a636f6e736f6c652e6c6f679050602083016000808483855afa5050505050565b505050565b505050565b612a5a8383612def565b612a676000848484612aab565b612aa6576040517f08c379a0000000000000000000000000000000000000000000000000000000008152600401612a9d90613dd7565b60405180910390fd5b505050565b6000612acc8473ffffffffffffffffffffffffffffffffffffffff16612fc9565b15612c35578373ffffffffffffffffffffffffffffffffffffffff1663150b7a02612af56122e8565b8786866040518563ffffffff1660e01b8152600401612b179493929190613c04565b602060405180830381600087803b158015612b3157600080fd5b505af1925050508015612b6257506040513d601f19601f82011682018060405250810190612b5f91906135bb565b60015b612be5573d8060008114612b92576040519150601f19603f3d011682016040523d82523d6000602084013e612b97565b606091505b50600081511415612bdd576040517f08c379a0000000000000000000000000000000000000000000000000000000008152600401612bd490613dd7565b60405180910390fd5b805181602001fd5b63150b7a0260e01b7bffffffffffffffffffffffffffffffffffffffffffffffffffffffff1916817bffffffffffffffffffffffffffffffffffffffffffffffffffffffff191614915050612c3a565b600190505b949350505050565b60606000821415612c8a576040518060400160405280600181526020017f30000000000000000000000000000000000000000000000000000000000000008152509050612dea565b600082905060005b60008214612cbc578080612ca590614345565b915050600a82612cb591906141b5565b9150612c92565b60008167ffffffffffffffff811115612cfe577f4e487b7100000000000000000000000000000000000000000000000000000000600052604160045260246000fd5b6040519080825280601f01601f191660200182016040528015612d305781602001600182028036833780820191505090505b5090505b60008514612de357600182612d4991906141e6565b9150600a85612d58919061438e565b6030612d64919061415f565b60f81b818381518110612da0577f4e487b7100000000000000000000000000000000000000000000000000000000600052603260045260246000fd5b60200101907effffffffffffffffffffffffffffffffffffffffffffffffffffffffffffff1916908160001a905350600a85612ddc91906141b5565b9450612d34565b8093505050505b919050565b600073ffffffffffffffffffffffffffffffffffffffff168273ffffffffffffffffffffffffffffffffffffffff161415612e5f576040517f08c379a0000000000000000000000000000000000000000000000000000000008152600401612e5690613f37565b60405180910390fd5b612e688161227c565b15612ea8576040517f08c379a0000000000000000000000000000000000000000000000000000000008152600401612e9f90613e37565b60405180910390fd5b612eb460008383612a46565b6001600360008473ffffffffffffffffffffffffffffffffffffffff1673ffffffffffffffffffffffffffffffffffffffff1681526020019081526020016000206000828254612f04919061415f565b92505081905550816002600083815260200190815260200160002060006101000a81548173ffffffffffffffffffffffffffffffffffffffff021916908373ffffffffffffffffffffffffffffffffffffffff160217905550808273ffffffffffffffffffffffffffffffffffffffff16600073ffffffffffffffffffffffffffffffffffffffff167fddf252ad1be2c89b69c2b068fc378daa952ba7f163c4a11628f55a4df523b3ef60405160405180910390a4612fc560008383612a4b565b5050565b6000808273ffffffffffffffffffffffffffffffffffffffff163b119050919050565b508054600082556003029060005260206000209081019061300d91906130ba565b50565b5080546000825560040290600052602060002090810190613031919061311c565b50565b828054613040906142e2565b90600052602060002090601f01602090048101928261306257600085556130a9565b82601f1061307b57805160ff19168380011785556130a9565b828001600101855582156130a9579182015b828111156130a857825182559160200191906001019061308d565b5b5090506130b69190613182565b5090565b5b8082111561311857600080820160006101000a81549073ffffffffffffffffffffffffffffffffffffffff02191690556001820160006130fb919061319f565b6002820160006101000a81549060ff0219169055506003016130bb565b5090565b5b8082111561317e57600080820160006101000a81549073ffffffffffffffffffffffffffffffffffffffff021916905560018201600061315d919061319f565b60028201600061316d919061319f565b60038201600090555060040161311d565b5090565b5b8082111561319b576000816000905550600101613183565b5090565b5080546131ab906142e2565b6000825580601f106131bd57506131dc565b601f0160209004906000526020600020908101906131db9190613182565b5b50565b60006131f26131ed84614037565b614012565b90508281526020810184848401111561320a57600080fd5b6132158482856142a0565b509392505050565b600061323061322b84614068565b614012565b90508281526020810184848401111561324857600080fd5b6132538482856142a0565b509392505050565b60008135905061326a81614933565b92915050565b60008135905061327f8161494a565b92915050565b60008135905061329481614961565b92915050565b6000815190506132a981614961565b92915050565b600082601f8301126132c057600080fd5b81356132d08482602086016131df565b91505092915050565b600082601f8301126132ea57600080fd5b81356132fa84826020860161321d565b91505092915050565b60008135905061331281614978565b92915050565b60006020828403121561332a57600080fd5b60006133388482850161325b565b91505092915050565b6000806040838503121561335457600080fd5b60006133628582860161325b565b92505060206133738582860161325b565b9150509250929050565b60008060006060848603121561339257600080fd5b60006133a08682870161325b565b93505060206133b18682870161325b565b92505060406133c286828701613303565b9150509250925092565b600080600080608085870312156133e257600080fd5b60006133f08782880161325b565b94505060206134018782880161325b565b935050604061341287828801613303565b925050606085013567ffffffffffffffff81111561342f57600080fd5b61343b878288016132af565b91505092959194509250565b6000806040838503121561345a57600080fd5b60006134688582860161325b565b925050602061347985828601613270565b9150509250929050565b6000806040838503121561349657600080fd5b60006134a48582860161325b565b925050602083013567ffffffffffffffff8111156134c157600080fd5b6134cd858286016132d9565b9150509250929050565b6000806000606084860312156134ec57600080fd5b60006134fa8682870161325b565b935050602084013567ffffffffffffffff81111561351757600080fd5b613523868287016132d9565b925050604084013567ffffffffffffffff81111561354057600080fd5b61354c868287016132d9565b9150509250925092565b6000806040838503121561356957600080fd5b60006135778582860161325b565b925050602061358885828601613303565b9150509250929050565b6000602082840312156135a457600080fd5b60006135b284828501613285565b91505092915050565b6000602082840312156135cd57600080fd5b60006135db8482850161329a565b91505092915050565b600080604083850312156135f757600080fd5b600083013567ffffffffffffffff81111561361157600080fd5b61361d858286016132d9565b925050602061362e8582860161325b565b9150509250929050565b60006020828403121561364a57600080fd5b600061365884828501613303565b91505092915050565b600061366d8383613aed565b905092915050565b60006136818383613b57565b905092915050565b6136928161421a565b82525050565b6136a18161421a565b82525050565b60006136b2826140b9565b6136bc81856140ff565b9350836020820285016136ce85614099565b8060005b8581101561370a57848403895281516136eb8582613661565b94506136f6836140e5565b925060208a019950506001810190506136d2565b50829750879550505050505092915050565b6000613727826140c4565b6137318185614110565b935083602082028501613743856140a9565b8060005b8581101561377f57848403895281516137608582613675565b945061376b836140f2565b925060208a01995050600181019050613747565b50829750879550505050505092915050565b61379a8161422c565b82525050565b6137a98161422c565b82525050565b60006137ba826140cf565b6137c48185614121565b93506137d48185602086016142af565b6137dd8161447b565b840191505092915050565b6137f18161428e565b82525050565b6000613802826140da565b61380c8185614132565b935061381c8185602086016142af565b6138258161447b565b840191505092915050565b600061383b826140da565b6138458185614143565b93506138558185602086016142af565b61385e8161447b565b840191505092915050565b6000613874826140da565b61387e8185614154565b935061388e8185602086016142af565b80840191505092915050565b60006138a7603283614143565b91506138b28261448c565b604082019050919050565b60006138ca601683614143565b91506138d5826144db565b602082019050919050565b60006138ed602583614143565b91506138f882614504565b604082019050919050565b6000613910601c83614143565b915061391b82614553565b602082019050919050565b6000613933602483614143565b915061393e8261457c565b604082019050919050565b6000613956601983614143565b9150613961826145cb565b602082019050919050565b6000613979602c83614143565b9150613984826145f4565b604082019050919050565b600061399c603883614143565b91506139a782614643565b604082019050919050565b60006139bf602a83614143565b91506139ca82614692565b604082019050919050565b60006139e2602983614143565b91506139ed826146e1565b604082019050919050565b6000613a05602e83614143565b9150613a1082614730565b604082019050919050565b6000613a28602083614143565b9150613a338261477f565b602082019050919050565b6000613a4b603183614143565b9150613a56826147a8565b604082019050919050565b6000613a6e602c83614143565b9150613a79826147f7565b604082019050919050565b6000613a91602f83614143565b9150613a9c82614846565b604082019050919050565b6000613ab4602183614143565b9150613abf82614895565b604082019050919050565b6000613ad7603183614143565b9150613ae2826148e4565b604082019050919050565b6000608083016000830151613b056000860182613689565b5060208301518482036020860152613b1d82826137f7565b91505060408301518482036040860152613b3782826137f7565b9150506060830151613b4c6060860182613ba7565b508091505092915050565b6000606083016000830151613b6f6000860182613689565b5060208301518482036020860152613b8782826137f7565b9150506040830151613b9c6040860182613791565b508091505092915050565b613bb081614284565b82525050565b613bbf81614284565b82525050565b6000613bd18285613869565b9150613bdd8284613869565b91508190509392505050565b6000602082019050613bfe6000830184613698565b92915050565b6000608082019050613c196000830187613698565b613c266020830186613698565b613c336040830185613bb6565b8181036060830152613c4581846137af565b905095945050505050565b6000606082019050613c656000830186613698565b8181036020830152613c778185613830565b9050613c8660408301846137a0565b949350505050565b6000608082019050613ca36000830187613698565b8181036020830152613cb58186613830565b90508181036040830152613cc98185613830565b9050613cd86060830184613bb6565b95945050505050565b60006020820190508181036000830152613cfb81846136a7565b905092915050565b60006020820190508181036000830152613d1d818461371c565b905092915050565b6000602082019050613d3a60008301846137a0565b92915050565b60006020820190508181036000830152613d5a8184613830565b905092915050565b60006040820190508181036000830152613d7c8185613830565b9050613d8b60208301846137a0565b9392505050565b60006060820190508181036000830152613dac8186613830565b90508181036020830152613dc08185613830565b9050613dcf60408301846137e8565b949350505050565b60006020820190508181036000830152613df08161389a565b9050919050565b60006020820190508181036000830152613e10816138bd565b9050919050565b60006020820190508181036000830152613e30816138e0565b9050919050565b60006020820190508181036000830152613e5081613903565b9050919050565b60006020820190508181036000830152613e7081613926565b9050919050565b60006020820190508181036000830152613e9081613949565b9050919050565b60006020820190508181036000830152613eb08161396c565b9050919050565b60006020820190508181036000830152613ed08161398f565b9050919050565b60006020820190508181036000830152613ef0816139b2565b9050919050565b60006020820190508181036000830152613f10816139d5565b9050919050565b60006020820190508181036000830152613f30816139f8565b9050919050565b60006020820190508181036000830152613f5081613a1b565b9050919050565b60006020820190508181036000830152613f7081613a3e565b9050919050565b60006020820190508181036000830152613f9081613a61565b9050919050565b60006020820190508181036000830152613fb081613a84565b9050919050565b60006020820190508181036000830152613fd081613aa7565b9050919050565b60006020820190508181036000830152613ff081613aca565b9050919050565b600060208201905061400c6000830184613bb6565b92915050565b600061401c61402d565b90506140288282614314565b919050565b6000604051905090565b600067ffffffffffffffff8211156140525761405161444c565b5b61405b8261447b565b9050602081019050919050565b600067ffffffffffffffff8211156140835761408261444c565b5b61408c8261447b565b9050602081019050919050565b6000819050602082019050919050565b6000819050602082019050919050565b600081519050919050565b600081519050919050565b600081519050919050565b600081519050919050565b6000602082019050919050565b6000602082019050919050565b600082825260208201905092915050565b600082825260208201905092915050565b600082825260208201905092915050565b600082825260208201905092915050565b600082825260208201905092915050565b600081905092915050565b600061416a82614284565b915061417583614284565b9250827fffffffffffffffffffffffffffffffffffffffffffffffffffffffffffffffff038211156141aa576141a96143bf565b5b828201905092915050565b60006141c082614284565b91506141cb83614284565b9250826141db576141da6143ee565b5b828204905092915050565b60006141f182614284565b91506141fc83614284565b92508282101561420f5761420e6143bf565b5b828203905092915050565b600061422582614264565b9050919050565b60008115159050919050565b60007fffffffff0000000000000000000000000000000000000000000000000000000082169050919050565b600073ffffffffffffffffffffffffffffffffffffffff82169050919050565b6000819050919050565b600061429982614284565b9050919050565b82818337600083830152505050565b60005b838110156142cd5780820151818401526020810190506142b2565b838111156142dc576000848401525b50505050565b600060028204905060018216806142fa57607f821691505b6020821081141561430e5761430d61441d565b5b50919050565b61431d8261447b565b810181811067ffffffffffffffff8211171561433c5761433b61444c565b5b80604052505050565b600061435082614284565b91507fffffffffffffffffffffffffffffffffffffffffffffffffffffffffffffffff821415614383576143826143bf565b5b600182019050919050565b600061439982614284565b91506143a483614284565b9250826143b4576143b36143ee565b5b828206905092915050565b7f4e487b7100000000000000000000000000000000000000000000000000000000600052601160045260246000fd5b7f4e487b7100000000000000000000000000000000000000000000000000000000600052601260045260246000fd5b7f4e487b7100000000000000000000000000000000000000000000000000000000600052602260045260246000fd5b7f4e487b7100000000000000000000000000000000000000000000000000000000600052604160045260246000fd5b6000601f19601f8301169050919050565b7f4552433732313a207472616e7366657220746f206e6f6e20455243373231526560008201527f63656976657220696d706c656d656e7465720000000000000000000000000000602082015250565b7f566f74696e67206e6f7420616c6c6f7765642079657400000000000000000000600082015250565b7f4552433732313a207472616e736665722066726f6d20696e636f72726563742060008201527f6f776e6572000000000000000000000000000000000000000000000000000000602082015250565b7f4552433732313a20746f6b656e20616c7265616479206d696e74656400000000600082015250565b7f4552433732313a207472616e7366657220746f20746865207a65726f2061646460008201527f7265737300000000000000000000000000000000000000000000000000000000602082015250565b7f4552433732313a20617070726f766520746f2063616c6c657200000000000000600082015250565b7f4552433732313a206f70657261746f7220717565727920666f72206e6f6e657860008201527f697374656e7420746f6b656e0000000000000000000000000000000000000000602082015250565b7f4552433732313a20617070726f76652063616c6c6572206973206e6f74206f7760008201527f6e6572206e6f7220617070726f76656420666f7220616c6c0000000000000000602082015250565b7f4552433732313a2062616c616e636520717565727920666f7220746865207a6560008201527f726f206164647265737300000000000000000000000000000000000000000000602082015250565b7f4552433732313a206f776e657220717565727920666f72206e6f6e657869737460008201527f656e7420746f6b656e0000000000000000000000000000000000000000000000602082015250565b7f45524337323155524953746f726167653a2055524920736574206f66206e6f6e60008201527f6578697374656e7420746f6b656e000000000000000000000000000000000000602082015250565b7f4552433732313a206d696e7420746f20746865207a65726f2061646472657373600082015250565b7f45524337323155524953746f726167653a2055524920717565727920666f722060008201527f6e6f6e6578697374656e7420746f6b656e000000000000000000000000000000602082015250565b7f4552433732313a20617070726f76656420717565727920666f72206e6f6e657860008201527f697374656e7420746f6b656e0000000000000000000000000000000000000000602082015250565b7f4552433732314d657461646174613a2055524920717565727920666f72206e6f60008201527f6e6578697374656e7420746f6b656e0000000000000000000000000000000000602082015250565b7f4552433732313a20617070726f76616c20746f2063757272656e74206f776e6560008201527f7200000000000000000000000000000000000000000000000000000000000000602082015250565b7f4552433732313a207472616e736665722063616c6c6572206973206e6f74206f60008201527f776e6572206e6f7220617070726f766564000000000000000000000000000000602082015250565b61493c8161421a565b811461494757600080fd5b50565b6149538161422c565b811461495e57600080fd5b50565b61496a81614238565b811461497557600080fd5b50565b61498181614284565b811461498c57600080fd5b5056fea2646970667358221220214a55cd241f18147ae37cfba5b20570c31c2e4fb317667fd93b5b817a069da964736f6c63430008010033",
  "linkReferences": {},
  "deployedLinkReferences": {}
}