{
  "_format": "hh-sol-artifact-1",
  "contractName": "VotingSystem",
  "sourceName": "contracts/VotingSystem.sol",
  "abi": [
    {
      "inputs": [],
      "stateMutability": "nonpayable",
      "type": "constructor"
    },
    {
      "anonymous": false,
      "inputs": [
        {
          "indexed": true,
          "internalType": "address",
          "name": "candAdd",
          "type": "address"
        },
        {
          "indexed": false,
          "internalType": "string",
          "name": "name",
          "type": "string"
        },
        {
          "indexed": false,
          "internalType": "string",
          "name": "proposal",
          "type": "string"
        },
        {
          "indexed": false,
          "internalType": "uint256",
          "name": "votes",
          "type": "uint256"
        }
      ],
      "name": "NewCandidate",
      "type": "event"
    },
    {
      "anonymous": false,
      "inputs": [
        {
          "indexed": true,
          "internalType": "address",
          "name": "voterAdd",
          "type": "address"
        },
        {
          "indexed": false,
          "internalType": "string",
          "name": "name",
          "type": "string"
        },
        {
          "indexed": false,
          "internalType": "bool",
          "name": "voted",
          "type": "bool"
        }
      ],
      "name": "NewVoter",
      "type": "event"
    },
    {
      "inputs": [
        {
          "internalType": "address",
          "name": "_candAddress",
          "type": "address"
        },
        {
          "internalType": "string",
          "name": "_candName",
          "type": "string"
        },
        {
          "internalType": "string",
          "name": "_candProposal",
          "type": "string"
        }
      ],
      "name": "addCandidate",
      "outputs": [],
      "stateMutability": "nonpayable",
      "type": "function"
    },
    {
      "inputs": [
        {
          "internalType": "address",
          "name": "_voterAddress",
          "type": "address"
        },
        {
          "internalType": "string",
          "name": "_voterName",
          "type": "string"
        }
      ],
      "name": "addVoter",
      "outputs": [],
      "stateMutability": "nonpayable",
      "type": "function"
    },
    {
      "inputs": [
        {
          "internalType": "uint256",
          "name": "",
          "type": "uint256"
        }
      ],
      "name": "candArr",
      "outputs": [
        {
          "internalType": "address",
          "name": "candAddress",
          "type": "address"
        },
        {
          "internalType": "string",
          "name": "name",
          "type": "string"
        },
        {
          "internalType": "string",
          "name": "proposal",
          "type": "string"
        },
        {
          "internalType": "uint256",
          "name": "votes",
          "type": "uint256"
        }
      ],
      "stateMutability": "view",
      "type": "function"
    },
    {
      "inputs": [],
      "name": "candWinner",
      "outputs": [
        {
          "internalType": "address",
          "name": "_candAddress",
          "type": "address"
        },
        {
          "internalType": "string",
          "name": "_name",
          "type": "string"
        },
        {
          "internalType": "string",
          "name": "_proposal",
          "type": "string"
        },
        {
          "internalType": "uint256",
          "name": "_votes",
          "type": "uint256"
        }
      ],
      "stateMutability": "view",
      "type": "function"
    },
    {
      "inputs": [],
      "name": "endVoting",
      "outputs": [],
      "stateMutability": "nonpayable",
      "type": "function"
    },
    {
      "inputs": [],
      "name": "getCandidates",
      "outputs": [
        {
          "components": [
            {
              "internalType": "address",
              "name": "candAddress",
              "type": "address"
            },
            {
              "internalType": "string",
              "name": "name",
              "type": "string"
            },
            {
              "internalType": "string",
              "name": "proposal",
              "type": "string"
            },
            {
              "internalType": "uint256",
              "name": "votes",
              "type": "uint256"
            }
          ],
          "internalType": "struct VotingSystem.candidate[]",
          "name": "",
          "type": "tuple[]"
        }
      ],
      "stateMutability": "view",
      "type": "function"
    },
    {
      "inputs": [],
      "name": "getVoters",
      "outputs": [
        {
          "components": [
            {
              "internalType": "address",
              "name": "voterAddress",
              "type": "address"
            },
            {
              "internalType": "string",
              "name": "name",
              "type": "string"
            },
            {
              "internalType": "bool",
              "name": "voted",
              "type": "bool"
            }
          ],
          "internalType": "struct VotingSystem.voter[]",
          "name": "",
          "type": "tuple[]"
        }
      ],
      "stateMutability": "view",
      "type": "function"
    },
    {
      "inputs": [
        {
          "internalType": "address",
          "name": "_ad",
          "type": "address"
        }
      ],
      "name": "isManager",
      "outputs": [
        {
          "internalType": "bool",
          "name": "",
          "type": "bool"
        }
      ],
      "stateMutability": "view",
      "type": "function"
    },
    {
      "inputs": [],
      "name": "startVoting",
      "outputs": [],
      "stateMutability": "nonpayable",
      "type": "function"
    },
    {
      "inputs": [
        {
          "internalType": "address",
          "name": "_candAddress",
          "type": "address"
        }
      ],
      "name": "voteCandidate",
      "outputs": [],
      "stateMutability": "nonpayable",
      "type": "function"
    },
    {
      "inputs": [
        {
          "internalType": "uint256",
          "name": "",
          "type": "uint256"
        }
      ],
      "name": "voterArr",
      "outputs": [
        {
          "internalType": "address",
          "name": "voterAddress",
          "type": "address"
        },
        {
          "internalType": "string",
          "name": "name",
          "type": "string"
        },
        {
          "internalType": "bool",
          "name": "voted",
          "type": "bool"
        }
      ],
      "stateMutability": "view",
      "type": "function"
    },
    {
      "inputs": [],
      "name": "votingStatus",
      "outputs": [
        {
          "internalType": "bool",
          "name": "voteAllow",
          "type": "bool"
        }
      ],
      "stateMutability": "view",
      "type": "function"
    }
  ],
  "bytecode": "0x608060405234801561001057600080fd5b5033600260006101000a81548173ffffffffffffffffffffffffffffffffffffffff021916908373ffffffffffffffffffffffffffffffffffffffff160217905550612297806100616000396000f3fe608060405234801561001057600080fd5b50600436106100b45760003560e01c8063c3403ddf11610071578063c3403ddf1461016f578063cdd7225314610179578063d9e95a9814610197578063e22a6231146101b3578063f2a3991c146101cf578063f3ae241514610201576100b4565b806306a49fce146100b957806319f41a40146100d75780631ec6b60a146100f557806326bb886d146100ff5780632f08a7b31461011b5780637cabb2741461013c575b600080fd5b6100c1610231565b6040516100ce9190611daa565b60405180910390f35b6100df610414565b6040516100ec9190611dee565b60405180910390f35b6100fd61042b565b005b6101196004803603810190610114919061188d565b6104a2565b005b610123610aeb565b6040516101339493929190611d57565b60405180910390f35b61015660048036038101906101519190611989565b610e00565b6040516101669493929190611d57565b60405180910390f35b610177610f70565b005b610181610fe7565b60405161018e9190611dcc565b60405180910390f35b6101b160048036038101906101ac91906118b6565b611149565b005b6101cd60048036038101906101c8919061190a565b6113a5565b005b6101e960048036038101906101e49190611989565b61160f565b6040516101f893929190611d19565b60405180910390f35b61021b6004803603810190610216919061188d565b6116fe565b6040516102289190611dee565b60405180910390f35b60606000805480602002602001604051908101604052809291908181526020016000905b8282101561040b57838290600052602060002090600402016040518060800160405290816000820160009054906101000a900473ffffffffffffffffffffffffffffffffffffffff1673ffffffffffffffffffffffffffffffffffffffff1673ffffffffffffffffffffffffffffffffffffffff1681526020016001820180546102de9061211a565b80601f016020809104026020016040519081016040528092919081815260200182805461030a9061211a565b80156103575780601f1061032c57610100808354040283529160200191610357565b820191906000526020600020905b81548152906001019060200180831161033a57829003601f168201915b505050505081526020016002820180546103709061211a565b80601f016020809104026020016040519081016040528092919081815260200182805461039c9061211a565b80156103e95780601f106103be576101008083540402835291602001916103e9565b820191906000526020600020905b8154815290600101906020018083116103cc57829003601f168201915b5050505050815260200160038201548152505081526020019060010190610255565b50505050905090565b6000600260149054906101000a900460ff16905090565b600260009054906101000a900473ffffffffffffffffffffffffffffffffffffffff1673ffffffffffffffffffffffffffffffffffffffff163373ffffffffffffffffffffffffffffffffffffffff161461048557600080fd5b6001600260146101000a81548160ff021916908315150217905550565b600260149054906101000a900460ff166104f1576040517f08c379a00000000000000000000000000000000000000000000000000000000081526004016104e890611ef3565b60405180910390fd5b600260009054906101000a900473ffffffffffffffffffffffffffffffffffffffff1673ffffffffffffffffffffffffffffffffffffffff163373ffffffffffffffffffffffffffffffffffffffff16141561054c57600080fd5b60008060005b6001805490508110156106195760018181548110610599577f4e487b7100000000000000000000000000000000000000000000000000000000600052603260045260246000fd5b906000526020600020906003020160000160009054906101000a900473ffffffffffffffffffffffffffffffffffffffff1673ffffffffffffffffffffffffffffffffffffffff163373ffffffffffffffffffffffffffffffffffffffff16141561060657809150600192505b80806106119061214c565b915050610552565b506001821461062757600080fd5b60018181548110610661577f4e487b7100000000000000000000000000000000000000000000000000000000600052603260045260246000fd5b906000526020600020906003020160020160009054906101000a900460ff161561068a57600080fd5b60005b600080549050811015610ae557600081815481106106d4577f4e487b7100000000000000000000000000000000000000000000000000000000600052603260045260246000fd5b906000526020600020906004020160000160009054906101000a900473ffffffffffffffffffffffffffffffffffffffff1673ffffffffffffffffffffffffffffffffffffffff168473ffffffffffffffffffffffffffffffffffffffff161415610ad257600160008281548110610775577f4e487b7100000000000000000000000000000000000000000000000000000000600052603260045260246000fd5b9060005260206000209060040201600301546107919190612028565b600082815481106107cb577f4e487b7100000000000000000000000000000000000000000000000000000000600052603260045260246000fd5b906000526020600020906004020160030181905550600180838154811061081b577f4e487b7100000000000000000000000000000000000000000000000000000000600052603260045260246000fd5b906000526020600020906003020160020160006101000a81548160ff0219169083151502179055508373ffffffffffffffffffffffffffffffffffffffff167fc7e9b5441428ea3adeaac63526e39b43f0105390be443ebe7cc976c304840ddd600083815481106108b5577f4e487b7100000000000000000000000000000000000000000000000000000000600052603260045260246000fd5b906000526020600020906004020160010160008481548110610900577f4e487b7100000000000000000000000000000000000000000000000000000000600052603260045260246000fd5b90600052602060002090600402016002016000858154811061094b577f4e487b7100000000000000000000000000000000000000000000000000000000600052603260045260246000fd5b90600052602060002090600402016003015460405161096c93929190611eae565b60405180910390a2600181815481106109ae577f4e487b7100000000000000000000000000000000000000000000000000000000600052603260045260246000fd5b906000526020600020906003020160000160009054906101000a900473ffffffffffffffffffffffffffffffffffffffff1673ffffffffffffffffffffffffffffffffffffffff167fd1341ba54138fc2127191a51c3e4e2dc76e5ca995a4fa8044a609b6e5c4b233160018381548110610a51577f4e487b7100000000000000000000000000000000000000000000000000000000600052603260045260246000fd5b906000526020600020906003020160010160018481548110610a9c577f4e487b7100000000000000000000000000000000000000000000000000000000600052603260045260246000fd5b906000526020600020906003020160020160009054906101000a900460ff16604051610ac9929190611e7e565b60405180910390a25b8080610add9061214c565b91505061068d565b50505050565b60006060806000600260149054906101000a900460ff1615610b0c57600080fd5b60008060005b600080549050811015610b895760008181548110610b59577f4e487b7100000000000000000000000000000000000000000000000000000000600052603260045260246000fd5b906000526020600020906004020160030154831015610b76578091505b8080610b819061214c565b915050610b12565b5060008181548110610bc4577f4e487b7100000000000000000000000000000000000000000000000000000000600052603260045260246000fd5b906000526020600020906004020160000160009054906101000a900473ffffffffffffffffffffffffffffffffffffffff1660008281548110610c30577f4e487b7100000000000000000000000000000000000000000000000000000000600052603260045260246000fd5b906000526020600020906004020160010160008381548110610c7b577f4e487b7100000000000000000000000000000000000000000000000000000000600052603260045260246000fd5b906000526020600020906004020160020160008481548110610cc6577f4e487b7100000000000000000000000000000000000000000000000000000000600052603260045260246000fd5b906000526020600020906004020160030154828054610ce49061211a565b80601f0160208091040260200160405190810160405280929190818152602001828054610d109061211a565b8015610d5d5780601f10610d3257610100808354040283529160200191610d5d565b820191906000526020600020905b815481529060010190602001808311610d4057829003601f168201915b50505050509250818054610d709061211a565b80601f0160208091040260200160405190810160405280929190818152602001828054610d9c9061211a565b8015610de95780601f10610dbe57610100808354040283529160200191610de9565b820191906000526020600020905b815481529060010190602001808311610dcc57829003601f168201915b505050505091509550955095509550505090919293565b60008181548110610e1057600080fd5b90600052602060002090600402016000915090508060000160009054906101000a900473ffffffffffffffffffffffffffffffffffffffff1690806001018054610e599061211a565b80601f0160208091040260200160405190810160405280929190818152602001828054610e859061211a565b8015610ed25780601f10610ea757610100808354040283529160200191610ed2565b820191906000526020600020905b815481529060010190602001808311610eb557829003601f168201915b505050505090806002018054610ee79061211a565b80601f0160208091040260200160405190810160405280929190818152602001828054610f139061211a565b8015610f605780601f10610f3557610100808354040283529160200191610f60565b820191906000526020600020905b815481529060010190602001808311610f4357829003601f168201915b5050505050908060030154905084565b600260009054906101000a900473ffffffffffffffffffffffffffffffffffffffff1673ffffffffffffffffffffffffffffffffffffffff163373ffffffffffffffffffffffffffffffffffffffff1614610fca57600080fd5b6000600260146101000a81548160ff021916908315150217905550565b60606001805480602002602001604051908101604052809291908181526020016000905b8282101561114057838290600052602060002090600302016040518060600160405290816000820160009054906101000a900473ffffffffffffffffffffffffffffffffffffffff1673ffffffffffffffffffffffffffffffffffffffff1673ffffffffffffffffffffffffffffffffffffffff1681526020016001820180546110949061211a565b80601f01602080910402602001604051908101604052809291908181526020018280546110c09061211a565b801561110d5780601f106110e25761010080835404028352916020019161110d565b820191906000526020600020905b8154815290600101906020018083116110f057829003601f168201915b505050505081526020016002820160009054906101000a900460ff1615151515815250508152602001906001019061100b565b50505050905090565b600260009054906101000a900473ffffffffffffffffffffffffffffffffffffffff1673ffffffffffffffffffffffffffffffffffffffff163373ffffffffffffffffffffffffffffffffffffffff16146111a357600080fd5b60005b60018054905081101561126a57600181815481106111ed577f4e487b7100000000000000000000000000000000000000000000000000000000600052603260045260246000fd5b906000526020600020906003020160000160009054906101000a900473ffffffffffffffffffffffffffffffffffffffff1673ffffffffffffffffffffffffffffffffffffffff168373ffffffffffffffffffffffffffffffffffffffff16141561125757600080fd5b80806112629061214c565b9150506111a6565b50600160405180606001604052808473ffffffffffffffffffffffffffffffffffffffff16815260200183815260200160001515815250908060018154018082558091505060019003906000526020600020906003020160009091909190915060008201518160000160006101000a81548173ffffffffffffffffffffffffffffffffffffffff021916908373ffffffffffffffffffffffffffffffffffffffff160217905550602082015181600101908051906020019061132d929190611758565b5060408201518160020160006101000a81548160ff02191690831515021790555050508173ffffffffffffffffffffffffffffffffffffffff167fd1341ba54138fc2127191a51c3e4e2dc76e5ca995a4fa8044a609b6e5c4b2331826000604051611399929190611e09565b60405180910390a25050565b600260009054906101000a900473ffffffffffffffffffffffffffffffffffffffff1673ffffffffffffffffffffffffffffffffffffffff163373ffffffffffffffffffffffffffffffffffffffff16146113ff57600080fd5b60005b6000805490508110156114c65760008181548110611449577f4e487b7100000000000000000000000000000000000000000000000000000000600052603260045260246000fd5b906000526020600020906004020160000160009054906101000a900473ffffffffffffffffffffffffffffffffffffffff1673ffffffffffffffffffffffffffffffffffffffff168473ffffffffffffffffffffffffffffffffffffffff1614156114b357600080fd5b80806114be9061214c565b915050611402565b50600060405180608001604052808573ffffffffffffffffffffffffffffffffffffffff1681526020018481526020018381526020016000815250908060018154018082558091505060019003906000526020600020906004020160009091909190915060008201518160000160006101000a81548173ffffffffffffffffffffffffffffffffffffffff021916908373ffffffffffffffffffffffffffffffffffffffff160217905550602082015181600101908051906020019061158d929190611758565b5060408201518160020190805190602001906115aa929190611758565b506060820151816003015550508273ffffffffffffffffffffffffffffffffffffffff167fc7e9b5441428ea3adeaac63526e39b43f0105390be443ebe7cc976c304840ddd8383600060405161160293929190611e39565b60405180910390a2505050565b6001818154811061161f57600080fd5b90600052602060002090600302016000915090508060000160009054906101000a900473ffffffffffffffffffffffffffffffffffffffff16908060010180546116689061211a565b80601f01602080910402602001604051908101604052809291908181526020018280546116949061211a565b80156116e15780601f106116b6576101008083540402835291602001916116e1565b820191906000526020600020905b8154815290600101906020018083116116c457829003601f168201915b5050505050908060020160009054906101000a900460ff16905083565b6000600260009054906101000a900473ffffffffffffffffffffffffffffffffffffffff1673ffffffffffffffffffffffffffffffffffffffff168273ffffffffffffffffffffffffffffffffffffffff16149050919050565b8280546117649061211a565b90600052602060002090601f01602090048101928261178657600085556117cd565b82601f1061179f57805160ff19168380011785556117cd565b828001600101855582156117cd579182015b828111156117cc5782518255916020019190600101906117b1565b5b5090506117da91906117de565b5090565b5b808211156117f75760008160009055506001016117df565b5090565b600061180e61180984611f44565b611f13565b90508281526020810184848401111561182657600080fd5b6118318482856120d8565b509392505050565b60008135905061184881612233565b92915050565b600082601f83011261185f57600080fd5b813561186f8482602086016117fb565b91505092915050565b6000813590506118878161224a565b92915050565b60006020828403121561189f57600080fd5b60006118ad84828501611839565b91505092915050565b600080604083850312156118c957600080fd5b60006118d785828601611839565b925050602083013567ffffffffffffffff8111156118f457600080fd5b6119008582860161184e565b9150509250929050565b60008060006060848603121561191f57600080fd5b600061192d86828701611839565b935050602084013567ffffffffffffffff81111561194a57600080fd5b6119568682870161184e565b925050604084013567ffffffffffffffff81111561197357600080fd5b61197f8682870161184e565b9150509250925092565b60006020828403121561199b57600080fd5b60006119a984828501611878565b91505092915050565b60006119be8383611c41565b905092915050565b60006119d28383611cab565b905092915050565b6119e38161207e565b82525050565b6119f28161207e565b82525050565b6000611a0382611fa9565b611a0d8185611fe4565b935083602082028501611a1f85611f74565b8060005b85811015611a5b5784840389528151611a3c85826119b2565b9450611a4783611fca565b925060208a01995050600181019050611a23565b50829750879550505050505092915050565b6000611a7882611fb4565b611a828185611ff5565b935083602082028501611a9485611f84565b8060005b85811015611ad05784840389528151611ab185826119c6565b9450611abc83611fd7565b925060208a01995050600181019050611a98565b50829750879550505050505092915050565b611aeb81612090565b82525050565b611afa81612090565b82525050565b611b09816120c6565b82525050565b6000611b1a82611fbf565b611b248185612006565b9350611b348185602086016120e7565b611b3d81612222565b840191505092915050565b6000611b5382611fbf565b611b5d8185612017565b9350611b6d8185602086016120e7565b611b7681612222565b840191505092915050565b60008154611b8e8161211a565b611b988186612017565b94506001821660008114611bb35760018114611bc557611bf8565b60ff1983168652602086019350611bf8565b611bce85611f94565b60005b83811015611bf057815481890152600182019150602081019050611bd1565b808801955050505b50505092915050565b6000611c0e601683612017565b91507f566f74696e67206e6f7420616c6c6f77656420796574000000000000000000006000830152602082019050919050565b6000608083016000830151611c5960008601826119da565b5060208301518482036020860152611c718282611b0f565b91505060408301518482036040860152611c8b8282611b0f565b9150506060830151611ca06060860182611cfb565b508091505092915050565b6000606083016000830151611cc360008601826119da565b5060208301518482036020860152611cdb8282611b0f565b9150506040830151611cf06040860182611ae2565b508091505092915050565b611d04816120bc565b82525050565b611d13816120bc565b82525050565b6000606082019050611d2e60008301866119e9565b8181036020830152611d408185611b48565b9050611d4f6040830184611af1565b949350505050565b6000608082019050611d6c60008301876119e9565b8181036020830152611d7e8186611b48565b90508181036040830152611d928185611b48565b9050611da16060830184611d0a565b95945050505050565b60006020820190508181036000830152611dc481846119f8565b905092915050565b60006020820190508181036000830152611de68184611a6d565b905092915050565b6000602082019050611e036000830184611af1565b92915050565b60006040820190508181036000830152611e238185611b48565b9050611e326020830184611af1565b9392505050565b60006060820190508181036000830152611e538186611b48565b90508181036020830152611e678185611b48565b9050611e766040830184611b00565b949350505050565b60006040820190508181036000830152611e988185611b81565b9050611ea76020830184611af1565b9392505050565b60006060820190508181036000830152611ec88186611b81565b90508181036020830152611edc8185611b81565b9050611eeb6040830184611d0a565b949350505050565b60006020820190508181036000830152611f0c81611c01565b9050919050565b6000604051905081810181811067ffffffffffffffff82111715611f3a57611f396121f3565b5b8060405250919050565b600067ffffffffffffffff821115611f5f57611f5e6121f3565b5b601f19601f8301169050602081019050919050565b6000819050602082019050919050565b6000819050602082019050919050565b60008190508160005260206000209050919050565b600081519050919050565b600081519050919050565b600081519050919050565b6000602082019050919050565b6000602082019050919050565b600082825260208201905092915050565b600082825260208201905092915050565b600082825260208201905092915050565b600082825260208201905092915050565b6000612033826120bc565b915061203e836120bc565b9250827fffffffffffffffffffffffffffffffffffffffffffffffffffffffffffffffff0382111561207357612072612195565b5b828201905092915050565b60006120898261209c565b9050919050565b60008115159050919050565b600073ffffffffffffffffffffffffffffffffffffffff82169050919050565b6000819050919050565b60006120d1826120bc565b9050919050565b82818337600083830152505050565b60005b838110156121055780820151818401526020810190506120ea565b83811115612114576000848401525b50505050565b6000600282049050600182168061213257607f821691505b60208210811415612146576121456121c4565b5b50919050565b6000612157826120bc565b91507fffffffffffffffffffffffffffffffffffffffffffffffffffffffffffffffff82141561218a57612189612195565b5b600182019050919050565b7f4e487b7100000000000000000000000000000000000000000000000000000000600052601160045260246000fd5b7f4e487b7100000000000000000000000000000000000000000000000000000000600052602260045260246000fd5b7f4e487b7100000000000000000000000000000000000000000000000000000000600052604160045260246000fd5b6000601f19601f8301169050919050565b61223c8161207e565b811461224757600080fd5b50565b612253816120bc565b811461225e57600080fd5b5056fea26469706673582212204372df157142cc69cc2664b2174818abe9086d7e7799947edf6b8101fadeb1fd64736f6c63430008000033",
  "linkReferences": {},
  "deployedLinkReferences": {}
}